:020000040800F2
:1000000090090020890200080F500008871F00088F
:100010000D500008F908000899650008000000006C
:100020000000000000000000000000002B5300084A
:10003000BD0B00080000000029530008C153000850
:10004000A3020008A3020008A3020008A3020008FC
:10005000A3020008A3020008A3020008A3020008EC
:10006000A3020008A3020008A3020008A3020008DC
:10007000A3020008A3020008A3020008A3020008CC
:10008000A3020008A3020008A3020008A3020008BC
:10009000A3020008A3020008A3020008A3020008AC
:1000A000A3020008A3020008A3020008A30200089C
:1000B000A3020008A302000819540008A3020008C4
:1000C000A3020008A3020008A3020008A30200087C
:1000D000A30200086D650008A3020008A30200083F
:1000E000A3020008A3020008A3020008A30200085C
:1000F000A3020008A3020008A3020008A30200084C
:10010000A3020008A3020008A3020008A30200083B
:10011000A3020008A3020008A3020008A30200082B
:10012000A3020008A3020008A3020008A30200081B
:10013000A3020008A3020008A3020008A30200080B
:10014000A3020008A3020008A3020008A3020008FB
:10015000A3020008A3020008A3020008A3020008EB
:10016000A3020008A3020008A3020008A3020008DB
:10017000A3020008A3020008A30200080000000078
:10018000A3020008A302000800F002F800F06DF8D6
:100190000AA090E8000C82448344AAF10107DA45E2
:1001A00001D100F062F8AFF2090EBAE80F0013F0C7
:1001B000010F18BFFB1A43F001031847F4CA0000EF
:1001C00014CB00000A444FF0000C10F8013B13F070
:1001D000070408BF10F8014B1D1108BF10F8015BA0
:1001E000641E05D010F8016B641E01F8016BF9D193
:1001F00013F0080F1EBF10F8014BAD1C0C1B09D1EA
:100200006D1E58BF01F801CBFAD505E014F8016B5B
:1002100001F8016B6D1EF9D59142D6D370470000ED
:100220000023002400250026103A28BF78C1FBD8FF
:10023000520728BF30C148BF0B607047642900F0E7
:10024000A180752900F09E80782900F0D78063296D
:1002500000F07682732900F07B82002070471FB582
:1002600008F05DF81FBD10B510BD00F0ABFA1146E7
:10027000FFF7F5FF06F03CFB00F0C9FA03B4FFF707
:10028000F2FF03BC06F0CDF9094880470948004752
:10029000FEE7FEE7FEE7FEE7FEE7FEE7FEE7FEE736
:1002A000FEE7FEE704480549054A064B7047000093
:1002B000C553000889010008900300209009002020
:1002C0009005002090050020704700000FB40449FD
:1002D00010B503AA029800F03FFA10BC5DF814FBB9
:1002E0001000002070B5044685690068C10601D57C
:1002F000302600E02026C00707D070BDD4E90121D8
:1003000030469047206A401C20626D1EF6D570BDB5
:1003100070B5044685690078C00707D170BDD4E97F
:10032000012120209047206A401C20626D1EF6D5D6
:1003300070BD70B50C460546012A05D028788006A8
:1003400000D5EA69002302E0012305E05B1C93422B
:1003500002D2E05C0028F9D1A869E618C01AA861A9
:10036000286A184428622846FFF7BCFF04E0D5E954
:10037000012114F8010B9047B442F8D32846FFF747
:10038000C7FF70BD2DE9F0410646002410687529AD
:10039000314616A510D0AFF30080002802DA4042A3
:1003A00013A507E031688A0701D512A502E04907C5
:1003B00004D511A5012401E0AFF3008000210A2239
:1003C00006F1240709E0B0FBF2FCB0FBF2F302FBFC
:1003D0001C00303078541846491C0028F3D12346BD
:1003E0002A463046BDE8F04100F047B90000000061
:1003F0002D0000002B0000002000000070B5044616
:100400000D4621461068AFF300802188090502D50A
:100410000F4A7A4402E00E4A7A440E32002104F177
:10042000240305E000F00F060009965D5E54491CA8
:100430000028F7D120780023000704D5702D02D0C2
:1004400009B1022311322046BDE8704000F015B911
:100450004EC700002DE9F05F894604464FF0000AC0
:10046000DFF874B1FB44C0F820A02046E16888475B
:10047000002874D0252806D0D4E901219047206AAD
:10048000401C2062F1E700265F462046E16888476D
:100490002028054607DB312D05D2781910F8200CED
:1004A00008B10643F1E7B00701D526F00406C4F809
:1004B0001CA00027C4F818A02A2D09D0284606F051
:1004C000A9F838B304EB8708303DC8F8185019E094
:1004D00059F8041B204604EB87029161E1688847C4
:1004E000012F054618D1E069002820DA26F0200601
:1004F0001DE0D8F8180000EB800005EB4000303814
:10050000C8F818002046E1688847054606F082F8DA
:100510000028EED1012F0AD02E2D08D12046E16807
:1005200088477F1C0546022F46F02006C4DBA069E1
:10053000002803DA404246F00106A061F00701D02E
:1005400026F010066C2D0BD0682D09D04C2D39D01B
:100550006A2D35D0742D35D07A2D33D016E038E0A1
:10056000E1682F4620468847B842054609D16C2FDE
:1005700026D04FF48060E168064320468847054650
:1005800004E06C2F1AD04FF4807006430DB3A5F130
:100590004100192802D8203546F400664A4629460B
:1005A000204626604E46FFF749FE80B101280BD059
:1005B000F61D26F0070000F1080956E74020E4E7A1
:1005C0008020D8E70020D6E706F104094DE7284649
:1005D00052E7206ABDE8F09F24C700004FF0013CBD
:1005E00050F8042B51F8043B9A4221D1A2EB0C03A2
:1005F000934313EACC1317D150F8042B51F8043B62
:100600009A4215D1A2EB0C03934313EACC130BD1FE
:1006100050F8042B51F8043B9A4209D1A2EB0C0389
:10062000934313EACC13DBD04FF00000704700BFB8
:10063000D01A01BAB1FA81F101F0180122FA01F0E1
:10064000CB40C1F12001DBB2C0B2C01A2CFA01F3D9
:10065000D11A914311EAC311E6D170477047704730
:100660007047704710B500F089F8006810BD10B5EC
:10067000044600F083F8046010BD2DE9F0470D46F4
:1006800099469246044600F124080168880604D57C
:10069000E06921F01001216000E00120A84201DDA5
:1006A000471B00E00027A1697A1902EB0900081A2C
:1006B000A0612078C00602D42046FFF713FE002672
:1006C00008E0D4E901211AF806009047206A401C8E
:1006D000761C20624E45F4DB2078C0060AD5204601
:1006E000FFF700FE06E0D4E9012130209047206AA0
:1006F000401C2062381EA7F10107F4DC07E0D4E9B2
:10070000012118F805009047206A401C2062281E2D
:10071000A5F10105F3DC2046FFF7FAFD207800067D
:1007200002D50220BDE8F0870120FBE710B5436940
:1007300013B1AFF3008001E0FFF7FBFD012010BD16
:10074000127800F124010A7000224A700122EDE7BC
:1007500011684FF0FF32E9E7074B70B50D467B4457
:1007600000F015F80446284600F024F810B14FF0C8
:10077000FF3070BD204670BD036000000048704728
:100780002C03002001694A1C02610878704700B5FB
:100790008FB0CDE901310021059105497944CDE9BA
:1007A000031011466846FFF755FE0FB000BD00006C
:1007B000E5FFFFFF007B00F08000704700487047B6
:1007C0002C0300207546FFF7F9FFAE460500694689
:1007D000534620F00700854618B020B5FFF762FDAC
:1007E000BDE820404FF000064FF000074FF0000832
:1007F0004FF0000B21F00701AC46ACE8C009ACE8B3
:10080000C009ACE8C009ACE8C0098D46704710B516
:100810000446AFF300802046BDE81040FFF72EBD30
:1008200001F0D2BB2DE9F0410D46014600200446FF
:100830004E1908E00702301B401E80B200F007F896
:10084000641C3844E4B2AC42F4D3BDE8F08110B586
:10085000044601F061FC200AA02101EB4000C0B277
:1008600001F02AFC01F09AFCE0B201F025FC01F055
:1008700095FC01F051FCA12001F01EFC01F08EFC62
:10088000002001F0E5FB044601F066FC204610BDA7
:100890002DE9F04116460D460746002409E0E00028
:1008A00025FA00F0C1B2381980B200F006F8641CD5
:1008B000E4B2B442F3D3BDE8F08170B50D4604460E
:1008C00001F02AFC200AA02101EB4000C0B201F097
:1008D000F3FB01F063FCE0B201F0EEFB01F05EFC23
:1008E000284601F0E9FB01F059FC01F035FCBDE8B8
:1008F00070400A2005F00EBFFEE7000070B50F4CF7
:100900000025C4F880520E48016821F440010160BE
:10091000016841F480010160022004F5207405F0B3
:1009200007FF0848C0F8AC52022005F001FF012083
:100930002060022005F0FCFE256070BD0080404272
:100940000014024000804242154810B5016886B08C
:1009500041F002010160016801F0020105910168A6
:1009600041F0200101600068012400F020000094A3
:1009700005900320CDE9024001946946094800F042
:10098000D1FCE00200906946074800F0CBFC074824
:10099000C0F8AC420648C0F8804206B010BD000066
:1009A00030380240000402400014024000804242FD
:1009B0000080404270B50F4C0026C4F880620E489B
:1009C000016821F440010160016841F48001016087
:1009D000022004F5207405F0ABFE08480125C0F89C
:1009E000AC52022005F0A4FE2560022005F0A0FE16
:1009F000266070BD008040420014024000804242E8
:100A00002DE9F047824617480024016821F440018F
:100A10000160016801601E2005F08AFE0025124E6B
:100A2000DFF848902F464FF00108C6F88072022088
:100A300005F07EFEC6F880826006040ED9F82C020E
:100A400008B1641CE4B26D1CEDB2082DEDD3BAF10F
:100A5000000F04D0FFF752FF2046BDE8F087FFF7F4
:100A6000A9FFF9E7001402400080404200804242A2
:100A70002DE9F04705461548016821F44001016061
:100A8000016841F480010160114E0027C6F88072B0
:100A9000022005F04DFEDFF83C8000244FF00109F4
:100AA000E909C8F8AC126806050EC6F88092022063
:100AB00005F03EFEC6F88072022005F039FE641C87
:100AC000E4B2082CECD3BDE8F0870000001402402B
:100AD000008040420080424270B50F48016821F416
:100AE00040010160016841F4800101600B4E01206A
:100AF000C6F8AC020A4DC5F880021E2005F5207527
:100B000006F52B7605F014FE00243460022005F073
:100B10000FFE2C6070BD00000014024000804242B5
:100B20000080404270B50D48016821F44001016029
:100B3000016841F48001016009480125C0F8805234
:100B40001E2005F0F5FD074C0020C4F8AC02022081
:100B500004F52B7405F0ECFD256070BD0014024017
:100B6000008040420080424270B511480024016874
:100B700021F440010160016801600E4D0120C5F8BB
:100B8000AC020D4EC6F8800207E0641CE4B2FA2CF9
:100B900003D9FFF7C7FF012070BD022005F0C8FD93
:100BA000D5F82C020028F0D1C6F8800270BD0000F4
:100BB0000014024000804242008040427047000022
:100BC00070B5B3F5804F05D06FF0704140F822103A
:100BD000002070BD50F82230084C2340D1E9004578
:100BE00044EA05148D688E892D0245EA0645896917
:100BF0002C430C431C4340F82240E9E70000F0CFAF
:100C0000F0B50C6850F82450114A1540D1E9012381
:100C1000D1E903671A433E4332434E6932438E693A
:100C20003243CE6932430E6A32434E6A32438E6A91
:100C30003243CE6A3243CE6B096B32430A432A43B6
:100C4000082B01D142F0400240F824200020F0BDE2
:100C50008000F0FF30B500EB82004268D1E900343B
:100C600043EA04138C688D89240244EA0544234333
:100C70000C8A084D02F0404205EB045423430C7DDE
:100C80006D0105EB0464896923430B4313434360FF
:100C9000002030BD0000F0FF70B5324888B000245D
:100CA000016841F002010160016801F00201069152
:100CB000016841F0040101600068012500F00400B2
:100CC000069002208DE831000320039069462648F3
:100CD00000F028FB6803CDE900056946234800F0D1
:100CE00021FBFFF731FE224EC6F8B442142006F570
:100CF0002D7605F00FFD3560322005F00BFD8DF8E7
:100D00001440012205A9002000F000F9012205A9E4
:100D1000A42000F0FBF816208DF81400012205A98C
:100D2000802000F0F3F80C208DF81400012205A9B2
:100D3000882000F0EBF8022205A9A12000F020F89D
:100D40009DF81400302803D19DF81500032802D027
:100D5000012008B070BD43F2030106A0FFF7B6FA08
:100D60000020F6E73038024000040240000802404C
:100D7000000041424354502049443A25780D0A006E
:100D80002DE9F04115460F460446FFF7A5FE7020F9
:100D9000FFF76EFEFFF7E8FEE0B2FFF769FEFFF730
:100DA000E3FEFFF799FE7120FFF762FEFFF7DCFE1E
:100DB00000246E1E09E0B44201D0012000E00020B2
:100DC000FFF71EFE3855641CE4B2AC42F3D3BDE815
:100DD000F041FFF7A7BE00002DE9F143484F002482
:100DE0004FF00A09387882B0401CC0B2B0FBF9F26B
:100DF00009FB1201434DA046387009B10A2863D29D
:100E0000012202A90220FFF7BBFF9DF8080001079D
:100E10005AD000F00F00062856D2FF218140C84367
:100E200040F0C00085F820004FF00108002695F83A
:100E3000201008FA04F0014239D0334804226946F0
:100E400030F81400FFF79CFF95F830009DF8001073
:100E5000C0079DF8010001F00F010ED000EB012149
:100E600005EB4400C1829DF802209DF8031002F0BA
:100E70000F0201EB022181810FE000EB0120C0F5A0
:100E8000F07105EB440081819DF802209DF803106C
:100E900002F00F0201EB0221C1829DF8000008213F
:100EA000B1EB101F03D005EB4400C6828681641CA1
:100EB000E4B2052CBBD3A9894FF0010819B9E88A1F
:100EC00008B98DF808603E709DF80800C0060ED184
:100ED00095F82000010602D520F0800005E04FF6CD
:100EE000FF71A981E98200F0E00085F820003878E0
:100EF000F02801D987F800904046BDE8FE83000045
:100F00001D000020240000208ACA00082DE9F041BD
:100F100015460E4604460027FFF7DEFD7020FFF75A
:100F2000A7FDFFF721FEE0B2FFF7A2FDFFF71CFED1
:100F3000002408E0305DFFF79BFDFFF715FE07007A
:100F400003D1641CE4B2AC42F4D3FFF7EBFD3846A6
:100F5000BDE8F0812DE9F0433C4889B000240168E8
:100F600041F002010160016801F00201079101688E
:100F700041F0040101600068022600F004000790BF
:100F800001AA012503270096DFF8C49082E8B0008B
:100F90006946484600F0C6F96803CDE90005694690
:100FA0002C4800F0BFF9FFF7CFFCDFF8AC80C8F8A1
:100FB000B4420A2005F0AEFBC8F8B4520A2005F08E
:100FC000A9FB03970096CDE901546946484600F015
:100FD000A9F9642005F09EFB042205A948F24010FF
:100FE00000F050F88DF8184005A91CA0FFF76EF925
:100FF0001DA105A8FFF7F2FA18B1012009B0BDE85C
:10100000F08348F240058DF81460012205A92846B6
:1010100000F04CF9012205A9E81D00F033F89DF815
:101020001410602905D212A0FFF750F9012000F03A
:1010300017F90A2005F06EFB8DF81440012205A96E
:10104000284600F033F90020D8E70000303802408D
:101050000004024000080240000041424354502076
:1010600049443A25730D0A00393134370000000035
:1010700044656661756C74205665723A25640D0A84
:10108000000000002DE9F04115460F460446FFF729
:1010900023FD2820FFF7ECFCFFF766FD200AFFF791
:1010A000E7FCFFF761FDE0B2FFF7E2FCFFF75CFD54
:1010B000FFF712FD2920FFF7DBFCFFF755FD0024A9
:1010C0006E1E09E0B44201D0012000E00020FFF7CD
:1010D00097FC3855641CE4B2AC42F3D3BDE8F04150
:1010E000FFF720BD2DE9F147594D00244FF00A0AC2
:1010F000287883B0401CC0B2B0FBFAF20AFB1201A0
:10110000544EA046287009B10A2877D248F24E19E9
:10111000012203A94846FFF7B5FF9DF80C004FF0E8
:10112000000701060AD500F00F00062806D28DF848
:101130000470012201A9484600F0B8F89DF80C009F
:1011400001075BD000F00F01062957D2FF2088402D
:101150008DF80400C04396F8209040F0C00086F857
:101160002000B089B082F08AF0834FF0010896F831
:10117000201008FA04F0014225D0374804226946BD
:1011800030F81400FFF77EFF96F830009DF801104C
:10119000C0079DF8000000EB012106EB44000AD0D7
:1011A000C1829DF802109DF8032001EB0221C1F5D8
:1011B0004871818107E081819DF802109DF803202C
:1011C00001EB0221C182641CE4B2052CCFD3234978
:1011D000B2894FF001080B8830469A4203D8C28A80
:1011E00049888A4209D99DF80C1001F00F010129A4
:1011F0000BD9C1898181018BF1822F709DF80C0080
:1012000000F08F0080280AD018E0818A8181C18B8C
:10121000C18280218DF80C1086F82090EEE796F8B8
:101220002000010602D520F0800005E04FF6FF7196
:10123000B181F18200F0E00086F820002878F028E3
:1012400001D985F800A004B04046BDE8F087000051
:101250001E000020240000204CCB0008E0020020EB
:1012600008B500218DF800108DF801000E489DF89A
:101270000020435C491C1A44C9B28DF80020B829EB
:10128000F5D3D0B2C043401C8DF80000B822064907
:1012900048F2470000F00AF80222694648F2FF00CF
:1012A00000F004F8002008BD94CA00082DE9F041C0
:1012B00015460E4604460027FFF70EFC2820FFF7D0
:1012C000D7FBFFF751FC200AFFF7D2FBFFF74CFCDE
:1012D000E0B2FFF7CDFBFFF747FC002408E0305DEC
:1012E000FFF7C6FBFFF740FC070003D1641CE4B224
:1012F000AC42F4D3FFF716FC3846BDE8F08190F815
:101300003510022903D08021416501207047052155
:1013100080F835100068016821F0010101600020AB
:10132000704700002DE9F84FDFF88C91002209F199
:10133000040A0AF1040B4FF00F080BF1040E01260A
:101340000B6896403340B34271D14C68022C01D0F7
:10135000122C11D1D40800EB84073D6A5407E40E27
:1013600008FA04FC25EA0C05D1F810C00CFA04FCBC
:101370004CEA050CC7F820C007685400032591F813
:1013800004C0A5400CF0030CAF430CFA04FC4CEA7B
:10139000070CC0F800C04F68012F05D0022F03D002
:1013A000112F01D0122F11D18768D1F80CC0AF4393
:1013B0000CFA04FC4CEA070CC0F808C04768B743B5
:1013C0000E79C6F3001696403E434660C668AE43AB
:1013D0008D68A5403543C5604C68E40065D5374C41
:1013E000256845F480452560246822F0030504F44F
:1013F00080440094324C2E19D6F808789407250FB3
:1014000008FA05F4A7432F4CA04201D1002424E0A0
:101410002D4CA04201D101241FE02C4CA04201D14F
:1014200002241AE02A4CA04202D1032415E03CE039
:10143000284CA04201D104240FE0274CA04201D146
:1014400005240AE0254CA04201D1062405E0244CE5
:10145000A04201D1072400E00824AC403C43C6F878
:101460000848D9F800404D464E689C43F60300D525
:101470001C432C60DAF8004055464E689C43B60386
:1014800000D51C432C60DBF800405D464E689C4351
:10149000F60200D51C432C60DEF8004075464E680D
:1014A0009C43B60200D51C432C60521C102AFFF44A
:1014B00046AFBDE8F88F0000003C014044380240D0
:1014C00000300140000002400004024000080240D9
:1014D000000C0240001002400014024000180240BC
:1014E000001C02400069084000D0012070470AB18A
:1014F000816170470904FBE701480068000C7047F0
:10150000002004E00148006870470000040000204B
:1015100002480168491C0160704700000400002077
:10152000094810B5016841F400710160016841F497
:1015300080610160052000F049F80F2000F006F8F6
:1015400000F018F8002010BD003C024010B5044621
:1015500007484FF47A710068B0FBF1F000F088FBA7
:1015600000222146501E00F011F8002010BD00009E
:1015700000000020704700F01F0201219140400947
:10158000800000F1E020C0F800117047F0B40E4B6D
:101590001B68C3F30223C3F10704042C00D90424FD
:1015A0001D1D072D01D2002300E0DB1E012606FAD7
:1015B00004F56D1E0D409D409E40761E164045EA86
:1015C0000601F0BC03F024BD0CED00E0064A00F07B
:1015D000070110684FF6FF03184040EA0120034955
:1015E00008431060704700000CED00E00000FA05B1
:1015F0002DE9F047DFF85C9104460E46D9F800006B
:1016000000F00F01F0B28046B14207D289F8000025
:10161000D9F8000000F00F00B04271D120784E4F91
:10162000800705D53868A16820F0F00008433860CD
:101630002078C00756D048496068083901281AD078
:1016400002281BD0032819D009688907002957DA16
:10165000396821F0030101433960FFF753FF054664
:10166000606841F28831012811D002281CD003287B
:101670008A4625D032E009688903E7E709688901CD
:10168000E4E7FFF73FFF411B514501D923E08A46BC
:101690003868C0F381000128F3D123E0FFF732FF5F
:1016A000411B514501D916E08A463868C0F38100D4
:1016B0000228F3D116E0FFF725FF411B51450AD858
:1016C0003868C0F381000328F5D10BE0FFF71AFF5B
:1016D000411B514502D90320BDE8F087386810F05E
:1016E0000C0FF3D1D9F80010484601F00F01B142B8
:1016F00008D980F80080006800F00F00B04201D0E7
:101700000120E9E72078400705D53868E16820F432
:10171000E050084338602078000706D53868216912
:1017200020F4604040EAC100386000F04BF83968AE
:10173000F02292FAA2F201F0F001B2FA82F2D14064
:10174000064A515CC840064908600F20FFF7FEFEBC
:101750000020C1E7003C0240083802403283000804
:101760000000002008480949006809684FF4E05269
:1017700092FAA2F201F4E051B2FA82F2D140044AA4
:10178000515CC8407047000000000020083802404B
:101790004283000808480949006809684FF460421C
:1017A00092FAA2F201F46041B2FA82F2D140044A04
:1017B000515CC8407047000000000020083802401B
:1017C0004283000830B51948006810F00C01184831
:1017D00012D0441004290ED008290DD1134A121F2B
:1017E0001168136801F03F015D0247F6C07304D52C
:1017F000B4FBF1F003E0204630BDB0FBF1F011681E
:10180000194093FAA3F3B3FA83F3D940484311681C
:101810004FF4403292FAA2F201F44031B2FA82F26D
:10182000D140491C4900B0FBF1F030BD08380240FE
:101830000024F4002DE9F84F04460078DFF8F4A204
:10184000BD4DC00748D0DAF800105046C1F3810101
:10185000012908D00068C0F3810002280AD1281DA0
:101860000068400206D52868800335D560680028E6
:1018700070D031E06068B0F5803F10D0B0F5A02F97
:10188000286810D020F480302860286820F4802058
:1018900028606068A0B1FFF735FE06460CE02868B6
:1018A00040F48030F4E740F480202860F7E7FFF749
:1018B00029FE801B642873D828688003F7D50BE0C5
:1018C000FFF720FE064604E0FFF71CFE801B64289D
:1018D000F1D828688003F7D42078DFF86082800789
:1018E0004FF0010B4FF0000943D5DAF800105046D5
:1018F00011F00C0F4FF0F80709D00068C0F3810019
:1019000002280BD18B48001F0068400206D42868CB
:10191000800713D5E06801281CD10FE0E068D0B142
:10192000C8F800B0FFF7EEFD064604E0FFF7EAFD59
:10193000801B0228BFD828688007F7D5286897FA47
:10194000A7F22169B2FA82F220F0F8009140084330
:1019500028600EE0EBE0C8F80090FFF7D3FD0646E4
:1019600004E0FFF7CFFD801B022819D82868800704
:10197000F7D42078000722D56E4F714861696C3723
:1019800079B1C0F800B0FFF7BDFD064604E0FFF7EF
:10199000B9FD801B022803D838688007F7D50EE010
:1019A00079E0C0F80090FFF7ADFD064604E0FFF7D0
:1019B000A9FD801B02286ED838688007F7D42078EC
:1019C000400750D55B483830016841F080510160D4
:1019D00000685C4F00F080500090386840F48070E0
:1019E0003860FFF78FFD064604E0FFF78BFD801B94
:1019F000022850D83868C005F7D54E4FA068683720
:101A000001280FD00528386810D020F00100386078
:101A1000386820F004003860A068B0B1FFF772FDAC
:101A200006460EE0386840F00100F4E740F004009C
:101A30003860F7E7FFF766FD811B41F2883081428D
:101A40006DD838688007F5D50DE0FFF75BFD0646D9
:101A500006E0FFF757FD811B41F2883081425ED8D6
:101A600038688007F5D4A069F0B3DAF80010C1F344
:101A7000810102295BD00228484605D0C8F86000E1
:101A8000FFF740FD04464DE04746C8F86000FFF709
:101A900039FD064605E042E0FFF734FD801B0228D1
:101AA0003DD828688001F7D4D4E90701084347F6F8
:101AB000C07292FAA2F2616AB2FA82F29140A26A0C
:101AC0004FF0FF3303EB52024FF4403393FAA3F38A
:101AD000B3FA83F39A4011434FF0706292FAA2F284
:101AE0000843B2FA82F200E01FE0E16A9140084345
:101AF0001049091F0860C7F860B0FFF703FD0446EE
:101B000004E0FFF7FFFC001B022808D828688001CA
:101B1000F7D50AE0FFF7F6FC001B022802D90320E4
:101B2000BDE8F88F28688001F4D40020F8E7012090
:101B3000F6E7000008380240003802400000474243
:101B4000800E47420070004070B515460E460400F6
:101B500003D094F8490010B107E0012070BD0020C7
:101B600084F84800204600F01BF804F108012068C2
:101B7000FFF746F83146A2682068FFF76BF8D4E912
:101B800001022946236BFFF71BF8A168206850F873
:101B9000212042F0010240F82120002070BD000009
:101BA000284810B5016886B041F001010160006865
:101BB00000F00100059023480838016841F0080151
:101BC0000160016801F008010591016841F0100110
:101BD0000160016801F010010591016841F02001E8
:101BE0000160016801F020010591016841F04001A8
:101BF00001600068694600F0400005904CF23370C7
:101C000000900220019001200290032003900C20FC
:101C100004900D48FFF786FB4FF6807000906946F0
:101C20000A48FFF77FFB4FF4805469460848009448
:101C3000FFF778FB694607480094FFF773FB06B08F
:101C400010BD000038380240000C02400010024075
:101C500000140240001802404FF0E02104280869F7
:101C600003D020F004000861704740F00400FAE758
:101C700010B5401EB0F1807F01D3012010BD4FF0A0
:101C8000E02460610F21601703F0C2F90020A06119
:101C900007202061002010BD10B5040003D094F887
:101CA000390010B107E0012010BD002084F8380091
:101CB000204600F00CF8022084F83900211D20682D
:101CC00003F0C4FB012084F83900002010BD7047E8
:101CD0000168CA6842F00102CA600068016841F008
:101CE0000101016000207047704710F8391F4078EB
:101CF0000843704770B5026804461068D16853699C
:101D000010F00F0F51D003F0010501F49076354328
:101D10005DD0C20705D0CA0503D5E26B42F00102CF
:101D2000E263420705D5DA0703D0E26B42F0020214
:101D3000E263820705D5DA0703D0E26B42F00402C2
:101D4000E263020705D5DA0703D0E26B42F008022E
:101D5000E263E26B002A34D0800604D5880602D5FF
:101D6000204604F035FA20684069E16BC0F380102A
:101D700001F008010143204624D004F01BFA20683A
:101D8000416949061AD5416921F040014161606B02
:101D9000A0B11B490165606BFFF7B1FA002810D0B4
:101DA000606B016DBDE87040084783060FD58B0658
:101DB0000DD52046BDE8704004F00ABA2046FFF772
:101DC00093FF70BDFFF790FF0020E06370BD030636
:101DD00006D50B0604D52046BDE8704004F094BB40
:101DE0004006F3D54806F1D5D168204621F04001E0
:101DF000D160202184F8391000F0C4F870BD0000D3
:101E0000A561000870B5040004D094F839000025DD
:101E100010B106E0012070BD84F83850204600F073
:101E200023F8242084F839002068C16821F4005187
:101E3000C160204604F012FA2068016921F4904143
:101E400001612068416921F02A0141612068C1686F
:101E500041F40051C160E563202084F8390084F822
:101E60003A00002070BD000010B500681A4986B025
:101E700088422FD11948016841F0010101600068D2
:101E800000F00100059015481430016841F0100180
:101E900001600068012100F0100005904FF400700F
:101EA00000900220CDE90101039007200C4C049022
:101EB00069462046FFF736FA21150091694620460B
:101EC000FFF730FA2520FFF756FB032211462520A5
:101ED000FFF75CFB06B010BD001001403038024037
:101EE0000000024090F83A30202B1DD1D1B1CAB188
:101EF00090F83830012B17D081628285C28500218D
:101F0000C163222280F83A2080F8381001684A69BB
:101F100042F001024A610068C16841F49071C160F9
:101F200000207047012070470220704730B50068DC
:101F3000114988420CD1114A5088010408D4114635
:101F4000440409784FF0000306D50A2901D05380D4
:101F500030BD40F400400DE00D2909D0C0F30D0460
:101F6000074D401C80B229555080C728EFD830BD9E
:101F700040F48040508030BD001001400C00002033
:101F8000880100207047FEE770B50D4C0025C4F8AD
:101F9000A0520C48016821F440210160016841F41D
:101FA00080210160C4F8A452022004F5287404F0D2
:101FB000BFFB01202060022004F0BAFB256070BD49
:101FC00000804042000402400E4810B5016886B00F
:101FD00041F0020101600068012400F00200059058
:101FE0004FF44070CDE900040220CDE9024069467B
:101FF0000548FFF797F90548C0F8A442C0F8A04289
:1020000006B010BD3038024000040240008040425B
:1020100070B50D4C0026C4F8A0620C48016821F48C
:1020200040210160016841F4802101600125C4F86C
:10203000A452022004F5287404F07AFB25600220E3
:1020400004F076FB266070BD008040420004024030
:102050002DE9F047814616480024016821F440210B
:10206000016001680160134E254627464FF00108C4
:10207000C6F8A072022004F05BFBC6F8A0826006DE
:10208000040ED6F8240208B1641CE4B2012004F066
:102090004FFB6D1CEDB2082DEAD3B9F1000F04D04F
:1020A000FFF772FF2046BDE8F087FFF7B1FFF9E7C1
:1020B00000040240008040422DE9F04105461448EA
:1020C000016821F440210160016841F48021016030
:1020D000104E0027C6F8A0723C464FF00108E809F0
:1020E000C6F8A4026806050E022004F021FBC6F81B
:1020F000A082022004F01CFBC6F8A072022004F0AB
:1021000017FB641CE4B2082CE9D3BDE8F0810000A1
:10211000000402400080404270B50D48016821F47F
:1021200040210160016841F480210160094C0120D7
:10213000C4F8A402C4F8A002042004F5287404F032
:10214000F7FA00256560042004F0F2FA256070BDFE
:1021500000040240008040420E4810B5016821F49E
:1021600040210160016841F4802101600A4C002097
:10217000C4F8A002C4F8A402042004F5287404F0F2
:10218000D7FA012020606060BDE81040042004F010
:10219000CFBA0000000402400080404270B51248EF
:1021A0000024016821F440210160016801600F4DA5
:1021B0000126C5F8A462304604F0BAFAC5F8A06258
:1021C000012004F0B5FA07E0641CE4B2FA2C03D94C
:1021D000FFF7C2FF012070BDD5F824020028F3D11B
:1021E000C5F8A00270BD000000040240008040421B
:1021F00070B5144886B00025016841F00101016006
:10220000016801F001010591016841F010010160D0
:102210000068032400F01000059002200126CDE99B
:102220000204CDE9006569460748FFF77BF81C20EA
:1022300003948DE8610069460448FFF773F806B01F
:1022400070BD000030380240000002400010024023
:102250002DE9F04101262E4C2E4F2F4D01281DD087
:102260002078A0B110212846FFF73CF9C0B1082121
:102270002846FFF737F998B104212846FFF732F9CD
:1022800070B101213846FFF72DF9012808D010213F
:102290002846FFF727F9012826D037E02670E1E726
:1022A0000A2004F037FA0020207010212846FFF79A
:1022B00019F980B108212846FFF714F970B10421FB
:1022C0002846FFF70FF958B101213846FFF70AF900
:1022D000012807D01AE00120BDE8F0810220FBE7C9
:1022E0000320F9E70420F7E708212846FFF7FAF86A
:1022F00001280BD104212846FFF7F4F8012805D165
:1023000001213846FFF7EEF800B926700020E3E718
:102310001C000020000002400010024070B506467C
:102320000A4800240188458820464D43214602F092
:10233000A7FC02F013FEB1B24FF0D84002E0A0F8C3
:102340008010641CAC42FAD370BD0000E002002093
:102350002DE9F04F334B2C24194698712A25898892
:102360002B2645F2105B4FF4305E4FF448774FF068
:10237000F00949F2413A4FF4A07845F2103C4FF48D
:10238000F07258B1A3F80080A3F80290514501D033
:10239000614529D11C815D819E8139E0A3F80090BF
:1023A000A3F80280514501D0614508D11C815D81AF
:1023B0009E81614531D1A3F800805A802DE05945B6
:1023C00008D1A3F808E04FF4285058814FF42C505E
:1023D000988106E0A1F5C85063381ED11C815E814A
:1023E0009D811A805F8018E0594508D1A3F808E064
:1023F0004FF4285058814FF42C50988106E0A1F5F5
:10240000C850633804D11C815D819E811F805A8031
:10241000614502D11A80A3F80280BDE8F04F002088
:1024200002F052BBE00200202DE9FE4F0026A2EB95
:10243000000882465F1A701E35468946B8F1000FC3
:1024400002DD4FF0010102E003D14FF000010191E4
:1024500002E0C8F100080190002F02DD4FF00100FA
:1024600002E003D14FF00000009002E0C7F1000746
:1024700000904046B84501DD044600E03C46601C43
:102480004FF0000B029015E01FFA89F11FFA8AF055
:1024900000F016F846443D44A64202DD0199361B81
:1024A0008A44A54202DD00992D1B89440BF10100ED
:1024B0001FFA80FB02998B45E6DDBDE8FE8F000028
:1024C00000B502F0DDFB02F049FD03484FF0D841B2
:1024D0000088A1F8800000BD140000202DE9FC4F09
:1024E00080460024154603200F46A0EB450649E030
:1024F000781B81B208EB040A01901FFA8AF0FFF7FB
:10250000DFFF381B81B208EB050900901FFA89F044
:10251000FFF7D6FF07EB040B1FFA8BF11FFA89F0C8
:10252000FFF7CEFF07EB05091FFA89F11FFA8AF0C2
:10253000FFF7C6FFA8EB040A1FFA89F11FFA8AF019
:10254000FFF7BEFFA8EB05091FFA8BF11FFA89F010
:10255000FFF7B6FF019881B21FFA8AF0FFF7B0FFCC
:10256000009881B21FFA89F0FFF7AAFF641C002EC1
:1025700003DA06EB8406B61D04E0601B06EB80065A
:102580006D1E0A36AC42B3DDBDE8FC8F2DE9F0418B
:10259000364D90460C4602460F0AA8882946160A70
:1025A0004989A0F51343413B0BD0A0F5A643103B4E
:1025B00007D0B3F5007311D0A0F5C853633B27D003
:1025C0004BE0084602F0BDFC304602F0AEFCD0B253
:1025D00002F0ABFCA88902F0B4FC38E0084602F037
:1025E000B0FC304602F0A1FC6889401C80B202F0C9
:1025F000A8FCD0B202F099FCA88902F0A2FC3846EF
:1026000002F093FCA889401C80B202F09AFC21E001
:10261000A87918B92888801A401E82B2084602F0AC
:1026200090FC160A304602F080FCD0B202F07DFC2D
:10263000304602F07AFCD0B202F077FCA88902F0B2
:1026400080FC384602F071FCE0B202F06EFC3846C5
:1026500002F06BFCE0B202F068FC4FF0D840298930
:1026600020F87E1FA0F80280BDE8F081E002002083
:102670002DE9F0431F468146A2EB0900079B401C51
:102680000C4686B29DB24FF0D84810E0214648462D
:1026900002F0F6FA02F062FC0020414603E0A1F8E5
:1026A0008050401C80B2B042F9D3641CA4B2BC423A
:1026B000ECD9BDE8F08300002DE9F04FFF4895B05C
:1026C0000024016841F00201016000684FF0010937
:1026D00000F00200139003204FF4004ACDE910905F
:1026E000CDE90EA90EA9F648FEF71CFEF548F649FD
:1026F0004FF02045C0E900510621C0E90214102125
:10270000C0E9044184610902C461C0E9094189004A
:10271000C0E90B4189014463C0E90E410F20CDE9B6
:1027200000043C2002900920CDE906400820CDE9B4
:10273000084007AA6946E3480D94FFF705FA3220DE
:1027400003F0E8FFD32002F0FCFB02F08BF9DD4A36
:102750005032908002F086F9908002F083F94FF6B3
:10276000FF7B0BEA0020908002F07CF9918845F213
:1027700010360843A0F51341908045F2105441F6FD
:102780006317413949D0D42002F0DBFB02F06AF92B
:10279000908002F067F9908002F064F90BEA002063
:1027A000D846908002F05EF9918808439080B0424C
:1027B00033D04FF45A4002F0C4FB02F053F990803A
:1027C0004FF45B4002F0BDFB02F04CF908EA002038
:1027D00090804FF45C4002F0B4FB02F043F9918822
:1027E00008439080504501D1948016E0A04214D057
:1027F000A12002F0A6FB02F035F9908002F032F938
:1028000008EA0020908002F02DF991880843A0F595
:10281000AE419080613900D1978092469188ABA0FB
:10282000FDF754FDBAF8040049F2413840457CD127
:10283000CF2002F086FB002002F077FBC12002F0DF
:1028400074FB302002F071FBED2002F07AFB642073
:1028500002F06BFB032002F068FB122002F065FB24
:10286000812002F062FBE82002F06BFB852002F081
:102870005CFB102002F059FB7A2002F056FBCB20C3
:1028800002F05FFB392002F050FB2C2002F04DFBE0
:10289000002002F04AFB342002F047FB022002F045
:1028A00044FBF72002F04DFB202002F03EFBEA2023
:1028B00002F047FB002002F038FB002002F035FB5D
:1028C000C02002F03EFB1B2002F02FFBC12002F0D3
:1028D00038FB012002F029FBC52002F032FB30203A
:1028E00002F023FB302002F020FBC72002F029FB7E
:1028F000B72002F01AFB362002F023FB482002F03A
:1029000014FB3A2002F01DFB552002F00EFBB12013
:1029100002F017FB002002F008FB1A2002F005FB72
:10292000B62002F00EFB0A2000E097E002F0FDFA6C
:10293000A22002F0FAFAF22002F003FB002002F0DB
:10294000F4FA262002F0FDFA012002F0EEFAE0206F
:1029500002F0F7FA0F2002F0E8FA2A2002F0E5FA76
:10296000282002F0E2FA082002F0DFFA0E2002F03E
:10297000DCFA082002F0D9FA542002F0D6FAA92095
:1029800002F0D3FA432002F0D0FA0A2002F0CDFA86
:102990000F2002F0CAFA002002F0C7FA002002F06D
:1029A000C4FA002002F0C1FA002002F0BEFAE120D1
:1029B00002F0C7FA002002F0B8FA152002F0B5FACA
:1029C000172002F0B2FA072002F0AFFA112002F04D
:1029D000ACFA062002F0A9FA2B2002F0A6FA562043
:1029E00002F0A3FA3C2002F0A0FA052002F09DFAC2
:1029F000102002F09AFA0F2002F097FA3F2002F01E
:102A000094FA3F2002F091FA0F2002F08EFA2B2068
:102A100002F097FA002002F088FA002002F085FA0E
:102A2000012002F082FA3F2002F07FFA2A2002F011
:102A300088FA002002F079FA002002F076FA0020ED
:102A400002F073FAEF2002F070FA112002F079FA26
:102A5000782003F05FFE292001F00FBFB0427DD146
:102A6000ED2002F06EFA012002F05FFAFE2002F083
:102A70005CFAEE2002F065FADE2002F056FA212020
:102A800002F053FAF12002F05CFA012002F04DFA54
:102A9000DF2002F056FA102002F047FAC42002F0BC
:102AA00050FA8F2002F041FAC62002F04AFA0020C4
:102AB00002F03BFAE22002F038FA0FE03038024030
:102AC0000004024090020020040100A0204C434476
:102AD0002049443A25780D0A00000000E22002F067
:102AE00024FAE22002F021FABF2002F02AFAAA20FA
:102AF00002F01BFAB02002F024FA0D2002F015FAC1
:102B0000002002F012FA0D2002F00FFA002002F06D
:102B10000CFA112002F009FA002002F006FA19203E
:102B200002F003FA002002F000FA212002F0FDF981
:102B3000002002F0FAF92D2002F0F7F9002002F04F
:102B4000F4F93D2002F0F1F9002002F0EEF95D20E9
:102B500002F0EBF9002002F0E8F900E0FDE35D206F
:102B600002F0E3F9002002F0E0F9B12002F0E9F907
:102B7000802002F0DAF9002002F0D7F98B2002F071
:102B8000D4F9002002F0D1F9962002F0CEF900200D
:102B900002F0CBF9B22002F0D4F9002002F0C5F91E
:102BA000002002F0C2F9022002F0BFF9002002F07A
:102BB000BCF9032002F0B9F9002002F0B6F9B32005
:102BC00002F0BFF9002002F0B0F9002002F0ADF9E8
:102BD000002002F0AAF9002002F0A7F9002002F07C
:102BE000A4F9002002F0A1F9002002F09EF90020D3
:102BF00002F09BF9002002F098F9002002F095F90C
:102C0000002002F092F9002002F08FF9002002F07B
:102C10008CF9002002F089F9002002F086F90020EA
:102C200002F083F9002002F080F9002002F07DF923
:102C3000002002F07AF9002002F077F9002002F07B
:102C400074F9002002F071F9002002F06EF9002002
:102C500002F06BF9B42002F074F98B2002F065F9F0
:102C6000002002F062F9962002F05FF9002002F0E5
:102C70005CF9A12002F059F9002002F056F9B520C4
:102C800002F05FF9022002F050F9002002F04DF945
:102C9000032002F04AF9002002F047F9042002F074
:102CA00044F9002002F041F9B62002F04AF9002070
:102CB00002F03BF9002002F038F9B72002F041F9A8
:102CC000002002F032F9002002F02FF93F2002F03C
:102CD0002CF9002002F029F95E2002F026F90020EC
:102CE00002F023F9642002F020F9002002F01DF91F
:102CF0008C2002F01AF9002002F017F9AC2002F043
:102D000014F9002002F011F9DC2002F00EF9002085
:102D100002F00BF9702002F008F9002002F005F92A
:102D2000902002F002F9002002F0FFF8EB2002F000
:102D3000FCF8002002F0F9F8DC2002F0F6F80020A0
:102D400002F0F3F8B82002F0FCF8002002F0EDF8F1
:102D5000002002F0EAF8002002F0E7F8002002F07C
:102D6000E4F8002002F0E1F8002002F0DEF8002094
:102D700002F0DBF8002002F0D8F8BA2002F0E1F807
:102D8000242002F0D2F8002002F0CFF8002002F058
:102D9000CCF8002002F0C9F8C12002F0D2F82020BF
:102DA00002F0C3F8002002F0C0F8542002F0BDF891
:102DB000002002F0BAF8FF2002F0B7F8002002F07D
:102DC000B4F8C22002F0BDF80A2002F0AEF80020EC
:102DD00002F0ABF8042002F0A8F8002002F0A5F8F9
:102DE000C32002F0AEF83C2002F09FF8002002F071
:102DF0009CF83A2002F099F8002002F096F8392069
:102E000002F093F8002002F090F8372002F08DF8DD
:102E1000002002F08AF83C2002F087F8002002F03F
:102E200084F8362002F081F8002002F07EF832208B
:102E300002F07BF8002002F078F82F2002F075F8FD
:102E4000002002F072F82C2002F06FF8002002F04F
:102E50006CF8292002F069F8002002F066F82620BC
:102E600002F063F8002002F060F8242002F05DF820
:102E7000002002F05AF8242002F057F8002002F057
:102E800054F8232002F051F8002002F04EF83C20C4
:102E900002F04BF8002002F048F8362002F045F826
:102EA000002002F042F8322002F03FF8002002F049
:102EB0003CF82F2002F039F8002002F036F82C20E0
:102EC00002F033F8002002F030F8292002F02DF84B
:102ED000002002F02AF8262002F027F8002002F055
:102EE00024F8242002F021F8002002F01EF824200B
:102EF00002F01BF8002002F018F8232002F015F869
:102F0000002002F012F8C42002F01BF8622002F048
:102F10000CF8002002F009F8052002F006F8002065
:102F200002F003F8842002F000F8002001F0FDFF19
:102F3000F02001F0FAFF002001F0F7FF182001F067
:102F4000F4FF002001F0F1FFA42001F0EEFF0020CB
:102F500001F0EBFF182001F0E8FF002001F0E5FF91
:102F6000502001F0E2FF002001F0DFFF0C2001F013
:102F7000DCFF002001F0D9FF172001F0D6FF002070
:102F800001F0D3FF952001F0D0FF002001F0CDFF2C
:102F9000F32001F0CAFF002001F0C7FFE62001F096
:102FA000C4FF002001F0C1FFC52001F0CAFF32209C
:102FB00001F0BBFF002001F0B8FF442001F0B5FF95
:102FC000002001F0B2FF652001F0AFFF002001F00A
:102FD000ACFF762001F0A9FF002001F0A6FF8820B9
:102FE00001F0A3FF002001F0A0FFC62001F0A9FF1F
:102FF000202001F09AFF002001F097FF172001F038
:1030000094FF002001F091FF012001F08EFF0020CD
:1030100001F08BFFC72001F094FF002001F085FF35
:10302000002001F082FF002001F07FFF002001F06E
:103030007CFFC82001F085FF002001F076FF002012
:1030400001F073FF002001F070FF002001F06DFF20
:10305000C92001F076FF002001F067FF002001F099
:1030600064FF002001F061FF002001F05EFF0020FE
:1030700001F05BFF002001F058FF002001F055FF38
:10308000002001F052FF002001F04FFF002001F06E
:103090004CFF002001F049FF002001F046FF002016
:1030A00001F043FF002001F040FF002001F03DFF50
:1030B000002001F03AFFE02001F043FF162001F06C
:1030C00034FF002001F031FF1C2001F02EFF002012
:1030D00001F02BFF212001F028FF002001F025FF47
:1030E000362001F022FF002001F01FFF462001F0F2
:1030F0001CFF002001F019FF522001F016FF0020F4
:1031000001F013FF642001F010FF002001F00DFF1B
:103110007A2001F00AFF002001F007FF8B2001F068
:1031200004FF002001F001FF992001F0FEFE0020C5
:1031300001F0FBFEA82001F0F8FE002001F0F5FEF2
:10314000B92001F0F2FE002001F0EFFEC42001F0F2
:10315000ECFE002001F0E9FECA2001F0E6FE0020AE
:1031600001F0E3FED22001F0E0FE002001F0DDFEE0
:10317000D92001F0DAFE002001F0D7FEE02001F0B6
:10318000D4FE002001F0D1FEF32001F0CEFE00209D
:1031900001F0CBFEE12001F0D4FE162001F0C5FEC7
:1031A000002001F0C2FE1C2001F0BFFE002001F053
:1031B000BCFE222001F0B9FE002001F0B6FE362050
:1031C00001F0B3FE002001F0B0FE452001F0ADFE9D
:1031D000002001F0AAFE522001F0A7FE002001F01D
:1031E000A4FE642001F0A1FE002001F09EFE7A20E2
:1031F00001F09BFE002001F098FE8B2001F095FE6F
:10320000002001F092FE992001F08FFE002001F0D5
:103210008CFEA82001F089FE002001F086FEB92076
:1032200001F083FE002001F080FEC42001F07DFE4D
:10323000002001F07AFECA2001F077FE002001F0A4
:1032400074FED22001F071FE002001F06EFED82045
:1032500001F06BFE002001F068FEE02001F065FE49
:10326000002001F062FEF32001F05FFE002001F07B
:103270005CFEE22001F065FE052001F056FE002014
:1032800001F053FE0B2001F050FE002001F04DFE36
:103290001B2001F04AFE002001F047FE342001F01F
:1032A00044FE002001F041FE442001F03EFE0020DB
:1032B00001F03BFE4F2001F038FE002001F035FE0A
:1032C000612001F032FE002001F02FFE792001F094
:1032D0002CFE002001F029FE882001F026FE0020AF
:1032E00001F023FE972001F020FE002001F01DFEDA
:1032F000A62001F01AFE002001F017FEB72001F011
:1033000014FE002001F011FEC22001F00EFE00208C
:1033100001F00BFEC72001F008FE002001F005FEC1
:10332000D12001F002FE002001F0FFFDD62001F0C7
:10333000FCFD002001F0F9FDDD2001F0F6FD00208C
:1033400001F0F3FDF32001F0F0FD002001F0EDFDB0
:10335000E32001F0F6FD052000E00CE301F0E5FDBF
:10336000002001F0E2FD0A2001F0DFFD002001F065
:10337000DCFD1C2001F0D9FD002001F0D6FD33203A
:1033800001F0D3FD002001F0D0FD442001F0CDFD7F
:10339000002001F0CAFD502001F0C7FD002001F01F
:1033A000C4FD622001F0C1FD002001F0BEFD7820C7
:1033B00001F0BBFD002001F0B8FD882001F0B5FD53
:1033C000002001F0B2FD972001F0AFFD002001F0D8
:1033D000ACFDA62001F0A9FD002001F0A6FDB7205C
:1033E00001F0A3FD002001F0A0FDC22001F09DFD31
:1033F000002001F09AFDC72001F097FD002001F0A8
:1034000094FDD12001F091FD002001F08EFDD5202A
:1034100001F08BFD002001F088FDDD2001F085FD2D
:10342000002001F082FDF32001F07FFD002001F07B
:103430007CFDE42001F085FD012001F076FD0020F7
:1034400001F073FD012001F070FD002001F06DFD21
:10345000022001F06AFD002001F067FD2A2001F042
:1034600064FD002001F061FD3C2001F05EFD0020C4
:1034700001F05BFD4B2001F058FD002001F055FDEF
:103480005D2001F052FD002001F04FFD742001F09D
:103490004CFD002001F049FD842001F046FD002094
:1034A00001F043FD932001F040FD002001F03DFDBF
:1034B000A22001F03AFD002001F037FDB32001F019
:1034C00034FD002001F031FDBE2001F02EFD002072
:1034D00001F02BFDC42001F028FD002001F025FDA6
:1034E000CD2001F022FD002001F01FFDD32001F0CE
:1034F0001CFD002001F019FDDD2001F016FD00206B
:1035000001F013FDF32001F010FD002001F00DFD8E
:10351000E52001F016FD002001F007FD002001F07C
:1035200004FD002001F001FD002001F0FEFC02205E
:1035300001F0FBFC002001F0F8FC292001F0F5FC73
:10354000002001F0F2FC3C2001F0EFFC002001F033
:10355000ECFC4B2001F0E9FC002001F0E6FC5D20D2
:1035600001F0E3FC002001F0E0FC742001F0DDFC40
:10357000002001F0DAFC842001F0D7FC002001F0EB
:10358000D4FC932001F0D1FC002001F0CEFCA2205D
:1035900001F0CBFC002001F0C8FCB32001F0C5FC19
:1035A000002001F0C2FCBE2001F0BFFC002001F0B1
:1035B000BCFCC42001F0B9FC002001F0B6FCCD2019
:1035C00001F0B3FC002001F0B0FCD32001F0ADFC11
:1035D000002001F0AAFCDC2001F0A7FC002001F093
:1035E000A4FCF32001F0A1FC002001F09EFCE620E9
:1035F00001F0A7FC112001F098FC002001F095FCDF
:10360000342001F092FC002001F08FFC562001F0E4
:103610008CFC002001F089FC762001F086FC002063
:1036200001F083FC772001F080FC002001F07DFC9C
:10363000662001F07AFC002001F077FC882001F080
:1036400074FC002001F071FC992001F06EFC002058
:1036500001F06BFCBB2001F068FC002001F065FC70
:10366000992001F062FC002001F05FFC662001F06F
:103670005CFC002001F059FC552001F056FC0020B4
:1036800001F053FC552001F050FC002001F04DFCEE
:10369000452001F04AFC002001F047FC432001F0E6
:1036A00044FC002001F041FC442001F03EFC0020DD
:1036B00001F03BFCE72001F044FC322001F035FC36
:1036C000002001F032FC552001F02FFC002001F019
:1036D0002CFC762001F029FC002001F026FC66205D
:1036E00001F023FC002001F020FC672001F01DFC0C
:1036F000002001F01AFC672001F017FC002001F007
:1037000014FC872001F011FC002001F00EFC992030
:1037100001F00BFC002001F008FCBB2001F005FCCF
:10372000002001F002FC992001F0FFFB002001F0D5
:10373000FCFB772001F0F9FB002001F0F6FB4420B0
:1037400001F0F3FB002001F0F0FB562001F0EDFB4F
:10375000002001F0EAFB232001F0E7FB002001F04C
:10376000E4FB332001F0E1FB002001F0DEFB45200B
:1037700001F0DBFB002001F0D8FBE82001F0E1FBC9
:10378000002001F0D2FB002001F0CFFB992001F0D6
:10379000CCFB002001F0C9FB872001F0C6FB002014
:1037A00001F0C3FB882001F0C0FB002001F0BDFB4D
:1037B000772001F0BAFB002001F0B7FB662001F092
:1037C000B4FB002001F0B1FB882001F0AEFB00202B
:1037D00001F0ABFBAA2001F0A8FB002001F0A5FB43
:1037E000BB2001F0A2FB002001F09FFB992001F01B
:1037F0009CFB002001F099FB662001F096FB002065
:1038000001F093FB552001F090FB002001F08DFBAF
:10381000552001F08AFB002001F087FB442001F0D5
:1038200084FB002001F081FB442001F07EFB00209E
:1038300001F07BFB552001F078FB002001F075FBC7
:10384000E92001F07EFBAA2001F06FFB002001F0CF
:103850006CFB002001F069FB002001F066FB0020FA
:1038600001F06FFBAA2001F060FBCF2001F069FBA3
:10387000002001F05AFB002001F057FB002001F06E
:1038800054FB002001F051FB002001F04EFB002012
:1038900001F04BFB002001F048FB002001F045FB4C
:1038A000002001F042FB002001F03FFB002001F06E
:1038B0003CFB002001F039FB002001F036FB00202A
:1038C00001F033FB002001F030FB002001F02DFB64
:1038D000002001F02AFBF02001F033FB002001F072
:1038E00024FB502001F021FB002001F01EFB0020F2
:1038F00001F01BFB002001F018FBF32001F021FB7D
:10390000002001F012FBF92001F01BFB062001F062
:103910000CFB102001F009FB292001F006FB002020
:1039200001F003FB3A2001F00CFB552001F0FDFAF9
:10393000112001F006FB642002F0ECFE292001F0CA
:1039400000FB352001F0FDFA002001F0EEFA5120D5
:1039500001F0F7FAFF2001F0E8FA532001F0F1FA44
:103960002C2001F0E2FA552001F0EBFA822001F060
:10397000DCFA2C20FDE3A0427ED14FF470435521A8
:10398000184601F0F5FAAA214FF2010001F0F0FA11
:1039900052214FF2020001F0EBFA08214FF203002E
:1039A00001F0E6FA01214FF2040001F0E1FA0D21E5
:1039B0004FF4304001F0DCFA0D214BF2010001F030
:1039C000D7FA0D214BF2020001F0D2FA34214FF464
:1039D000364001F0CDFA34214BF2016001F0C8FA13
:1039E00034214BF2026001F0C3FA0D214FF4314053
:1039F00001F0BEFA0D214BF2011001F0B9FA0D21D0
:103A00004BF2021001F0B4FA34214FF4374001F0C8
:103A1000AFFA34214BF2017001F0AAFA34214BF2D3
:103A2000027001F0A5FA00214FF4324001F0A0FA33
:103A300000214BF2012001F09BFA00214BF2022001
:103A400001F096FA24214FF4384001F091FA242134
:103A50004BF6010001F08CFA24214BF6020001F034
:103A600087FA01214FF43F4001F082FA0F214FF411
:103A7000334001F07DFA00E0FEE30F214BF201300C
:103A800001F076FA0F214BF2023001F071FA342185
:103A90004FF4394001F06CFA34214BF6011001F07B
:103AA00067FA34214BF6021001F062FA08214FF454
:103AB000354001F05DFA08214BF2015001F058FA4F
:103AC00008214BF2025001F053FA03214FF4424017
:103AD00001F04EFA24214FF43A4001F049FA242132
:103AE0004BF6012001F044FA24214BF6022001F0AC
:103AF0003FFA00214FF43C4001F03AFA78214BF6AE
:103B0000014001F035FA00214BF6024001F030FA95
:103B100000214FF43D4001F02BFA78214BF6015083
:103B200001F026FA00214BF6025001F021FA0021A3
:103B30004FF43E4001F01CFA64214BF6016001F0A5
:103B400017FA00214FF4514001F012FA33214DF2DF
:103B5000011001F00DFA00214DF2021001F008FAF7
:103B600034214DF2031001F003FA00214DF204104C
:103B700001F0FEF93A214DF2051001F0F9F90021AA
:103B80004DF2061001F0F4F94A214DF2071001F050
:103B9000EFF900214DF2081001F0EAF95C214DF235
:103BA000091001F0E5F900214DF20A1001F0E0F9E9
:103BB00081214DF20B1001F0DBF900214DF20C10C8
:103BC00001F0D6F9A6214DF20D1001F0D1F9002136
:103BD0004DF20E1001F0CCF9E5214DF20F1001F07D
:103BE000C7F901214DF2101001F0C2F913214DF275
:103BF000111001F0BDF901214DF2121001F0B8F9D8
:103C000054214DF2131001F0B3F901214DF21410BB
:103C100001F0AEF982214DF2151001F0A9F9012150
:103C20004DF2161001F0A4F9CA214DF2171001F05F
:103C30009FF902214DF2181001F09AF900214DF27E
:103C4000191001F095F902214DF21A1001F090F9C6
:103C500001214DF21B1001F08BF902214DF21C10D5
:103C600001F086F934214DF21D1001F081F9022195
:103C70004DF21E1001F07CF967214DF21F1001F08A
:103C800077F902214DF2201001F072F984214DF2F2
:103C9000211001F06DF902214DF2221001F068F9B6
:103CA000A4214DF2231001F063F902214DF22410FA
:103CB00001F05EF9B7214DF2251001F059F902210A
:103CC0004DF2261001F054F9CF214DF2271001F0EA
:103CD0004FF902214DF2281001F04AF9DE214DF290
:103CE000291001F045F902214DF22A1001F040F9A6
:103CF000F2214DF22B1001F03BF902214DF22C1074
:103D000001F036F9FE214DF22D1001F031F90321B9
:103D10004DF22E1001F02CF910214DF22F1001F070
:103D200027F903214DF2301001F022F933214DF231
:103D3000311001F01DF903214DF2321001F018F994
:103D40006D214DF2331001F013F900214FF4524070
:103D500001F00EF933214DF2012001F009F90021A3
:103D60004DF2022001F004F934214DF2032001F05C
:103D7000FFF800214DF2042001F0FAF83A214DF24B
:103D8000052001F0F5F800214DF2062001F0F0F8D1
:103D90004A214DF2072001F0EBF800214DF20820F6
:103DA00001F0E6F85C214DF2092001F0E1F8002174
:103DB0004DF20A2001F0DCF881214DF20B2001F0D8
:103DC000D7F800214DF20C2001F0D2F8A6214DF2D7
:103DD0000D2001F0CDF800214DF20E2001F0C8F8C1
:103DE000E5214DF20F2001F0C3F801214DF2102022
:103DF00001F0BEF813214DF2112001F0B9F80121B4
:103E00004DF2122001F0B4F854214DF2132001F0CC
:103E1000AFF801214DF2142001F0AAF882214DF2F1
:103E2000152001F0A5F801214DF2162001F0A0F8AF
:103E3000CA214DF2172001F09BF802214DF2182003
:103E400001F096F800214DF2192001F091F80221BD
:103E50004DF21A2001F08CF801214DF21B2001F0E7
:103E600087F802214DF21C2001F082F834214DF236
:103E70001D2001F07DF802214DF21E2001F078F89E
:103E800067214DF21F2001F073F802214DF220202E
:103E900001F06EF884214DF2212001F069F8022131
:103EA0004DF2222001F064F8A4214DF2232001F00C
:103EB0005FF802214DF2242001F05AF8B7214DF2AB
:103EC000252001F055F802214DF2262001F050F88E
:103ED000CF214DF2272001F04BF802214DF228208E
:103EE00001F046F8DE214DF2292001F041F80221CF
:103EF0004DF22A2001F03CF8F2214DF22B2001F086
:103F000037F802214DF22C2001F032F8FE214DF25B
:103F10002D2001F02DF803214DF22E2001F028F87C
:103F200010214DF22F2001F023F803214DF2302013
:103F300001F01EF833214DF2312001F019F8032170
:103F40004DF2322001F014F86D214DF2332001F0D2
:103F50000FF800214FF4534001F00AF833214DF2DD
:103F6000013001F005F800214DF2023001F000F8B7
:103F700034214DF2033000F0FBFF00214DF20430FC
:103F800000F0F6FF3A214DF2053000F0F1FF00217C
:103F90004DF2063000F0ECFF4A214DF2073000F000
:103FA000E7FF00214DF2083000F0E2FF5C214DF206
:103FB000093000F0DDFF00214DF20A3000F0D8FF9B
:103FC00081214DF20B3000F0D3FF00214DF20C3077
:103FD00000F0CEFFA6214DF20D3000F0C9FF002108
:103FE0004DF20E3000F0C4FFE5214DF20F3000F02D
:103FF000BFFF01214DF2103000F0BAFF13214DF246
:10400000113000F0B5FF01214DF2123000F0B0FF89
:1040100054214DF2133000F0ABFF01214DF214306A
:1040200000F0A6FF82214DF2153000F0A1FF012122
:104030004DF2163000F09CFFCA214DF2173000F00F
:1040400097FF02214DF2183000F092FF00214DF24F
:10405000193000F08DFF02214DF21A3000F088FF78
:1040600001214DF21B3000F083FF02214DF21C3084
:1040700000F07EFF34214DF21D3000F079FF022167
:104080004DF21E3000F074FF67214DF21F3000F03A
:104090006FFF02214DF2203000F06AFF84214DF2C3
:1040A000213000F065FF02214DF2223000F060FF68
:1040B000A4214DF2233000F05BFF02214DF22430A9
:1040C00000F056FFB7214DF2253000F051FF0221DC
:1040D0004DF2263000F04CFFCF214DF2273000F09A
:1040E00047FF02214DF2283000F042FFDE214DF261
:1040F000293000F03DFF02214DF22A3000F038FF58
:10410000F2214DF22B3000F033FF02214DF22C3022
:1041100000F02EFFFE214DF22D3000F029FF03218B
:104120004DF22E3000F024FF10214DF22F3000F020
:104130001FFF03214DF2303000F01AFF33214DF202
:10414000313000F015FF03214DF2323000F010FF46
:104150006D214DF2333000F00BFF00214FF454403D
:1041600000F006FF33214DF2014000F001FF002175
:1041700000E082E34DF2024000F0FAFE34214DF2FD
:10418000034000F0F5FE00214DF2044000F0F0FE87
:104190003A214DF2054000F0EBFE00214DF20640C1
:1041A00000F0E6FE4A214DF2074000F0E1FE00215A
:1041B0004DF2084000F0DCFE5C214DF2094000F0B9
:1041C000D7FE00214DF20A4000F0D2FE81214DF2CF
:1041D0000B4000F0CDFE00214DF20C4000F0C8FE77
:1041E000A6214DF20D4000F0C3FE00214DF20E401D
:1041F00000F0BEFEE5214DF20F4000F0B9FE0121B6
:104200004DF2104000F0B4FE13214DF2114000F0C9
:10421000AFFE01214DF2124000F0AAFE54214DF2F2
:10422000134000F0A5FE01214DF2144000F0A0FE65
:1042300082214DF2154000F09BFE01214DF2164007
:1042400000F096FECA214DF2174000F091FE0221C7
:104250004DF2184000F08CFE00214DF2194000F0A4
:1042600087FE02214DF21A4000F082FE01214DF23C
:104270001B4000F07DFE00E002E302214DF21C40F5
:1042800000F076FE34214DF21D4000F071FE022157
:104290004DF21E4000F06CFE67214DF21F4000F011
:1042A00067FE02214DF2204000F062FE84214DF2B3
:1042B000214000F05DFE02214DF2224000F058FE48
:1042C000A4214DF2234000F053FE02214DF2244080
:1042D00000F04EFEB7214DF2254000F049FE0221CC
:1042E0004DF2264000F044FECF214DF2274000F071
:1042F0003FFE02214DF2284000F03AFEDE214DF251
:10430000294000F035FE02214DF22A4000F030FE37
:10431000F2214DF22B4000F02BFE02214DF22C40F9
:1043200000F026FEFE214DF22D4000F021FE03217B
:104330004DF22E4000F01CFE10214DF22F4000F0F7
:1043400017FE03214DF2304000F012FE33214DF2F2
:10435000314000F00DFE03214DF2324000F008FE26
:104360006D214DF2334000F003FE00214FF4554023
:1043700000F0FEFD33214DF2015000F0F9FD002167
:104380004DF2025000F0F4FD34214DF2035000F0E4
:10439000EFFD00214DF2045000F0EAFD3A214DF20C
:1043A000055000F0E5FD00214DF2065000F0E0FD63
:1043B0004A214DF2075000F0DBFD00214DF208507C
:1043C00000F0D6FD5C214DF2095000F0D1FD002136
:1043D0004DF20A5000F0CCFD81214DF20B5000F05F
:1043E000C7FD00214DF20C5000F0C2FDA6214DF298
:1043F0000D5000F0BDFD00214DF20E5000F0B8FD53
:10440000E5214DF20F5000F0B3FD01214DF21050A7
:1044100000F0AEFD13214DF2115000F0A9FD012175
:104420004DF2125000F0A4FD54214DF2135000F053
:104430009FFD01214DF2145000F09AFD82214DF2B2
:10444000155000F095FD01214DF2165000F090FD41
:10445000CA214DF2175000F08BFD02214DF2185089
:1044600000F086FD00214DF2195000F081FD02217F
:104470004DF21A5000F07CFD01214DF21B5000F06E
:1044800077FD02214DF21C5000F072FD34214DF2F7
:104490001D5000F06DFD02214DF21E5000F068FD30
:1044A00067214DF21F5000F063FD02214DF22050B4
:1044B00000F05EFD84214DF2215000F059FD0221F3
:1044C0004DF2225000F054FDA4214DF2235000F093
:1044D0004FFD02214DF2245000F04AFDB7214DF26C
:1044E000255000F045FD02214DF2265000F040FD20
:1044F000CF214DF2275000F03BFD02214DF2285014
:1045000000F036FDDE214DF2295000F031FD022190
:104510004DF22A5000F02CFDF2214DF22B5000F00C
:1045200027FD02214DF22C5000F022FDFE214DF21C
:104530002D5000F01DFD03214DF22E5000F018FD0E
:1045400010214DF22F5000F013FD03214DF2305099
:1045500000F00EFD33214DF2315000F009FD032132
:104560004DF2325000F004FD6D214DF2335000F059
:10457000FFFC00214FF4564000F0FAFC33214DF2CD
:10458000016000F0F5FC00214DF2026000F0F0FC4B
:1045900034214DF2036000F0EBFC00214DF2046089
:1045A00000F0E6FC3A214DF2056000F0E1FC00214C
:1045B0004DF2066000F0DCFC4A214DF2076000F08D
:1045C000D7FC00214DF2086000F0D2FC5C214DF2D6
:1045D000096000F0CDFC00214DF20A6000F0C8FC3B
:1045E00081214DF20B6000F0C3FC00214DF20C6004
:1045F00000F0BEFCA6214DF20D6000F0B9FC0021D8
:104600004DF20E6000F0B4FCE5214DF20F6000F0B9
:10461000AFFC01214DF2106000F0AAFC13214DF215
:10462000116000F0A5FC01214DF2126000F0A0FC29
:1046300054214DF2136000F09BFC01214DF21460F7
:1046400000F096FC82214DF2156000F091FC0121F2
:104650004DF2166000F08CFCCA214DF2176000F09C
:1046600087FC02214DF2186000F082FC00214DF21F
:10467000196000F07DFC02214DF21A6000F078FC18
:1046800001214DF21B6000F073FC02214DF21C6011
:1046900000F06EFC34214DF21D6000F069FC022137
:1046A0004DF21E6000F064FC67214DF21F6000F0C7
:1046B0005FFC02214DF2206000F05AFC84214DF293
:1046C000216000F055FC02214DF2226000F050FC08
:1046D000A4214DF2236000F04BFC02214DF2246036
:1046E00000F046FCB7214DF2256000F041FC0221AC
:1046F0004DF2266000F03CFCCF214DF2276000F027
:1047000037FC02214DF2286000F032FCDE214DF230
:10471000296000F02DFC02214DF22A6000F028FCF7
:10472000F2214DF22B6000F023FC02214DF22C60AF
:1047300000F01EFCFE214DF22D6000F019FC03215B
:104740004DF22E6000F014FC10214DF22F6000F0AD
:104750000FFC03214DF2306000F00AFC33214DF2D2
:10476000316000F005FC03214DF2326000F000FCE6
:104770006D214DF2336000F0FBFB5521184600F02F
:10478000F7FBAA214FF2010000F0F2FB52214FF299
:10479000020000F0EDFB08214FF2030000F0E8FBFF
:1047A00000214FF2040000F0E3FBCC214FF4314034
:1047B00000F0DEFB00214BF2011000F0D9FB0521D7
:1047C0004FF4364000F0D4FB70214FF4374000F036
:1047D000CFFB70214BF2017000F0CAFB01214FF4B6
:1047E000384000F0C5FB03214BF6010000F0C0FB90
:1047F00003214BF6020000F0BBFB03214BF6030044
:1048000000F0B6FB02214FF43C4000F0B1FB002168
:104810004BF6014000F0ACFB00214BF6024000F0EB
:10482000A7FBD0214FF4494000F0A2FB02214CF637
:10483000011000F09DFB50214CF6021000F098FB97
:1048400050214CF6031000F093FB50214CF604105D
:1048500000F08EFB00214FF4545000F089FB5521ED
:104860004FF4685000F084FB4FF4885000F069FB6F
:10487000782001F05DFF4FF4245000F062FBB9E0B6
:10488000B842FCD1E22000F05CFB1D2000F04DFBA3
:10489000022000F04AFB042000F047FB642001F0F6
:1048A00047FFE02000F04DFB012000F03EFB0A2016
:1048B00001F030FFE02000F044FB032000F035FB66
:1048C0000C2001F027FF012000F03BFB0A2001F043
:1048D00021FFE62000F035FB2F2000F026FBFF2013
:1048E00000F023FBFF2000F020FBB02000F029FBAC
:1048F000202000F01AFB002000F017FB032000F03E
:1049000014FB40F21F3000F010FB012000F00DFB03
:1049100040F2DF1000F009FB002000F006FBB4209D
:1049200000F00FFB042000F000FB40F21F4000F0FD
:10493000FCFA002000F0F9FA2E2000F0F6FA002030
:1049400000F0F3FA002000F0F0FA002000F0EDFA99
:10495000002000F0EAFAB62000F0F3FA022000F09E
:10496000E4FA4FF4037000F0E0FA002000F0DDFA02
:10497000172000F0DAFA152000F0D7FA002000F036
:10498000D4FA002000F0D1FAF02000F0DAFA032087
:1049900000F0CBFA292000F0D4FAD02000F0D1FAB0
:1049A000002000F0C2FABE2000F0CBFA052000F093
:1049B000BCFAFE2000F0B9FA012000F0B6FA00209F
:1049C00000F0B3FA002000F0B0FA002000F0ADFAD9
:1049D000B82000F0B6FA032000F0A7FA012000F09A
:1049E000A4FABA2000F0ADFA012000F09EFA64208B
:1049F00000F042F8BAF80400404505D0B04203D0B8
:104A0000A04201D0B84217D1D5F8040120F00F0020
:104A1000C5F80401D5F8040120F47060C5F804015C
:104A2000D5F8040140F00400C5F80401D5F80401EC
:104A300040F48060C5F804010020FDF789FC0449BA
:104A4000C1F8BC925846FDF769FC15B0BDE8F08F7F
:104A5000008040420346012000E05843491EC9B28D
:104A6000FBD2704708B54FF0D840B0F88000ADF8E1
:104A70000000BDF8000008BD10B50246BE2000F0E1
:104A800060FA052000F051FA104603F092F89FED0D
:104A90000C1B53EC112B03F0DBF803F05DF880B234
:104AA00000F043FA012000F040FAFF2000F03DFA48
:104AB000002000F03AFABDE81040002000F035BABE
:104AC0006666666666660440F0B56C4D002329464E
:104AD000AA79898841F66314012A01D01AB11BE032
:104AE000A14202D118E0A14216D1082814D2DFE871
:104AF00000F00406080A0C0E101206200CE0072035
:104B00000AE0042008E0052006E0012004E000207F
:104B100002E0032000E00220A1F5134745F2103225
:104B200045F21056413F05D0914203D0B14201D029
:104B3000A14277D1082812D2DFE800F0110406085C
:104B40000A0C0E1080230AE0402308E0C02306E090
:104B5000202304E0602302E0A02300E0E023B14230
:104B600002D14FF4585000E03620914205D0B142B6
:104B700003D0A14201D043F00803194600F0F8F930
:104B8000AA88A2420AD098062888698802D5884255
:104B900002D303E0884201D9298068806889B24243
:104BA00041D100F0CEF9002000F0BFF96889401C27
:104BB00080B200F0C6F9002000F0B7F96889801CC7
:104BC00080B200F0BEF92888401EC0F30F2000F02C
:104BD000ACF96889C01C80B200F0B3F92878401E97
:104BE000C0B200F0A2F9A88900F0ABF9002000F0F3
:104BF0009CF9A889401C80B200F0A3F9002000F0C5
:104C000094F9A889801C80B200F09BF96888401E46
:104C1000C0F30F2000F089F9A889C01C80B200F011
:104C200090F922E028E000F08CF9002000F07DF9F6
:104C3000002000F07AF92888401EC0F30F2000F011
:104C400074F92878401EC0B200F06FF9A88900F00E
:104C500078F9002000F069F9002000F066F9688812
:104C6000401EC0F30F2000F060F9A878BDE8F040C6
:104C7000401EC0B200F059B9F0BD0000E0020020B3
:104C8000F0B53F4D0C460246060AA9882846270A79
:104C90004089A1F51343413B28D0A1F5A643103B21
:104CA00024D0A1F5C853633B2FD0A1F5AA43103BF4
:104CB00064D100F046F9304600F037F96889401CAD
:104CC00080B200F03EF9D0B200F02FF9A88900F0D0
:104CD00038F9384600F029F9A889401C80B200F064
:104CE00030F9E0B2BDE8F04000F01FB900F029F95A
:104CF000304600F01AF9D0B200F017F9A88900F098
:104D000020F9384600F011F9EBE7A97929B300F052
:104D100018F9304600F009F9D0B200F006F92888F9
:104D2000401EC0F30F2000F000F92878401EC0B2EA
:104D300000F0FBF8A88900F004F9384600F0F5F817
:104D4000E0B200F0F2F86888401EC0F30F2000F0D7
:104D5000ECF8A878401EC0B2C4E72988891A491E19
:104D60008AB200F0EEF8002000F0DFF8002000F03A
:104D7000DCF8100A00F0D9F8D0B2D9E7F0BD000095
:104D8000E00200202DE9F84F82461F460E468B4672
:104D9000580700D0012000EBD700790810FB01F084
:104DA000203AC0B202F0FF090025009047E00C2F26
:104DB00010D0102F12D0182F14D0202F42D12249FA
:104DC00001EBC9104FF00008445D200610D51F48C4
:104DD000026811E009EB49001D4906E01D4901EB9D
:104DE0000910EFE71C4909EBC90001EB8000E9E776
:104DF0000A9828B91548426831465046FDF7C6FB67
:104E00006006040E1548761CB6B24088B04219D927
:104E1000A6EB0B00B84209D10AF101001FFA80FA93
:104E20000E485E46018851450CD906E008F10100A4
:104E300000F0FF08B8F1080FC7D36D1CEDB2009861
:104E40008542B4D3BDE8F88F0A9B00081400002007
:104E50004A830008BE870008AE8D0008E0020020EB
:104E60002DE9FF4F81B00027DDF838B01D4692468E
:104E700080463C46B9464FEA5B0627E0281B401EA9
:104E8000C1B20A20FFF7E6FDBAFBF0F00A21B0FB41
:104E9000F1F201FB120027B9691E8C4201DA48B118
:104EA00001273030C2B206FB048080B25B46CDF8E9
:104EB000009006E006FB048080B25B462022CDF81D
:104EC00000900299FFF75EFF641CE4B2AC42D5D3B8
:104ED00005B0BDE8F08F2DE9F84F044600F0FF085B
:104EE00010190D46DDE90A761FFA80FA58191FFAE3
:104EF00080F94FF0000B11E0544502D3E819444605
:104F000085B24D450FD23B4629462046CDF800B02C
:104F1000FFF738FF04EB570084B2761C3278A2F119
:104F200020005E28E8D9BDE8F88F01B5BDF8000083
:104F3000ADF80000BDF800004FF0D841A1F88000A6
:104F400008BD01B5BDF80000ADF80000BDF80000D7
:104F50004FF0D841A1F87E0008BD000003484FF093
:104F6000D8410089A1F87E0070470000E0020020CF
:104F70004FF0D84222F87E0F51807047114810B58B
:104F8000016886B041F02001016000680E4C00F01D
:104F9000200005904FF4C060009001200190029025
:104FA0000320039069462046FCF7BCF90122510218
:104FB0002046FCF79CFA012291022046FCF797FA62
:104FC00006B010BD30380240001402401CB54FF648
:104FD000FF70FDF7A3F90A4C1F200AA120601020E2
:104FE000CDE9000108481023C822008800211838A4
:104FF00080B2FFF770FF4FF4784020601CBD0000C6
:105000001400002052535400E0020020FEE77047D5
:105010000907090E002806DA00F00F0000F1E02071
:1050200080F8141D704700F1E02080F800147047EC
:1050300070B588B0244800248DF81440016841F010
:1050400002010160016801F002010691016841F06E
:10505000040101600068012500F0040006900220B0
:105060008DE831000320039069461848FCF75AF98F
:105070006803CDE9000569461548FCF753F9FBF7CD
:1050800063FC144EC6F8B442642006F52D7601F098
:1050900041FB3560642001F03DFB012000F00CF97C
:1050A000012205A94FF4506000F01CF89DF814107F
:1050B00009A0FBF70BF99DF81400802802D001200D
:1050C00008B070BD0020FBE7303802400004024009
:1050D00000080240000041424354502049443A2510
:1050E000780D0A002DE9F04115460F460446FBF7FE
:1050F000F3FCB220FBF7BCFCFBF736FD200AFBF704
:10510000B7FCFBF731FDE0B2FBF7B2FCFBF72CFD7F
:10511000FBF7E2FCB320FBF7ABFCFBF725FD00241B
:105120006E1E09E0B44201D0012000E00020FBF730
:1051300067FC3855641CE4B2AC42F3D3BDE8F041DF
:10514000FBF7F0BC2DE9F143524F00242DED048B09
:105150004FF00A0882B038784F4E401CC0B2B0FB06
:10516000F8F208FB12012546387009B10A2873D2FB
:10517000012206A90020FFF7B5FF9DF81800C1061F
:105180006ED000F01F0040F0C00086F820004FF005
:1051900001099FED428B9FED439B96F8201009FA81
:1051A00004F001424BD041480422694630F8140013
:1051B000FFF798FF96F830009DF80210C0079DF8A1
:1051C000030000EB012020D002F0F3FC53EC182B7D
:1051D00002F03EFD02F0C0FC06EB4405E8829DF8BB
:1051E00001009DF8001000EB012002F0E2FC53ECFE
:1051F000192B02F02DFD9FED2E1B53EC112B02F00D
:105200005BFE02F0A9FCA88119E002F0D2FC53EC8D
:10521000182B02F01DFD02F09FFC06EB4405A8814F
:105220009DF801009DF8001000EB012002F0C1FC88
:1052300053EC192B02F00CFD02F08EFCE882641C8A
:10524000E4B2052CA9D30125B28900211AB9F08A4C
:1052500008B98DF8181039709DF81800C0060ED1E5
:1052600096F82000010602D520F0800005E04FF6F8
:10527000FF71B181F18200F0E00086F820003878FB
:10528000F02801D987F8008002B02846BDEC048BD5
:10529000BDE8F8831F000020240000207B14AE47E7
:1052A000E17AD43FD881734694F6D23F56CB0008BA
:1052B000000000000000894008B500218DF80010B2
:1052C00010B180208DF80000012269464FF4506033
:1052D00000F001F808BD2DE9F04115460E460446E0
:1052E0000027FBF7F9FBB220FBF7C2FBFBF73CFC06
:1052F000200AFBF7BDFBFBF737FCE0B2FBF7B8FB7E
:10530000FBF732FC002408E0305DFBF7B1FBFBF754
:105310002BFC070003D1641CE4B2AC42F4D3FBF7CE
:1053200001FC3846BDE8F0817047704770B5214CEC
:1053300092B00025266846F080562660246804F066
:10534000805411941C4C266846F4804626602468DC
:105350000DF1240C04F480441194012400942404DD
:105360000194022406948CE80D006605CDE90761DE
:105370006846FCF75FFA00B1FEE70CA90F2081E850
:1053800031004FF4A0500F904FF480501090052141
:105390000CA8FCF72DF900B1FEE7FCF7ADF841F2DF
:1053A0000101884204D10548016841F4807101601F
:1053B00012B070BD4038024000700040003C024016
:1053C000FCF7A6B81048016841F4700101600F486D
:1053D000016841F0010101600C4A002108321160AE
:1053E00002680B4B1A400260031D0A4A1A600268E9
:1053F00022F48022026005480C3001600249580600
:10540000803908607047000088ED00E000380240F5
:10541000FFFFF6FE1030002410B50A4C2068C0686B
:10542000C043C00709D108480069804721680020AF
:10543000486221686420C862E06021686FF0010062
:10544000086110BDF002002094000020F0B5026851
:10545000234D244E244FDFF894C0254B4FF0804E4F
:10546000A84209D0704507D0B04205D0B84203D059
:10547000604501D0984203D122F070044A6822436B
:10548000A8421BD0704519D0B04217D0B84215D0F1
:10549000604513D0984211D0164CA0420ED0164C45
:1054A000A0420BD0154CA04208D0154CA04205D00C
:1054B000144CA04202D0144CA04203D122F44074F8
:1054C000CA68224302608A68C2620A688262A8428D
:1054D00001D0984201D10969016301214161F0BD08
:1054E000000001400004004000080040000C0040A3
:1054F00000040140004001400044014000480140D8
:1055000000180040001C0040002000402DE9FF4F23
:1055100083B00E46DDE910A94E4907464FF47840A6
:10552000DDF8508008604CA01024CDE900404B4DC0
:105530009346A0216B882A882820FFF7CCFC48A03E
:10554000CDE900406B882A88A0217820FFF7C3FCB2
:1055500044A0CDE900406B882A88B4212820FFF7B9
:10556000BAFC41A0CDE900406B882A88B42178209C
:10557000FFF7B1FC3DA0CDE900406B882A88C82127
:105580002820FFF7A8FC3AA0CDE900406B882A88C4
:10559000C8217820FFF79FFC36A0CDE900406B883A
:1055A0002A88DC212820FFF796FC33A0CDE90040B3
:1055B0006B882A88DC217820FFF78DFC2FA0CDE9AD
:1055C00000406B882A88F0212820FFF784FC042300
:1055D0003A46A02140200094FFF742FC04233246C3
:1055E000A02190200094FFF73BFC04235A46B421ED
:1055F00040200094FFF734FC04230094B421902051
:10560000069AFFF72DFC04235246C821402000943F
:10561000FFF726FC04234A46C82190200094FFF798
:105620001FFC04230094DC214020129AFFF718FC91
:1056300004230094DC219020139AFFF711FC03232C
:105640004246F02160200094FFF70AFC07B0BDE855
:10565000F08F00001400002078313A00E0020020B2
:1056600079313A0078323A0079323A0078333A00A8
:1056700079333A0078343A0079343A00666163202D
:1056800069733A002DE9F04F00242DED0C8B89B0A1
:1056900025461F20FE4E4FF6FF773060FD4807601D
:1056A0003846FCF73BFE4FF478483846C6F8008091
:1056B000FCF734FEF8480027376001684FF0100A05
:1056C000CDE900A128216423A0220846FFF703FCAE
:1056D00014214246084600F0A3FAF04880F82070F2
:1056E0009FEDEF0A80ED090A9FEDEECB9FEDEFDB1A
:1056F0009FEDF0BBF14E80464FF0900BA0F10409F6
:10570000D8F8041047460120884797F82000012167
:10571000B1EB901F46D120F0400087F8200005A88B
:10572000BA8920F8242000EB8400641C0025F98A43
:10573000E4B2B8464180012C06D0022C11D0032CD3
:105740001ED0042C2ED13CE014214FF6FF720846E7
:1057500000F066FA30884FF47842143880B2142191
:105760001EE030884FF6FF72143880B2142100F02A
:1057700057FA70884FF47842143881B214200FE041
:1057800070884FF6FF72143881B2142000F048FA86
:1057900070884FF47842143881B23088143880B25F
:1057A00000F03EFA0A2000F0B5FF6D1CADB2B5F571
:1057B0007A7FA5D900F06CFA09B0BDEC0C8BBDE87E
:1057C000F08FBDF81400BDF81810411A00D54942F9
:1057D000BDF81600BDF81A20801A00D54042494392
:1057E0004043084402F0E5F941EC100B00F0D5FE0F
:1057F00051EC100B02F0B0F984B2BDF81C00BDF8FA
:105800002010411A00D54942BDF81E00BDF82220E3
:10581000801A00D5404249434043084402F0C9F988
:1058200041EC100B00F0B9FE51EC100B02F094F9B2
:1058300000EE104A87B2F8EE400A00EE107AB8EE99
:10584000401A80EE810A10EE100A02F0F7FCB0EE6A
:105850004C9AF0EE6C9A41EC180B53EC192B02F0B9
:10586000BBF95BD3B0EE4DAAF0EE6DAA53EC1A2B48
:1058700051EC180B02F0EAFA50D3ECB3E7B3BDF8E1
:105880001400BDF81C10411A00D54942BDF816009D
:10589000BDF81E20801A00D54042494340430844C9
:1058A00002F087F941EC100B00F077FE51EC100B81
:1058B00002F052F984B2BDF81800BDF82010411A68
:1058C00000D54942BDF81A00BDF82220801A00D543
:1058D000404249434043084402F06BF941EC100B4D
:1058E00000F05BFE51EC100B02F036F900EE104AAE
:1058F00080B2F8EE400A00E010E000EE100AB8EEC8
:10590000401A80EE810A10EE100A02F097FC41EC7A
:10591000180B53EC192B02F05FF931D27088002478
:10592000143881B230884FF6FF72143880B200F01C
:1059300077F914214FF47842084600F071F953ECDE
:105940001B2B51EC180B02F083F902F005F980B221
:10595000BDF82220BDF82030BDF81E10CDE903208F
:10596000CDE90113BDF81C000090BDF81A30BDF858
:105970001820BDF81610BDF81400FFF7C7FDBFE6EC
:1059800053EC1A2B51EC180B02F060FAC6D3BDF899
:105990001800BDF81C10411A00D54942BDF81A0084
:1059A000BDF81E20801A00D54042494340430844B8
:1059B00002F0FFF841EC100B00F0EFFD51EC100B82
:1059C00002F0CAF884B2BDF81400BDF82010411AE4
:1059D00000D54942BDF81600BDF82220801A00D536
:1059E000404249434043084402F0E3F841EC100BC5
:1059F00000F0D3FD51EC100B02F0AEF800EE104AAF
:105A000080B2F8EE400A00EE100AB8EE401A80EEBE
:105A1000810A10EE100A02F011FC41EC180B53EC55
:105A2000192B02F0D9F8B1D353EC1A2B51EC180B07
:105A300002F00CFAAAD3BDF81820BDF81410F6EE47
:105A4000001A501A00EE100A30881144B8EEC01A3D
:105A5000A0F1280300EE103A4746B8EEC00AC0EEA7
:105A6000010A00EE101AB8EE401A00EE100AB8EE65
:105A7000400AC8ED090A00EEC10A20EE210ABDEE77
:105A8000C00A10EE101AA8F82C10BDF81E3017E04E
:105A9000140000201800002060CB00082400002023
:105AA00000000000666666666666EE3FCDCCCCCC34
:105AB000CCCCF03F0000000000005940E002002084
:105AC000BDF81620FDEEE00A991A00EE101A718852
:105AD0001A44B8EEC01AA1F1280400EE104AB8EE3C
:105AE000C02A82EE010A01EE102AB8EE412A01EE28
:105AF000101AB8EE411A87ED0A0A00EE421A21EE9A
:105B0000211ABDEEC11A11EE102AFA8510EE902A64
:105B1000002A00DA5242022A08DCBDEEC00A10EE6A
:105B2000102A002A00DA5242022A2CDD14391438D5
:105B3000002489B280B24FF6FF7200F071F8142190
:105B40004FF47842084600F06BF81CA1CDE900A1A3
:105B5000738832881A212820FFF7BDF997F83000A2
:105B600048B1002087F8300038B189F800B0D02162
:105B700089F80110C4E50120F4E7D02189F800106C
:105B800089F801B0BCE512481F214FF6FF7401608F
:105B90002046FCF7C3FB0FA1CDE900A17388328832
:105BA0006E212320FFF797F94FF47A7000F0B2FDD1
:105BB00000F00EFA2046FCF7B1FBFDE55450204EF4
:105BC00065656420726561646A7573742100000004
:105BD00014000020546F7563682053637265656E0E
:105BE0002041646A757374204F4B210070B50646DE
:105BF0000A480C4602603046FCF762FC751CA8B2ED
:105C00002146FCF75DFC641CA1B23046FCF758FC51
:105C1000A1B2A8B2BDE87040FCF752BC140000204D
:105C20002DE9F041044619480D460B46026004F187
:105C30000D0082B2193880B2FCF7F6FB05F10D00B9
:105C400083B2193881B222461046FCF7EDFB6E1C78
:105C500004F10108B1B21FFA88F0FCF731FCB1B2CF
:105C6000661EB0B2FCF72CFC6F1EB9B21FFA88F0AA
:105C7000FCF726FCB9B2B0B2FCF722FC294620465C
:105C8000BDE8F0410622FCF729BC0000140000200A
:105C900010B535202DED028BFAF7D9FD0A2803D077
:105CA0000020BDEC028B10BD04212820FAF7BAFDBC
:105CB00000EE100A9FED178A174CB8EEC00A0421B7
:105CC0002C20C0EE080AC4ED090AFAF7ABFD00EE7D
:105CD000100A02213020B8EEC00AC0EE080AC4ED56
:105CE0000A0AFAF79FFDA08502213220FAF79AFDF1
:105CF000E0853420FAF7ABFD9023211F84F83000B3
:105D0000D02210B10B704A7001E00A704B70012074
:105D1000C7E7000020BCBE4C2400002030B53F4D3A
:105D20003F4C87B0A888A0F5AA41103948D0A0F50B
:105D3000C851633957D03B480021026842F0020243
:105D40000260026802F002020592026842F0040258
:105D50000260026802F004020592026842F020022A
:105D600002600068012400F02000059006208DE804
:105D7000130003202C4D039069462846FBF7D2FA06
:105D80000094694628460194FBF7CCFA6003009022
:105D900069462648FBF7C6FAE002009069462448A7
:105DA000FBF7C0FA1E491631A1F10A0000F0BEF857
:105DB000FAF736FDFFF76CFF20B3002007B030BDC7
:105DC000FBF7C8F868B1FFF733F91A48606014F8B8
:105DD000300FA97940F0800001F0010108432070E4
:105DE000EBE71548F2E7FAF757FF1448606094F8BC
:105DF0003000A97940F0800001F00101084384F8E7
:105E00003000DAE74FF6FF70FCF788FAFFF73AFC4C
:105E100000F0DEF8FFF73CFF0120CFE7E0020020B2
:105E200024000020303802400004024000080240F4
:105E30000014024045510008E5100008D90D000883
:105E40002DE9F04700251E4F2C462E46C7F88052FC
:105E50001C49C1F8AC52DFF870A0CAF8B45207F57B
:105E6000207700F051F9062000F062FC3E6001202E
:105E700000F05EFC4FF00108C7F80080404600F0DB
:105E800057FC3E60B14646464FF6FF78A7F52077AF
:105E900008EA4404C7F88092012000F049FCC7F8E2
:105EA0008062D7F8080208B1641CA4B26D1CEDB280
:105EB000102DEDD32009CAF8B462BDE8F0870000C8
:105EC000008040420080424200004142FEB506464A
:105ED00000246D463046FFF7B3FF25F81400641C1C
:105EE000A4B2052CF6D300214C1CA0B20BE035F86F
:105EF000113035F81020934203D925F8112025F8E8
:105F00001030401C80B20528F1D3A1B20429EBD394
:105F10000021012035F81020401C114480B289B2C4
:105F20000428F7D30320B1FBF0F0FEBD2DE9F041CA
:105F3000074F06460D463878FFF7C8FF04467878C5
:105F4000FFF7C4FF348028800120BDE8F081000005
:105F50002000002070B586B00C460546694604A8AE
:105F6000FFF7E4FF00282FD001A903A8FFF7DEFF09
:105F7000002829D0BDF80C30BDF81020934203D87A
:105F800003F13200824205D39A421FD802F1320057
:105F900083421BD2BDF80410BDF80000814203D833
:105FA00001F13206B04204D388420FD83230814228
:105FB0000CD2D01840082880BDF80000BDF80410AD
:105FC000084440082080012006B070BD0020FBE797
:105FD00010B51B4C04222DED028B282094ED090AEC
:105FE0009FED188A20EE080ABDEEC00A10EE101AC6
:105FF000FAF74EFC94ED0A0A04222C2020EE080A3F
:10600000BDEEC00A10EE101AFAF742FCB4F92C10DB
:1060100002223020FAF73CFCB4F92E100222322082
:10602000FAF736FC94F830103420FAF746FCBDEC51
:10603000028B0A21BDE810403520FAF73EBC000073
:106040002400002020BCBE4C2D4910B5D1F804120C
:106050002C4C41B194F82000010645D520F0800079
:1060600084F8200047E00200264800F1160100F104
:106070000C0002D0FFF76EFF2AE0FFF76BFF38B38A
:10608000B4F92C0094ED091A00EE100AA08900EE74
:10609000900AB8EEC00AF8EE600A01EE200ABCEEE3
:1060A000C00A10EE100AA081B4F92E0094ED0A1A6D
:1060B00000EE100AE08A00EE900AB8EEC00AF8EE90
:1060C000600A01EE200ABCEEC00A10EE100AE0825F
:1060D00094F8200000060ED4C02084F82000A08987
:1060E000A082E08AE08306E00020A082E0834FF6F1
:1060F000FF70A081E08294F8200000F0800010BDC5
:1061000000804042240000202DE9F04700240E4E7C
:106110000E4F0546A0464FF00109280601D5484616
:1061200000E04046C6F8AC026806050EC7F880825B
:10613000012000F0FDFAC7F88092641CE4B2082C3C
:10614000EBD3BDE8F087000000804242008040426F
:10615000F8B5064610480D460024016841F00401D8
:1061600001600068032200F00400009011461E2028
:10617000FBF70CFA1E20FBF7FEF9094A07481060EE
:10618000C2E90154C2E903641046FBF785FDBDE88E
:10619000F8400348FBF79CBD40380240000800402F
:1061A000F002002010B5806B0021C185C184FBF78F
:1061B0009BFD10BD0168CA6822F49072CA60016834
:1061C0004A6922F001024A61202180F83A107047A2
:1061D00010B590F83A10222901D0022010BD816834
:1061E000B1F5805F11D00169002901681FD04968AD
:1061F00001F07F03816A4A1C82620B70C18D491EC7
:106200000904090CC18518D026E00269816A002AB8
:106210000268526805D0D2B20A80816A491C816244
:10622000ECE7C2F308020A80816A891CF7E74A6832
:10623000816A4B1C83620A70E0E70168CA6822F435
:106240009072CA6001684A6922F001024A61202105
:1062500080F83A10FBF76AFE002010BD2DE9F041EE
:1062600004460068016921F44052E168114301616C
:106270002068C16849F20C6291432369A268E5690C
:106280001A4363692B431A430A43C2602068416979
:10629000A26921F440710A434261E0696425B0F5C6
:1062A000004F974A974920684FF032083FD0884204
:1062B00001D090427CD1FBF76DFA00EBC00101EBFD
:1062C000001061688900B0FBF1F6FBF763FA00EBA0
:1062D000C00101EB001061688900B0FBF1F0B0FB78
:1062E000F5F06FF01801484306EB800108EB011050
:1062F000B0FBF5F000F0F006FBF74CFA00EBC00144
:1063000001EB001061688900B0FBF1F0B0FBF5F023
:1063100006EB0016FBF73EFA00EBC00101EB0010A4
:1063200061688900B0FBF1F7FBF734FAD2E08842EC
:1063300001D090423DD1FBF72DFA00EBC00101EBFB
:10634000001061684900B0FBF1F0B0FBF5F0060108
:10635000FBF720FA00EBC00101EB00106168490077
:10636000B0FBF1F7FBF716FA00EBC00101EB0010F0
:1063700061684900B0FBF1F0B0FBF5F06FF0180177
:10638000484307EB800108EBC100B0FBF5F000F0DB
:10639000F80006EB4006FBF7FDF900EBC00101EB4E
:1063A000001061684900B0FBF1F7FBF7F3F93CE03E
:1063B00055E0FBF7D7F900EBC00101EB0010616875
:1063C0004900B0FBF1F0B0FBF5F00601FBF7CAF9AC
:1063D00000EBC00101EB001061684900B0FBF1F770
:1063E000FBF7C0F900EBC00101EB00106168490048
:1063F000B0FBF1F0B0FBF5F06FF01801484307EB8C
:10640000800108EBC100B0FBF5F000F0F80006EBEE
:106410004006FBF7A7F900EBC00101EB0010616833
:106420004900B0FBF1F7FBF79DF900EBC00101EB70
:10643000001061684900B0FBF1F0B0FBF5F06FF0BF
:106440001801484307EB800108EBC100B0FBF5F0F1
:1064500000F00700216830448860BDE8F081FBF758
:1064600081F900EBC00101EB001061688900B0FB0D
:10647000F1F6FBF777F900EBC00101EB0010616862
:106480008900B0FBF1F0B0FBF5F06FF01801484364
:1064900006EB800108EB0110B0FBF5F000F0F00610
:1064A000FBF760F900EBC00101EB001061688900A7
:1064B000B0FBF1F0B0FBF5F006EB0016FBF752F97C
:1064C00000EBC00101EB001061688900B0FBF1F73F
:1064D000FBF748F900EBC00101EB0010616889008F
:1064E000B0FBF1F0B0FBF5F06FF01801484307EB9B
:1064F000800108EB0110B0FBF5F000F00F00A9E7F8
:10650000001401400010014090F83910212901D0F9
:10651000022070478168B1F5805F016A0BD04A1C88
:106520000262026809785160C18C491E0904090C95
:10653000C1840ED017E009880268C1F308015160D8
:1065400001690029016A02D0491C0162ECE7891C3B
:10655000FBE70168CA6822F08002CA600068C1686F
:1065600041F04001C16000207047000010B50848AC
:10657000FBF7C0FB0648FBF7B8FB2028FAD1012245
:1065800004490348FBF7AEFC0028F8D110BD000019
:10659000500200200C000020FEE700B52DED048B1A
:1065A000B0EE409AF0EE609A83B051EC190B01F016
:1065B0008FFC41EC180B18EE100A18EE901A8DEDB6
:1065C000008B002818BF0120084320F00040C0F1D4
:1065D0007F6000F1E040C00F14D019EE101A19EEE0
:1065E000900A8DED009B002918BF0121084320F07F
:1065F0000040C0F17F6000F1E040C00F04BF012007
:10660000FAF735F8B0EE480A03B0F0EE680ABDECD0
:10661000048B00BD30380A2801D2012070470020C9
:106620007047704788B0DFF8C890DFF8C8B0002620
:1066300002AF4FF6FF7ADBF804105D460020884772
:106640000024AB4601219BF82020A1400A4232D011
:106650000BEB4405B9F80010AA898A422DD2EB8AC7
:10666000B9F80200834228D237F82410514504D1EA
:1066700007EB840027F8242043801F49022007EB02
:10668000840831F81410CDE90001B8F8021037F889
:10669000240000F0D7F8A98927F82410EA8AA8F87E
:1066A0000220B9F800001838814206DD142A04D20D
:1066B000FEF78CFC01E027F824A0641CE4B2052C52
:1066C000C0D3052000F026F8761CF6B21420B6FBE5
:1066D000F0F100FB11600028ADD10849D1F8A40207
:1066E00018B10020C1F8A402A5E70120FAE70000D4
:1066F000E00200202400002028830008008042429D
:1067000010B504460420FBF7A7FA0148046010BD49
:106710000800002070B5054600244FF47A7603E0A7
:10672000304600F005F8641CAC42F9D370BD00009F
:1067300070B54FF0E02500216C69094AAB69126819
:106740005043AA699A42FCD002D2A3EB020302E0B2
:10675000A4EB02063344194413468142F1D370BDC1
:106760000800002003490A685206FCD5C2B24A60FC
:10677000704700000010014008B5002A06D002440E
:10678000521E009392B20B46FBF772FF08BD2DE933
:10679000FF5F80460E4640F2C32050434FF47A71AB
:1067A000B0FBF1F702FB02F000EB520B14464FF680
:1067B000FF7000EA4202A8EB040080B231467F1C61
:1067C000039BFFF7D9FF012538E005FB05F004FB2B
:1067D000040159451BD9BC4218D96800A0F102092F
:1067E000301981B2A8EB050000F1010A1FFA89F205
:1067F0001FFA8AF0039BFFF7BFFF301B81B21FFA1D
:1068000089F21FFA8AF0039BFFF7B6FF641E4FF66A
:10681000FF7000EA4402701981B2A8EB040A9146A5
:106820001FFA8AF0039BFFF7A7FF701B81B24A464D
:106830001FFA8AF0039BFFF79FFF6D1CBD42C4D96E
:10684000BDE8FF9F2DE9FE4F00260C9C3546A04277
:106850004CD3A2424AD3A14248D3A34246D3A2EB8F
:10686000000882465F1A701E8946B8F1000F02DDEB
:106870004FF0010102E003D14FF00001019102E06D
:10688000C8F100080190002F02DD4FF0010002E086
:1068900003D14FF00000009002E0C7F10007009024
:1068A0004046B84501DD044600E03C46601C4FF020
:1068B000000B029017E0DDE90C231FFA89F11FFAA3
:1068C0008AF0FFF764FF46443D44A64202DD019989
:1068D000361B8A44A54202DD00992D1B89440BF129
:1068E00001001FFA80FB02998B45E4DDBDE8FE8FB5
:1068F0001CB5FAF715FE0723022208214FF4A870F1
:10690000FEF714FDA820FFF7FBFE4FF4E13000F086
:10691000D3F82848416854208847FEF72FFBFBF73F
:1069200067FCFBF7C9FE244D2868804723494FF4D4
:1069300078401024086022A0CDE900402346C822F8
:1069400032211E20FEF7C7FA22A0CDE90040102315
:10695000C82246211E20FEF7BEFA21A0CDE9004044
:106960001023C8225A211E20FEF7B5FA20A0CDE937
:1069700000401023C8226E211E20FEF7ACFA95F8C5
:106980003000FF2808D01DA0CDE900401023C82208
:1069900082211E20FEF79FFA40F2DC50FFF7BAFE7C
:1069A000FEF714FB95F83000000601D5FFF73AFE1C
:1069B00000F032F894000020240000201400002091
:1069C0004578706C6F7265722053544D3332463483
:1069D00000000000544F55434820544553540000D4
:1069E00041544F4D40414C49454E54454B000000E9
:1069F000323031372F342F3134000000507265733C
:106A000073204B45593020746F2041646A7573744C
:106A10000000000000687047DFF89080244D254F8B
:106A200000244FF014090020FBF712FC06466968A9
:106A30000020884795F82000000616D5A889B8F8E8
:106A40000020904214D2E98AB8F8023099420FD25D
:106A5000183A904204DD102902D2FEF7B7FA07E097
:106A60004FF47842FFF7C2F802E00A20FFF752FE27
:106A7000012E09D14FF6FF70FBF750FCFEF702FE26
:106A8000FFF7A6FAFEF7A2FA641CE4B2B4FBF9F130
:106A900009FB11400028C6D1D7F8A40218B1002084
:106AA000C7F8A402BFE70120FAE70000E0020020D7
:106AB00024000020008042420B4910B5094AC1E978
:106AC000002000208860C860086188610C2048614F
:106AD0000846FBF797F9BDE8104001220349024838
:106AE000FBF700BA00100140500200200C0000200B
:106AF00070B594B0064613AB11AA694600F0DCF9F4
:106B0000002824D18DF840001D4C042514E0206895
:106B100005EBC10113AB405812AA08A900F0CCF94B
:106B2000002814D1694608A800F001FC88B19DF83E
:106B30004000401C8DF84000207D9DF840108842A8
:106B4000E5D8207D9DF8401088420ED1042014B075
:106B500070BD9DF848009DF84410884201D902207C
:106B6000F5E79DF84000A075EBE710A9304600F06E
:106B700057FA0028EBD19DF8400060750020E6E749
:106B8000940000202DE9F0417E4E9AB0B57D307D15
:106B9000A8427CD90421306801EBC50119AB4058EB
:106BA00018AA10A900F088F910A977A0F9F78EFBB0
:106BB00000240DF1180832E0308B0121A140084279
:106BC00017D0222172A0F9F781FB204600F090FA3D
:106BD000811970A02431F9F779FB22216CA0F9F713
:106BE00075FB204600F084FA3044243048F8240035
:106BF0000BE0204600F07CFA3044416A48F824104B
:106C0000F07D00B364A0F9F761FB9DF86000401EC1
:106C1000844202D062A0F9F759FB641CE4B29DF8EB
:106C200060008442C8D35FA0F9F750FB00F0A6FAD9
:106C3000707D0B2814D2DFE800F0080D3138404891
:106C4000525E6B78890058A0DDE7306850F8350057
:106C5000804704E0306850F83510069888470746AA
:106C600000F058FA9DF8640001286ED04FA0F9F7A3
:106C70002DFB96F8EC0000280DD0D6F8F0000A2184
:106C8000B0FBF1F201FB1202B0FBF1F100E002E017
:106C900047A0F9F71BFB1AB0BDE8F081306850F847
:106CA0003520DDE906019047D9E7306806AC50F899
:106CB000353094E807009847D1E7306806AF50F8C0
:106CC000354097E80F00A047C9E70A980090306860
:106CD00006AF50F8354097E80F00A047BFE7DDE961
:106CE0000A01CDE90001306806AF50F8354097E859
:106CF0000F00A047B3E70AAB06AF93E807008DE8A3
:106D00000700306850F8354097E80F00A047A6E725
:106D10000AAC06AF94E80F008DE80F00306850F819
:106D2000354097E80F00A04799E70BAC06AF94E811
:106D30000F0001AC84E80F000A980090306850F80A
:106D4000354097E80F00A04789E711E00CAC06AF8B
:106D500094E80F0002AC84E80F00DDE90A01CDE9F8
:106D60000001306850F8354097E80F00A04776E7FB
:106D7000F07D394618B116A0F9F7A8FA79E717A0FF
:106D8000FAE70000940000200D0A25732800000097
:106D900025630000257300003058255800000000CE
:106DA0002C00000029000000256C64003B0D0A0047
:106DB00046756E6374696F6E2052756E2054696DEE
:106DC000653A25642E2531646D730D0A00000000BC
:106DD0003D305825583B0D0A000000003D256C75DC
:106DE0003B0D0A00F0B500252E462F462C460378B1
:106DF0002C2B03D0292B04D01BB103E014B901269E
:106E000000E00CB317B1222B2AD02AE0A3F1300CFA
:106E1000BCF1090F19D92D2B17D02B2B15D0A3F1AD
:106E2000610CBCF1050F10D9A3F1410CBCF1050FA9
:106E30000BD9582B09D0782B07D0222B0CD0202B24
:106E40001ED02C2B1CD0FF270CE05EB9612B00D389
:106E5000203B01F8013B13E026B901273C460FE037
:106E6000002426B10020087017702846F0BD3CB100
:106E70005C2B02D16D1CEDB2401C037801F8013B84
:106E80006D1CEDB2401CB2E730B5002515700AE06C
:106E900001F8014B1478401C641CE4B214709C424D
:106EA00001D3012030BD0478202C01D0002CEFD17B
:106EB0000D70002030BD00002DE9FF4F002482B08E
:106EC00089469846A2462746012526462246EB4695
:106ED000029915E0202810D002F07F03052B0CD278
:106EE00002B9802202F07F03042B01D12A280AD1A3
:106EF000521C0BF80300D2B201E0852A04D0491CD1
:106F000008780028E6D16AB102F07F0200200BF871
:106F1000020041A1584600F00AFA38B1012188F870
:106F2000001000224FF00008029B15E0002088F8B6
:106F30000000F6E708F1010000F0FF0813F8010F68
:106F4000202801D02A2807D1184600F07DF92828EA
:106F500002D02A2800D0C2461878282801D000285C
:106F6000E8D10299BAF1000F01D05144491C4FF009
:106F700000084346087888B1282804D0292806D07C
:106F8000222810D011E083B9641CE4B20DE063B98B
:106F900024B1641E14F0FF0402D00DE04FF001088C
:106FA000012F27D02FE04BB100234CB12C280CD05F
:106FB000202816D0282814D05AB110E00123F4E775
:106FC000202815D009F8010B12E00125521CD2B27D
:106FD00007E0052E03D20BF80600761CF6B26D1CF6
:106FE000EDB2012C04D1022D02D103257F1CFFB28A
:106FF000491CBFE700200BF8060007A1684600F017
:1070000096F900B9002704980770002089F800005D
:1070100006B04046BDE8F08F766F6964000000005E
:107020002DE9F04300248946304DB5B02146224673
:107030006B18491CC9B29A760A29F9D302E010F8F4
:10704000011F99B101782829F9D1461C4FF0010898
:1070500033AA69463046FFF7C5FE06449DF8CC00CA
:1070600040B1012824D0FF2836D10BE0012035B0F3
:10707000BDE8F0839DF8000070B334A9684600F0C5
:10708000EBF808B10220F2E7204600F031F828447E
:1070900034994162298B08FA04F081432983042042
:1070A00029198876641CE4B20A2C15D90320DEE77E
:1070B000684600F051F9471C204600F019F84119C4
:1070C0006846243100F03FF9298B08FA04F00143A7
:1070D000281929838776E5E73078292801D0002808
:1070E000B6D189F800400020C1E7000094000020DC
:1070F000024610B500200146054B05E05C18491C0E
:10710000A47EC9B22044C0B29142F7D310BD0000A2
:1071100094000020094800680169C943CA0708496A
:10712000D1F8F02004D14FF6FF731A44C1F8F020D3
:10713000406A1044C1F8F00070470000F0020020DF
:107140009400002000EBC00101EB00104FF0FF3174
:1071500001EB800010B581B24FF47A70FEF7F8FFB2
:1071600001490120C87510BD94000020034601208C
:1071700000E05843491EC9B2FBD2704707486FF080
:107180000101026811610268090CD162C1600068E6
:10719000002141620248C0F8F0107047F002002060
:1071A000940000202DE9F041164E3088010426D5C8
:1071B0001549C0B2154F00250D54B96812488847CB
:1071C00004000FD0104800F0D1F8012801D00400CD
:1071D00014D0012C09D0022C09D0032C09D0042C86
:1071E0000CD108E0F868804708E009A004E00BA093
:1071F00002E00DA000E00FA0F9F768F83580BDE8C7
:10720000F08100000E000020880100209400002082
:10721000BAAFCAFDB4EDCEF3210D0A00B2CECAFD5D
:10722000B4EDCEF3210D0A00B2CECAFDCCABB6E070
:10723000210D0A00CEB4D5D2B5BDC6A5C5E4B5C4EE
:10724000BAAFCAFD210D0A0010F8011F202901D193
:107250000028F9D1C8B270472DE9F0430E4600244A
:107260004FF00A082546014634600A78A2F130033F
:10727000092B14D903782D2B01D02B2B00D174B1FD
:10728000A2F14103052B0AD9582A05D012F0FF0FAD
:1072900017D00120BDE8F083012C02D0F9E7412A84
:1072A00001D34FF0100802782D2A04D02B2A04D0E5
:1072B000641CE4B203E0022500E00125401C491CE7
:1072C000D3E70746B8F1100F01D084B112E0032CC8
:1072D00001D20220DEE73878302802D178785828A9
:1072E00001D00320D6E7A41EE4B2BF1C01E00420B5
:1072F000D0E70CB1641EE4B2387801463038092872
:1073000001D8814601E0A1F1370921464046FFF747
:107310002DFF326809FB0020306017F8011F00299B
:10732000E7D1022D01D1404230600020B2E702785F
:107330000B789A4201D00120704712B1401C491CC1
:10734000F5E70020704702780A700278002A02D020
:10735000401C491CF7E77047002102781AB1491C0C
:10736000C9B2401CF9E7084670470000F0B58DB07F
:1073700004461E2308AA6946FFF786FD09900028E7
:1073800072D19DF82000271800253E4C8DF8205022
:107390009DF8200054F820106846FFF7C8FF38B168
:1073A0009DF82000401CC0B28DF820000728EFD3C4
:1073B0009DF820000426344C072855D2DFE800F061
:1073C0000404395A605F5E0030A0F8F77FFF30A0F8
:1073D000F8F77CFF3EA0F8F779FF4DA0F8F776FFAD
:1073E0005BA0F8F773FF6AA0F8F770FF78A0F8F7D2
:1073F0006DFF86A0F8F76AFF8BA0F8F767FF93A0F0
:10740000F8F764FF97A0F8F761FF9CA0F8F75EFF1C
:10741000A1A0F8F75BFFA7A0F8F758FFB3A0F8F713
:1074200055FFC0A0F8F752FFCBA0F8F74FFFD7A049
:107430001BE016A0F8F74AFFE4A0F8F747FF8DF825
:1074400020500BE0216806EBC0000958EFA0F8F7C8
:107450003DFF9DF82000401C8DF82000217D9DF807
:1074600020008142EED856E257E2F8F72FFF0020C5
:107470000DB0F0BD05A0F8F729FFCBE12CE20CE23E
:10748000EBE1000058000020940000200D0A0000ED
:107490002D2D2D2D2D2D2D2D2D2D2D2D2D2D2D2D1C
:1074A0002D2D2D2D2D2D2D2D55534D415254205622
:1074B000332E332D2D2D2D2D2D2D2D2D2D2D2D2DEF
:1074C0002D2D2D2D2D2D2D2D2D2D2D200D0A000096
:1074D0002020202055534D415254CAC7D3C9414C96
:1074E00049454E54454BBFAAB7A2B5C4D2BBB8F666
:1074F000C1E9C7C9B5C4B4AEBFDAB5F7CAD4BBA534
:10750000BDBBD7E9BCFE2CCDA8B9FD200D0A0000FB
:10751000CBFC2CC4E3BFC9D2D4CDA8B9FDB4AEBF57
:10752000DAD6FACAD6B5F7D3C3B3CCD0F2C0EFC31C
:10753000E6B5C4C8CEBACEBAAFCAFD2CB2A2D6B494
:10754000D0D02ED2F2B4CB2CC4E3BFC90D0A0000B8
:10755000D2D4CBE6D2E2B8FCB8C4BAAFCAFDB5C447
:10756000CAE4C8EBB2CECAFD28D6A7B3D6CAFDD7A7
:10757000D62831302F3136BDF8D6C62CD6A7B3D693
:10758000B8BACAFD29A1A2D7D6B7FBB4AE0D0A007E
:10759000A1A2BAAFCAFDC8EBBFDAB5D8D6B7B5C895
:1075A000D7F7CEAAB2CECAFD292CB5A5B8F6BAAF88
:1075B000CAFDD7EEB6E0D6A7B3D63130B8F6CAE4E6
:1075C000C8EBB2CECAFD2CB2A2D6A7B3D60D0A0024
:1075D000BAAFCAFDB7B5BBD8D6B5CFD4CABE2ED6C2
:1075E000A7B3D6B2CECAFDCFD4CABEBDF8D6C6C9DF
:1075F000E8D6C3B9A6C4DC2CD6A7B3D6BDF8D6C688
:10760000D7AABBBBB9A6C4DC2E0D0A00BCBCCAF508
:10761000D6A7B3D63A7777772E6F70656E656476A6
:107620002E636F6D0D0A000055534D415254D3D057
:1076300037B8F6CFB5CDB3C3FCC1EE28B1D8D0EB87
:10764000D0A1D0B4293A0D0A000000003F3A202012
:1076500020202020BBF1C8A1B0EFD6FAD0C5CFA220
:107660000D0A000068656C703A202020BBF1C8A1AB
:10767000B0EFD6FAD0C5CFA20D0A00006C697374C2
:107680003A202020BFC9D3C3B5C4BAAFCAFDC1D008
:10769000B1ED0D0A0A00000069643A202020202084
:1076A000BFC9D3C3BAAFCAFDB5C44944C1D0B1ED57
:1076B0000D0A0A006865783A20202020B2CECAFD63
:1076C0003136BDF8D6C6CFD4CABE2CBAF3B8FABF8D
:1076D000D5B8F12BCAFDD7D6BCB4D6B4D0D0BDF83E
:1076E000D6C6D7AABBBB0D0A0A0000006465633A80
:1076F00020202020B2CECAFD3130BDF8D6C6CFD46E
:10770000CABE2CBAF3B8FABFD5B8F12BCAFDD7D68A
:10771000BCB4D6B4D0D0BDF8D6C6D7AABBBB0D0A70
:107720000A00000072756E74696D653A312CBFAA4B
:10773000C6F4BAAFCAFDD4CBD0D0BCC6CAB13B30B8
:107740002CB9D8B1D5BAAFCAFDD4CBD0D0BCC6CA3B
:10775000B13B0D0A0A000000C7EBB0B4D5D5B3CCDD
:10776000D0F2B1E0D0B4B8F1CABDCAE4C8EBBAAF48
:10777000CAFDC3FBBCB0B2CECAFDB2A2D2D4BBD844
:10778000B3B5BCFCBDE1CAF82E0D0A002D2D2D2D80
:107790002D2D2D2D2D2D2D2D2D2D2D2D2D2D2D2D19
:1077A0002D2D2D2D2D2D414C49454E54454B2D2D24
:1077B0002D2D2D2D2D2D2D2D2D2D2D2D2D2D2D2DF9
:1077C0002D2D2D2D2D2D2D200D0A00002D2D2D2D93
:1077D0002D2D2D2D2D2D2D2D2D2D2D2D2D2D2D2DD9
:1077E0002D2D2D2D2DBAAFCAFDC7E5B5A52D2D2DFB
:1077F0002D2D2D2D2D2D2D2D2D2D2D2D2D2D2D2DB9
:107800002D2D2D2D2D2D2D2D200D0A0025730D0A2A
:107810000000000042A0F8F759FD8DF8205016E056
:10782000216806EBC0000BAB08580AAA6946FFF7AF
:1078300043FB9DF82010206850F83120694648A08D
:10784000F8F744FD9DF82000401C8DF82000217DB4
:107850009DF820008142E3D85DE0AFF2D030F8F728
:1078600035FD08AA69463846FFF7BCFA9DF82000A6
:10787000002843D109A96846FFF7EEFC8DF82000E7
:1078800010B104283AD102E03AA009991CE03CA0CA
:10789000F8F71CFD0120E0753DE038A0F8F716FD73
:1078A00008AA69463846FFF79DFA9DF8200028BBD4
:1078B00009A96846FFF7D0FC8DF8200010B1042814
:1078C0001CD104E033A00999F8F700FD23E034A0AF
:1078D000F8F7FCFCE5751EE028A0F8F7F7FC08AA0D
:1078E00069463846FFF77EFA9DF8200030B909A9AD
:1078F0006846FFF7B1FC8DF8200008B10220B7E51B
:10790000099810F0FF0084F8EC0001D029A000E0F5
:107910002FA0F8F7DBFC19A0A7E50120A8E50000DF
:107920002D2D2D2D2D2D2D2D2D2D2D2D2D2D2D2D87
:107930002D2D2D2D2D2D2D2D2DBAAFCAFD204944D5
:10794000202D2D2D2D2D2D2D2D2D2D2D2D2D2D2D74
:107950002D2D2D2D2D2D2D2D2D2D2D2D200D0A00D4
:1079600025732069642069733A0D0A305825303830
:10797000580D0A004845583A305825580D0A00005D
:107980003136BDF8D6C6B2CECAFDCFD4CABE210D9F
:107990000A0000004445433A256C750D0A000000BA
:1079A0003130BDF8D6C6B2CECAFDCFD4CABE210D85
:1079B0000A00000052756E2054696D652043616CA9
:1079C00063756C6174696F6E204F4E0D0A00000084
:1079D00052756E2054696D652043616C63756C61EE
:1079E00074696F6E204F46460D0A000001607047B3
:1079F00010B591EA030F48BF83F0004300F13C83C8
:107A0000841A71EB030C05D2121943EB0C03001B13
:107A100061EB0C01DFF824E14FEA1154A4EB135C95
:107A20001EEA430F18BF9EEA445F73D023EA0E0399
:107A3000DCF1200E21EA045143F4801332D322FA00
:107A40000CFE10EB0E0023FA0CFE41EB0E01CCF104
:107A5000200E03FA0EFE10EB0E0051F10001B1F5FD
:107A6000801FCCF1200E32D201EB045112FA0EF23B
:107A7000BDE8104058BF7047401C38BF5FEA420263
:107A800018BF7047002814BF20F0010041F1000129
:107A90004FEA410313F5001F38BF7047A1F1C04101
:107AA00000F0CEB9012A43EB0302ACF1200CDCF16B
:107AB0001F0E32BF4FF0000E23FA0CF310EB030041
:107AC00041EB0451B4EB115FD0D0A1EB045101F5AF
:107AD000801149085FEA300001EB04510ED350F1E8
:107AE000000038BF12FA0EFE08D1BDE81040C9E709
:107AF000401C38BF5FEA4202CAD1C3E7BDE810406C
:107B00004FEA410313F5001F38BF7047A1F1C04190
:107B100000F096B99EEA445F08D011EA5E0FBDE816
:107B2000104004BF01F0004100207047BDE8104044
:107B300070B500F037F900BF64FBBE3E0000E0FF07
:107B4000491058BFC1F140415B1058BFC3F14043D9
:107B50008B42EFF3008070474FEA1153A3F5806327
:107B6000D3F11E03A8BFD3F1200C08DB4FF0004275
:107B700042EAC12252EA505232FA03F070470942F7
:107B80000BD4102BC4BF0020704703F5787CBCF1E8
:107B9000FF3F05D04FF0FF3070474FF000007047B7
:107BA00070B500F0FFF800BF4992248000207047B4
:107BB000F0E7B0FA80F310FA03F10AD0C3F11D0325
:107BC00003F580634FEA41504FEA035202EBD121A3
:107BD00070474FF00000704751EA030C17D41CF5B2
:107BE000801F58BFBCF5801F00F10680994218BF66
:107BF000704708BF9042704707D711F5801F58BFE4
:107C000013F5801F19D499427047894270471CF5BB
:107C1000801F08D5BCF5801FF7D58B4218BF704771
:107C200008BF824270474FF4001C1CEB410F38BF65
:107C30001CEB430F01D28B42704770B500F0B2F8D5
:107C4000922449004FF000514FF08053FFF778BF66
:107C5000DFF848C170B51CEA111E1EBF1CEA1315DF
:107C60009EEA0C0F95EA0C0F00F06F8081EA030486
:107C700023EA4C134EEAD47E21EA4C1141F48011E0
:107C800043F48013AE44A1FB024CA0FB0365AEF1AC
:107C90007F7E361955EB0C05A1FB034C4CF100031C
:107CA000A0FB021C16EB0C06654153F100030942D0
:107CB00018BF46F0010613F4007F0BD14FEA0331E1
:107CC0004FEA0530340341EA155140EA16506FF08F
:107CD00003020AE04FEAC3214FEAC520F40241EA59
:107CE000555140EA56506FF0020202EB2E4201EB72
:107CF000025585EACE710AD05FEA440C18BF24F021
:107D0000004450F1000041F1000120EAD47040F23B
:107D1000FE7C624500D270BDA84214BF4FF0804483
:107D20004FF04044002E08BF0024BEF1806FA8BF72
:107D3000A1F1C041BDE8704080F282804FF00000A8
:107D400001F1C04101F0004170479EEA0C0F0CEABE
:107D5000131518BF95EA0C0F06D04FF0000081EA0A
:107D6000030E0EF0004170BD00F01CF88900013ECA
:107D700000F007B800F009B84FEA430C5FEA5C5C1A
:107D800008D081EA030100F05BB84FEA410C5FEADA
:107D90005C5CF6D14FF00000014970470000FF071E
:107DA0000000F87F0EF1020E2EF0030E5EF8046B59
:107DB000364205D4012A43EB030515F5001F12D8FE
:107DC000012841EB010C1CF5001F0CD80ED14FEA25
:107DD000D17C15F5001F0CEB4C0C0CF1020C08BF0C
:107DE0004CEBD37C04E04FF0080C01E04FEAD37C6D
:107DF0000CEB4C0526FA05F606F00706B6F1040C66
:107E000006D20EEB860CBDE870404CF0010C6047CA
:107E1000DFE80CF0090B02024FF000414FF00000C8
:107E2000A1F5002170BD19461046012851EB01044F
:107E300018BFD4F5001484BF002001F0004170BDCC
:107E40000808A0F500114FEA3101704753EA010C10
:107E500017D41CF5801F58BFBCF5801F00F10680A9
:107E60008B4218BF704708BF8242704707D713F58F
:107E7000801F58BF11F5801F19D48B4270479B4259
:107E800070471CF5801F08D5BCF5801FF7D59942B7
:107E900018BF704708BF904270474FF4001C1CEB9E
:107EA000430F38BF1CEB410F01D2994270470FB40A
:107EB0000CBC03BCFFF7C1BE91EA030F10B581F003
:107EC00000413FF59DAD83F0004300F0D5B80000C0
:107ED0002DE9F04101F5801CBCF5001FC0F2A9801E
:107EE0004FEA115C21EA0C510CF1FD0C41F48011B8
:107EF0005FEA5C0C0CF5C07C01D34000494130A422
:107F0000890241EA905187028E0E0A0CA45D04FB9F
:107F100004F602FB06F6C6F14046A4FB0662F60D27
:107F200046EA422606FB06F4A4FB01235242C3F1B3
:107F3000404338BF5B1EA6FB02420024E6FB03243D
:107F4000D20B42EA4446A6FB0623A1FB02E2A3FBB6
:107F500007E4E3FB61426442C2F1404E38BFAEF138
:107F6000010EA6FB04234FF00002E6FB0E32A2FB3B
:107F700003463400E2FB6264A1FB06E6A4FB07E8CB
:107F8000E4FB61687642C8F1405838BFA8F10108A7
:107F9000A2FB06E4A3FB08E5E2FB6854A1FB05E6AF
:107FA000A7FB04E8E1FB648618F1200556F1000602
:107FB000A809A8F11B08B10908F03F08B8F10A0F99
:107FC00040EA86601CD901EB0C51BDE8F08100BF8E
:107FD000FCF5EEE8E2DDD8D3CFCBC7C3C0BDB9B660
:107FE000B4B1AEACA9A7A5A3A19F9D9B9A98969565
:107FF0009392908F8D8C8B898887868584838281EC
:10800000A0FB006800FB01F208EB4208B8EB8728F0
:1080100007D5341858EB0104D5D5401C51F10001A7
:10802000D1E7341A78EB0104CDD4401E71F1000180
:10803000C9E75FEA4C0C5FEA9C5C0DD105D34FF0B9
:10804000000001F00041BDE8F081BDE8F04170B5ED
:10805000FFF7A8FE6DDBFFBEBDE8F0414FF000006A
:10806000004970470000F87F10B591EA030F48BF40
:1080700083F000433FF5C4AC841A71EB030C07D2C4
:1080800012198CF0004C43EB0C03001B61EB0C014C
:10809000DFF8A4E14FEA1154A4EB135C1EEA430F8E
:1080A00018BF9EEA445F00F0B08023EA6E0352429C
:1080B00021EA0451C3EB6E0338BF5B1EDCF1200ED6
:1080C00025D322FA0CFE10EB0E0043FA0CFE41EB16
:1080D0000E01CCF1200E03FA0EFE10EB0E0051F152
:1080E0000001CCF1200E29D412FA0EF201EB04515A
:1080F000BDE8104058BF7047401C1CBFB2F1004F94
:10810000704700280CBF491C20F00100704712EB9B
:10811000020E43EB030218BF4FF0010E4EEA42027B
:10812000ACF1200CDCF11E0E54D943FA0CFE10EB1E
:108130000E0051F1FF31CCF11E0ED5D50EF1010E1E
:1081400012FA0EFE404141EB010101EB445C5FEA93
:108150005C5C10D910EBDE7001EB045138BFBEF14E
:10816000004FBDE8104018BF704700280CBF491CE5
:1081700020F00100704730D24FEAD42C11F50011E5
:1081800024F400641BD0B1FA81F20B3AA41AA41EA5
:10819000D2F12003914030FA03F31943904001EBF0
:1081A000CC71002C01EB0451BDE81040A8BF704712
:1081B00001F1C0414FF0000001F000417047B0FAFA
:1081C00080F310FA03F100D110BDE41A173C480502
:1081D000C90AE4E701EB045110BD491001EB045159
:1081E000BDE810404FEA300002E04FF00001704758
:1081F0004A0008BF0042F8D0B2F5001F28BF704700
:1082000001F000414FF0000070479EEA445F07D044
:1082100011EA5E0FBDE8104004BF00210020704746
:10822000BDE8104070B5FFF7BDFD00BF40DFF63E72
:1082300083F00041104670470000E0FF43004FEA22
:10824000D30C4FEA3C0C43401FBF40070CF1605178
:1082500013F0FE4F70471CF0006F03D100200CF0AC
:10826000004170470CF0004343EA507010B540EAFB
:10827000CC0000F00EF800BF000000924FEA0001B1
:10828000FFF7DEBD4FF000414FF00000A1F50021E7
:1082900070470EF1020E2EF0030E5EF8044B2442DE
:1082A00004D44FEA4102B2F17F4F11D84FEA4003A4
:1082B000B3F17F4F0CD80ED14FEAD07CB2F17F4F93
:1082C0000CEB4C0C0CF1020C08BF4CEBD17C04E025
:1082D0004FF0080C01E04FEAD17C0CEB4C0324FA80
:1082E00003F404F00704B4F1040C06D20EEB840C82
:1082F000BDE810404CF0010C6047DFE80CF00708C7
:1083000002024FF00040A0F5800010BD0846420078
:1083100018BFD2F1807288BF00F0004010BD4FF04E
:108320004070E1EE100A704700F8E0071F0040BC03
:10833000E0FF000000000000000001020304060747
:108340000809000000000102030400000000000012
:10835000000000000000000000003F40000000009E
:108360000000000030004000300040000000090024
:108370000BC03D000BC03D00090018C024407FE049
:10838000224031800000180024C01B000D803240C4
:10839000018003801C4027401C80074000401000E3
:1083A000600000000000000000000000000000006D
:1083B0001F80204040200000402020401F800000FF
:1083C0000000090006001F800600090000000400EC
:1083D00004003F8004000400000000100060000062
:1083E0000000000000000400040004000400040079
:1083F000000000000040000000000000000000201D
:1084000001C006003800400000001F8020402040CE
:1084100020401F800000000010403FC000400000CE
:10842000000018C021402240244018400000108065
:108430002040244024401B80000002000D00110059
:108440003FC0014000003C80244024402440238061
:1084500000001F802440244034400380000030008E
:10846000200027C03800200000001B80244024404A
:1084700024401B8000001C0022C0224022401F809C
:1084800000000000000008400000000000000000A4
:1084900000000460000000000000000004000A006A
:1084A000110020804040090009000900090009006E
:1084B000000000004040208011000A000400180065
:1084C000200023402400180000001F802040274087
:1084D00029401F400000004007C039000F0001C0C4
:1084E000004020403FC0244024401B8000001F80EB
:1084F0002040204020403080000020403FC02040ED
:1085000020401F80000020403FC024402E4030C04B
:10851000000020403FC024402E00300000000F002B
:108520001080204022403380020020403FC00400E1
:1085300004003FC02040204020403FC02040204059
:1085400000000060202020203FC0200020002040AC
:108550003FC024400B0030C0204020403FC020409E
:108560000040004000C03FC03C0003C03C003FC092
:10857000000020403FC00C4023003FC020001F806F
:108580002040204020401F80000020403FC0244069
:108590002400180000001F802140214020E01FA07F
:1085A000000020403FC02440260019C0004018C0F1
:1085B00024402440224031800000300020403FC051
:1085C00020403000000020003F80004000403F80FD
:1085D000200020003E0001C00700380020003800C5
:1085E00007C03C0007C038000000204039C006002A
:1085F00039C0204000002000384007C0384020002B
:108600000000304021C02640384020C0000000005B
:1086100000007FE0402040200000000070000C00BF
:108620000380004000000000402040207FE0000068
:1086300000000000200040002000000000000010AA
:10864000001000100010001000100000000040009A
:10865000000000000000000002800540054003C04B
:10866000004020003FC004400440038000000000A0
:1086700003800440044006400000000003800440E2
:1086800024403FC0004000000380054005400340F7
:108690000000000004401FC02440244020000000CF
:1086A00002E0055005500650042020403FC0044021
:1086B000040003C000400000044027C00040000048
:1086C000000000100010041027E00000000020400F
:1086D0003FC00140070004C00440204020403FC08C
:1086E00000400040000007C0040007C0040003C0B1
:1086F0000000044007C00440040003C00040000024
:1087000003800440044003800000041007F004507C
:10871000044003800000000003800440045007F080
:108720000010044007C002400400040000000000E4
:1087300006400540054004C00000000004001F8002
:10874000044000400000040007800040044007C0CF
:1087500000400400070004C0018006000400060079
:1087600001C0070001C006000000044006C001006F
:1087700006C0044000000410071004E00180060059
:1087800004000000044005C0064004400000000052
:10879000000004007BE0402000000000000000001A
:1087A000FFF000000000000040207BE0040000001B
:1087B0000000400080004000200020004000000039
:1087C00000000000000000000000000000000000A9
:1087D000000000001FCC000C0000000000000000A2
:1087E0000800300060000800300060000000022037
:1087F00003FC1E20022003FC1E20022000000000BB
:108800000E1811043FFF10840C78000000000F00C8
:1088100010840F3800C007781884007800000078B2
:108820000F8410C411240E9800E40084000808008E
:108830006800700000000000000000000000000060
:108840000000000007E018182004400200000000AB
:1088500040022004181807E0000000000000024059
:10886000024001800FF001800240024000000080C1
:10887000008000800FF80080008000800000000170
:10888000000D000E000000000000000000000000CD
:108890000080008000800080008000800080000058
:1088A000000C000C000000000000000000000000B0
:1088B000000600180060018006001800200000007B
:1088C00007F0080810041004080807F00000000072
:1088D000080408041FFC000400040000000000005D
:1088E0000E0C10141024104411840E0C0000000013
:1088F0000C1810041104110412880C700000000000
:1089000000E00320042408241FFC002400000000D1
:108910001F981084110411041088107000000000CA
:1089200007F0088811041104188800700000000086
:108930001C00100010FC13001C00100000000000C0
:108940000E3811441084108411440E3800000000C9
:108950000700088C10441044088807F0000000004D
:1089600000000000030C030C0000000000000000E9
:1089700000000001010600000000000000000000EF
:1089800000800140022004100808100400000220AA
:10899000022002200220022002200220000000000B
:1089A00010040808041002200140008000000000AC
:1089B0000E001200100C106C10800F00000003E07D
:1089C0000C1813E4142417C4082807D0000000046E
:1089D000003C03C41C40074000E4001C00041004D9
:1089E0001FFC1104110411040E880070000003E044
:1089F0000C1810041004100410081C1000001004BF
:108A00001FFC100410041004080807F000001004F4
:108A10001FFC1104110417C41004081800001004EE
:108A20001FFC1104110017C010000800000003E033
:108A30000C181004100410441C78004000001004AE
:108A40001FFC10840080008010841FFC10040000B4
:108A5000100410041FFC10041004000000000003A8
:108A60000001100110011FFE100010000000100492
:108A70001FFC110403801464181C1004000010046F
:108A80001FFC1004000400040004000C000010048B
:108A90001FFC1F0000FC1F001FFC1004000010043E
:108AA0001FFC0C04030000E010181FFC100007F06E
:108AB0000808100410041004080807F0000010044F
:108AC0001FFC10841080108010800F00000007F041
:108AD000081810241024101C080A07F200001004C3
:108AE0001FFC1104110011C011300E0C0004000015
:108AF0000E1C11041084108410441C38000018004F
:108B0000100010041FFC10041000180000001000DA
:108B10001FF810040004000410041FF810001000D7
:108B20001E0011E0001C007013801C0010001FC00C
:108B3000103C00E01F0000E0103C1FC000001004CB
:108B4000180C163401C001C01634180C10041000A3
:108B50001C00130400FC13041C0010000000080497
:108B6000101C1064108413041C0410180000000072
:108B7000000000007FFE40024002400200000000B2
:108B800030000C0003800060001C000300000000A7
:108B90004002400240027FFE000000000000000092
:108BA00000002000400040004000200000000001C4
:108BB00000010001000100010001000100010000AE
:108BC0004000400020000000000000000000000005
:108BD0000098012401440144014400FC00041000F9
:108BE0001FFC0088010401040088007000000000E0
:108BF00000700088010401040104008800000000E6
:108C0000007000880104010411081FFC000400002A
:108C100000F8014401440144014400C80000000080
:108C2000010401040FFC11041104110018000000DC
:108C300000D601290129012901C9010600001004FB
:108C40001FFC008401000100010400FC000400007E
:108C50000104190419FC00040004000000000000D5
:108C6000000300010101190119FE000000001004B9
:108C70001FFC0024004001B4010C010400000000AE
:108C8000100410041FFC0004000400000000010494
:108C900001FC0104010001FC0104010000FC0104CD
:108CA00001FC008401000100010400FC000400003C
:108CB00000F8010401040104010400F800000101AE
:108CC00001FF00850104010400880070000000001D
:108CD0000070008801040104010501FF0001010486
:108CE000010401FC00840104010001800000000077
:108CF00000CC01240124012401240198000000007B
:108D00000100010007F80104010400000000010057
:108D100001F8000400040004010801FC0004010043
:108D200001800170000C001001600180010001F061
:108D3000010C003001C00030010C01F00100000006
:108D40000104018C00740170018C01040000010118
:108D500001810171000E0018016001800100000016
:108D60000184010C013401440184010C0000000065
:108D700000000000000001003EFC40024002000034
:108D8000000000000000FFFF0000000000000000E5
:108D9000400240023EFC0100000000000000000014
:108DA00060008000800040004000200020000000A3
:108DB00000000000000000000000000000000000B3
:108DC00000000000000000000000000000000000A3
:108DD0000000000000000000000000000000000093
:108DE000000F80380FFE380F8038000000000000B0
:108DF000000000000000000000000000010000066C
:108E000000000C00003800003100000600000C00DB
:108E10000038000030000000000000000000618009
:108E20000067F807F98000618000618000618000C0
:108E300061800067F807F980006180000000000091
:108E40000000000001C0E003E0F00630080418084C
:108E50001FFFFE040E080787F00381E000000000FA
:108E6000000001F000060C00040408060C7001F973
:108E7000C0000E00003BE000EC18070808040C18C6
:108E80000003E00000000001E00007F003F8180410
:108E90001C0804170807E1D003C0E00023B0003C21
:108EA0000800200800001000000000000001000081
:108EB0003100003200001C00000000000000000033
:108EC00000000000000000000000000000000000A2
:108ED00000000000000000000000000000007F0013
:108EE00001FFC00780F00C001810000420000200F1
:108EF00000000000002000021000040C0018078091
:108F0000F001FFC0007F0000000000000000000032
:108F100000000000000000000000420000660000A9
:108F20006600003C0000180003FFC0001800003C71
:108F3000000066000066000042000000000008001B
:108F400000080000080000080000080001FFC00041
:108F500008000008000008000008000008000000E9
:108F60000000000100003100003200001C00000081
:108F700000000000000000000000000000000000F1
:108F800000000000000008000008000008000008C1
:108F900000000800000800000800000800000800A9
:108FA0000008000000000000000000000000380081
:108FB0000038000038000000000000000000000041
:108FC000000000000000000000000000000000069B
:108FD00000001C000070000180000E00003800003E
:108FE000C0000700001C000030000000000000006E
:108FF00000007F8001FFE003807006001804000875
:1090000004000806001803807001FFE0007F800064
:10901000000000000000000001000801000801003D
:109020000803FFF807FFF800000800000800000828
:1090300000000000000000000001C03802C0580419
:109040000098040118040218040418061C1803F8F8
:109050001801E0F800000000000000000001C0E07E
:1090600003C0F004000804080804080806180803F0
:10907000F41801E7F00001E000000000000000002B
:1090800000000300000D00001100006100008108D5
:1090900003010807FFF80FFFF800010800010800AE
:1090A00000000000000000E007FCD00608080610E1
:1090B00008061008061008061838060FF00607C044
:1090C000000000000000000000003F8001FFE003FE
:1090D0008430020818041008041008041008071847
:1090E00010030FF00007C0000000000000000000A7
:1090F00003C0000700000600000600F80607F80697
:10910000180006E000070000060000000000000054
:109110000001E1E003F7F006341004180804180811
:10912000040C08040C0806161803F3F001C1E00053
:10913000000000000000F80003FC300306380402C1
:10914000080402080402080404100308F001FFC028
:10915000007F000000000000000000000000000090
:109160000000000000007038007038007038000007
:1091700000000000000000000000000000000000EF
:1091800000000000000000000000301A00301C0049
:1091900000000000000000000000000000000000CF
:1091A0000000000000080000140000220000410040
:1091B0000080800100400200200400100800080028
:1091C000000000000000210000210000210000211B
:1091D00000002100002100002100002100002100EA
:1091E000002100000000000000000000080008044A
:1091F0000010020020010040008080004100002299
:109200000000140000080000000000000003C0007F
:1092100004C000040000080038080F3808083808A7
:1092200010000C300007E00003C000000000000048
:1092300000003F8000FFE0038070020F100670887E
:1092400004C088048308047F8802C09003012000C2
:10925000FE400000080000180001F8003E0801C2AE
:109260000007020007E20000FE00001FC80001F82E
:1092700000003800000804000807FFF807FFF804A2
:10928000080804080804080804080806180803F475
:109290001801E7F00001E0000000000000003F803E
:1092A00001FFE003807002001804000804000804B5
:1092B00000080400100600200780C0000000040021
:1092C0000807FFF807FFF804000804000804000876
:1092D00004001802001003807001FFE0007F80008E
:1092E000000004000807FFF807FFF8040808040856
:1092F00008040808040808043E08040008060018CA
:1093000001006000000004000807FFF807FFF804F0
:109310000808040800040800040800043E000600D1
:1093200000060000018000000000000000003F80F7
:1093300001FFE0038070060018040008040208041E
:1093400002080203F00783F000020000020004009C
:109350000807FFF807FFF8040808000800000800E5
:1093600000080000080004080807FFF807FFF804D9
:1093700000080000000000000400080400080400C9
:109380000807FFF807FFF8040008040008040008B5
:1093900000000000000000000000000600000700C0
:1093A000000104000104000104000307FFFE07FFA1
:1093B000FC04000004000004000004000807FFF89B
:1093C00007FFF8040C08001800003E0004C78005E1
:1093D00003C80600F8040038040018000008040060
:1093E0000807FFF807FFF80400080000080000085D
:1093F00000000800000800000800001800006000DD
:10940000000004000807FFF807800807FC00007F41
:10941000C00003F80007C000780007800807FFF8C5
:1094200007FFF804000804000807FFF80700080316
:10943000C00000E000003800001E0000070000012E
:10944000C00400F007FFF8040000000000007F8067
:1094500001FFE003807006001804000804000806FD
:10946000001803003001FFE0007F800000000400CE
:109470000807FFF807FFF8040408040400040400C8
:10948000040400040400060C0003F80001F00000CE
:109490000000000000007F8001FFE00380700600F4
:1094A000880400880400C806003C03003E01FFE673
:1094B000007F8400000004000807FFF807FFF8049D
:1094C0000808040800040C00040F00040BC0061078
:1094D000F003F03801E00800000800000001E0F8A7
:1094E00003F030063010041808041808040C0804AF
:1094F0000C080206180207F00781E0000000018056
:109500000006000004000004000004000807FFF843
:1095100007FFF80400080400000400000600000132
:10952000800004000007FFE007FFF00400180000BF
:1095300008000008000008000008000008040010EF
:1095400007FFE004000004000006000007E0000739
:10955000FE00041FE00001F80000380001E0043EB6
:109560000007C00006000004000004000007E0003F
:1095700007FFC0041FF80007C007F80007FF8004BA
:109580003FF80007C004F8000700000400000000D6
:109590000004000806001807C07805F1C8003E0066
:1095A000001F800463E80780F80600180400080024
:1095B000000004000006000007800007E008047CAB
:1095C00008001FF80007F800180804E0080700006A
:1095D0000600000400000000000100080600380436
:1095E00000F80403E8040F08047C0805F00807C02D
:1095F00008070018040060000000000000000000E0
:109600000000000000000000003FFFFE20000220DC
:1096100000022000022000022000020000000000E2
:109620000000000008000007000000C00000380033
:109630000006000001C000003000000E0000010024
:1096400000000000000000002000022000022000B6
:10965000022000022000023FFFFE00000000000088
:1096600000000000000000000000000000000008F2
:10967000000010000030000020000030000010004A
:1096800000080000000000000000000001000001D0
:1096900000000100000100000100000100000100C5
:1096A00000010000010000010000010000010000B5
:1096B000000000000000002000002000001000005A
:1096C000100000000000000000000000000000008A
:1096D00000000000000000F00019F8001B18002234
:1096E00008002608002408002410003FF8001FF896
:1096F00000000800001800000004000007FFF80F39
:10970000FFF00018180010080020080020080030A2
:1097100018001FF0000FC00000000000000007C08C
:10972000001FF0001830002008002008002008006A
:109730003C08001C10000060000000000000000059
:10974000000007C0001FF0003818002008002008A3
:1097500000200804101007FFF80FFFF000001000B1
:1097600000000000000000000007C0001FF0001211
:1097700030002218002208002208003208001E10C3
:10978000000E200000000000000020000020080063
:10979000200801FFF803FFF8062008042008042031
:1097A0000807200003000000000000000000000E79
:1097B000000E6E001FF30031B10020B10020B10097
:1097C0003191001F13002E1E00200E0030000000FB
:1097D0000004000807FFF80FFFF800100800200041
:1097E000002000002008003FF8001FF800000800DB
:1097F00000000000000000000020080020080020F9
:1098000008063FF8063FF8000008000008000008BE
:109810000000000000000000000000000000030045
:109820000003002001002001002003063FFE063F48
:10983000FC00000000000000000000000004000820
:1098400007FFF80FFFF8000188000300002FC00099
:1098500038F8002038002008000008000000000050
:109860000000000004000804000804000807FFF8D6
:109870000FFFF800000800000800000800000000CA
:109880000000002008003FF8003FF800100800200A
:1098900000003FF8003FF8001008002000003FF8EB
:1098A000003FF8000008000000002008003FF8001A
:1098B0003FF8001008001000002000002008003FC2
:1098C000F8001FF80000080000000000000007C0BA
:1098D000000FF000183000300800200800200800B9
:1098E0003008001830000FF00007C0000000000032
:1098F00000002001003FFF003FFF00101100200981
:10990000002008002008003038001FF0000FC000C1
:1099100000000000000007C0001FF0003818002001
:1099200008002008002009001011001FFF003FFF61
:1099300000000100000000200800200800200800AE
:109940003FF8003FF8000808001008002008002039
:1099500000003000003000000000000000000000A7
:10996000000C78001E1800330800230800210800AE
:1099700021880021980030F00038600000000000CD
:109980000000200000200000200000FFF003FFF88E
:10999000002008002008002008000030000000001F
:1099A0000000000000002000003FF0007FF80000F1
:1099B00018000008000008002010003FF8007FF0A9
:1099C0000000100000000000000020000030000037
:1099D0003C00003F800023F000007800007000236E
:1099E00080003C00003000002000002000003C000F
:1099F000003FE00023F80000E0002700003E0000E8
:109A00003FE00021F80001E0003E000020000000DF
:109A100000002008002008003838003E6800278039
:109A20000003C8002CF80038380020180020080077
:109A30000000000000002000003003003C01003F57
:109A4000830023EC000070002380003C0000200015
:109A500000200000000000000000000000380800A6
:109A600020380020F80023E8002F88003E08003846
:109A70000800201800007000000000000000000036
:109A80000000000000000000000008000014001F9B
:109A9000F7FC30000620000200000000000000007B
:109AA00000000000000000000000000000000000B6
:109AB000FFFFFF00000000000000000000000000A9
:109AC00000000000000000002000023000061FF728
:109AD000FC0014000008000000000000000000006E
:109AE00000000000000000000018000060000040BE
:109AF00000004000002000001000000800000400EA
:109B0000000400000C000010000000000000000035
:109B10000000000000000000000000000000000045
:109B20000000000000000000000000000000000035
:109B30000000000000000000000000000000000025
:109B40000000000000000000000000000000000015
:109B50000000000000000000000000000000000005
:109B600000000000000000000000000000000000F5
:109B700000000000000000000000000000000000E5
:109B800000000000000000000000000000000000D5
:109B900000000000000000000000000000000000C5
:109BA000000007F000C007FFE1E007F001E000005F
:109BB00000C00000000000000000000000000000E5
:109BC0000000000000000000000000000000000095
:109BD0000000000000000000000000000000000085
:109BE0000000000000000000000000000000000075
:109BF0000000000000000000000000000000000065
:109C00000000000000000000000000000000000054
:109C100000000020000001C00000078000001F00BD
:109C200000001E0000001C20000001C00000078092
:109C300000001F0000001E0000001C0000000000CB
:109C40000000000000000000000000000000000014
:109C50000000000000000000000000000000000004
:109C600000000000000000000000000000000000F4
:109C700000000000000000000000000000000000E4
:109C800000000000000000000000000000000018BC
:109C90000C0000180C0000180FE0001FFC0003F877
:109CA0000C0000180C0000180C0000180C00001824
:109CB0000C0000180FE0001FFC0003F80C00001857
:109CC0000C0000180C000000000000000000000064
:109CD0000000000000000000000000000000000084
:109CE0000000000000000000000000000000000074
:109CF0000000000000000000000000000000000064
:109D00000000000000000000000000000000000053
:109D1000000000000780007807C000FC0640010E2C
:109D2000002003070020020380200FFFFFFC020138
:109D3000C0200200E0600130704001F03F8000F080
:109D40001F000000000000000000000000000000F4
:109D50000000000000000000000000000000000003
:109D600000000000000000000000000000000000F3
:109D700000000000000000000000000000000000E3
:109D80000000000000000000000000FE000001FFD5
:109D900000000301800002008060030181C001FF18
:109DA000070000FE18000000E0000003BF00000CE8
:109DB000FFC00071806001C10020030180600000CD
:109DC000FFC000003F000000000000000000000095
:109DD0000000000000000000000000000000000083
:109DE0000000000000000000000000000000000073
:109DF0000000000000000000000000000000000063
:109E00000000000000000000000000001F00000033
:109E10007FC000FCC0C001FF80600303E02002029D
:109E2000782002061E2003FC074001F00380000199
:109E300003C000011C600001E020000100200001BF
:109E40000040000001800000000000000000000051
:109E50000000000000000000000000000000000002
:109E600000000000000000000000000000000000F2
:109E700000000000000000000000000000000000E2
:109E800000000000000000000000000000000020B2
:109E900000001C6000001C4000001F8000000F003C
:109EA00000000000000000000000000000000000B2
:109EB00000000000000000000000000000000000A2
:109EC0000000000000000000000000000000000092
:109ED0000000000000000000000000000000000082
:109EE0000000000000000000000000000000000072
:109EF0000000000000000000000000000000000062
:109F00000000000000000000000000000000000051
:109F10000000000000000000000000000000000041
:109F20000000000000000007F800003FFF0000787C
:109F300007C001C000E00300003004000008080072
:109F400000041000000200000000000000000000FB
:109F50000000000000000000000000000000000001
:109F600000000000000000000000000000000000F1
:109F700000000000000000000000000000000000E1
:109F800000000000000000000000000000001000C1
:109F9000000208000004040000080300003001C0B3
:109FA00000E0007807C0003FFF000007F800000055
:109FB00000000000000000000000000000000000A1
:109FC0000000000000000000000000000000000091
:109FD0000000000000000000000000000000000081
:109FE0000000000000000000000000000000000071
:109FF0000000000000000000000000000000000061
:10A000000000000000000000000000000000000050
:10A010000000000C1800000E3800000E380000068A
:10A020003000000360000061438000FFFF8000619A
:10A0300043000003600000063000000E3800000EF0
:10A040003800000C180000000000000000000000B4
:10A050000000000000000000000000000000000000
:10A0600000000000000000000000000000000000F0
:10A0700000000000000000000000000000000000E0
:10A0800000000000000000000000000000000000D0
:10A090000000000080000000800000008000000040
:10A0A00080000000800000008000007FFF000000B2
:10A0B00080000000800000008000000080000000A0
:10A0C0008000000080000000000000000000000090
:10A0D0000000000000000000000000000000000080
:10A0E0000000000000000000000000000000000070
:10A0F0000000000000000000000000000000000060
:10A10000000000000000000000000000000000004F
:10A110000001000000E3000000E2000000FC00007D
:10A1200000780000000000000000000000000000B7
:10A13000000000000000000000000000000000001F
:10A14000000000000000000000000000000000000F
:10A1500000000000000000000000000000000000FF
:10A1600000000000000000000000000000000000EF
:10A1700000000000000000000000000000000000DF
:10A1800000000000000000000000000000000000CF
:10A1900080000000800000008000000080000000BF
:10A1A00080000000800000008000000080000000AF
:10A1B000800000008000000080000000800000009F
:10A1C000800000008000000000000000000000008F
:10A1D000000000000000000000000000000000007F
:10A1E000000000000000000000000000000000006F
:10A1F000000000000000000000000000000000005F
:10A20000000000000000000000000000000000004E
:10A210000000000000C0000001E0000001E00000BC
:10A2200000C000000000000000000000000000006E
:10A23000000000000000000000000000000000001E
:10A24000000000000000000000000000000000000E
:10A2500000000000000000000000000000000000FE
:10A2600000000000000000000000000000000000EE
:10A2700000000000000000000000000000000000DE
:10A2800000000000000000000000000000000000CE
:10A29000000C00000038000000E000000380000017
:10A2A0000E00000038000000E00000038000000EF7
:10A2B00000000038000000E00000038000000E00F5
:10A2C0000000180000000000000000000000000076
:10A2D000000000000000000000000000000000007E
:10A2E000000000000000000000000000000000006E
:10A2F000000000000000000000000000000000005E
:10A30000000000000000000000000000000000004D
:10A310000000000FF800007FFF0000F007800180C0
:10A3200000C00300006002000020020000200200C4
:10A33000002003000060018000C000E00380007F77
:10A34000FF00000FF8000000000000000000000007
:10A3500000000000000000000000000000000000FD
:10A3600000000000000000000000000000000000ED
:10A3700000000000000000000000000000000000DD
:10A3800000000000000000000000000000000000CD
:10A3900000000000000000800020008000200080FD
:10A3A00000200080006001FFFFE003FFFFE00000ED
:10A3B00000600000002000000020000000200000DD
:10A3C000000000000000000000000000000000008D
:10A3D000000000000000000000000000000000007D
:10A3E000000000000000000000000000000000006D
:10A3F000000000000000000000000000000000005D
:10A40000000000000000000000000000000000004C
:10A410000000007800E00098016001000260020086
:10A420000460020008600200106002002060020068
:10A430004060030080600183006001FE00E0007C5A
:10A440000780000000000000000000000000000085
:10A4500000000000000000000000000000000000FC
:10A4600000000000000000000000000000000000EC
:10A4700000000000000000000000000000000000DC
:10A4800000000000000000000000000000000000CC
:10A49000000000F0078001F007C00100004002004A
:10A4A000002002010020020100200201002003031D
:10A4B00080200186804001FCC0C000787F800000C1
:10A4C0001E0000000000000000000000000000006E
:10A4D000000000000000000000000000000000007C
:10A4E000000000000000000000000000000000006C
:10A4F000000000000000000000000000000000005C
:10A50000000000000000000000000000000000004B
:10A510000800000038000000480000018800000624
:10A520000800000C0810003008100040081001FF5F
:10A53000FFF003FFFFF003FFFFF000000810000032
:10A5400008100000081000000000000000000000DB
:10A5500000000000000000000000000000000000FB
:10A5600000000000000000000000000000000000EB
:10A5700000000000000000000000000000000000DB
:10A5800000000000000000000000000000000000CB
:10A59000000000000780001F864003E10020030246
:10A5A000002003040020030400200304002003040F
:10A5B000002003060040030301C00301FF800300E5
:10A5C0007E0000000000000000000000000000000D
:10A5D000000000000000000000000000000000007B
:10A5E000000000000000000000000000000000006B
:10A5F000000000000000000000000000000000005B
:10A60000000000000000000000000000000000004A
:10A6100000000007FC00003FFF000070C3800081C5
:10A6200080C001010060030200200202002002023B
:10A630000020020200200203004001C180C000C0CF
:10A64000FF8000007E00000000000000000000000D
:10A6500000000000000000000000000000000000FA
:10A6600000000000000000000000000000000000EA
:10A6700000000000000000000000000000000000DA
:10A6800000000000000000000000000000000000CA
:10A69000000000F0000003C0000003800000030081
:10A6A0000000030007E003003FE00301C0000306D1
:10A6B0000000031800000360000003800000030096
:10A6C000000000000000000000000000000000008A
:10A6D000000000000000000000000000000000007A
:10A6E000000000000000000000000000000000006A
:10A6F000000000000000000000000000000000005A
:10A700000000000000000000000000000000000049
:10A710001F0000783F8000FC60C0018EC04003072E
:10A72000802002030020020180200201802002011B
:10A73000C0200301E040018670C000FC3F8000782B
:10A740001F000000000000000000000000000000EA
:10A7500000000000000000000000000000000000F9
:10A7600000000000000000000000000000000000E9
:10A7700000000000000000000000000000000000D9
:10A780000000000000000000000000000000003F8A
:10A79000000000FF81C001C0C1C0010060200200B4
:10A7A0002020020020200200202002002060020061
:10A7B00040C00100C18000C18F00007FFE00001F6B
:10A7C000F000000000000000000000000000000099
:10A7D0000000000000000000000000000000000079
:10A7E0000000000000000000000000000000000069
:10A7F0000000000000000000000000000000000059
:10A800000000000000000000000000000000000048
:10A810000000000000000000000000000000000038
:10A820000000000300C0000781E0000781E0000392
:10A8300000C0000000000000000000000000000058
:10A840000000000000000000000000000000000008
:10A8500000000000000000000000000000000000F8
:10A8600000000000000000000000000000000000E8
:10A8700000000000000000000000000000000000D8
:10A8800000000000000000000000000000000000C8
:10A8900000000000000000000000000000000000B8
:10A8A00000000006006600060078000000000000BE
:10A8B0000000000000000000000000000000000098
:10A8C0000000000000000000000000000000000088
:10A8D0000000000000000000000000000000000078
:10A8E0000000000000000000000000000000000068
:10A8F0000000000000000000000000000000000058
:10A900000000000000000000000000000000000047
:10A910000000000080000001C0000003600000068D
:10A920003000000C180000180C0000300600006019
:10A93000030000C00180010000400200002004006C
:10A9400000100000000000000000000000000000F7
:10A9500000000000000000000000000000000000F7
:10A9600000000000000000000000000000000000E7
:10A9700000000000000000000000000000000000D7
:10A9800000000000000000000000000000000004C3
:10A990001000000410000004100000041000000467
:10A9A0001000000410000004100000041000000457
:10A9B0001000000410000004100000041000000447
:10A9C0001000000410000000000000000000000063
:10A9D0000000000000000000000000000000000077
:10A9E0000000000000000000000000000000000067
:10A9F0000000000000000000000000000000000057
:10AA00000000000000000000000000000000000046
:10AA1000000004000010020000200100004000C0FF
:10AA20000180006003000030060000180C00000CDC
:10AA3000180000063000000360000001C0000000A4
:10AA40008000000000000000000000000000000086
:10AA500000000000000000000000000000000000F6
:10AA600000000000000000000000000000000000E6
:10AA700000000000000000000000000000000000D6
:10AA800000000000000000000000000000000000C6
:10AA900000000078000001F8000002380000020009
:10AAA0000000040000C0040079E0040081E004011B
:10AAB00000C004030000020200000306000001FCC5
:10AAC000000000F80000000000000000000000008E
:10AAD0000000000000000000000000000000000076
:10AAE0000000000000000000000000000000000066
:10AAF0000000000000000000000000000000000056
:10AB00000000000000000000000000000000000F36
:10AB1000F800003FFE000070078000C000C0010187
:10AB2000F8400307FC20021E042002300820022007
:10AB30003020023FFC20013F044001800CC000E0B7
:10AB40003180001FC2000000000000000000000073
:10AB500000000000000000000000000000000000F5
:10AB600000000000000000000000000000000000E5
:10AB700000000000000000000000000000000000D5
:10AB800000000000000000000000000000200000A5
:10AB90000060000003E000003E200003E020003ED3
:10ABA000200003E020000380200007FC2000003F7D
:10ABB000E0000003FE2000003FE0000001E0000094
:10ABC0000020000000200000000000000000000045
:10ABD0000000000000000000000000000000000075
:10ABE0000000000000000000000000000000000065
:10ABF0000000000000000000000000000000000055
:10AC00000000000000000000000000000000020042
:10AC100000200200002003FFFFE003FFFFE002012D
:10AC20000020020100200201002002010020020198
:10AC30000020030300200186806001FCC0C000F8F2
:10AC40007F8000001F0000000000000000000000E6
:10AC500000000000000000000000000000000000F4
:10AC600000000000000000000000000000000000E4
:10AC700000000000000000000000000000000000D4
:10AC800000000000000000000000000000000007BD
:10AC9000F800003FFF000070078000C000C0010006
:10ACA00000400300002002000020020000200200FB
:10ACB00000200200002001000040018000C003C00D
:10ACC00001800030060000000000000000000000CD
:10ACD0000000000000000000000000000000000074
:10ACE0000000000000000000000000000000000064
:10ACF0000000000000000000000000000000000054
:10AD00000000000000000000000000000000020041
:10AD100000200200002003FFFFE003FFFFE002002D
:10AD2000002002000020020000200200002003009A
:10AD3000006001000040018000C000F00780007F3B
:10AD4000FE00000FF80000000000000000000000FE
:10AD500000000000000000000000000000000000F3
:10AD600000000000000000000000000000000000E3
:10AD700000000000000000000000000000000000D3
:10AD800000000000000000000000000000000200C1
:10AD900000200200002003FFFFE003FFFFE00201AC
:10ADA0000020020100200201002002010020020117
:10ADB000002002038020020FE0200300006003C097
:10ADC00000E0006003000000000000000000000040
:10ADD0000000000000000000000000000000000073
:10ADE0000000000000000000000000000000000063
:10ADF0000000000000000000000000000000000053
:10AE00000000000000000000000000000000020040
:10AE100000200200002003FFFFE003FFFFE002012B
:10AE200000200201002002010000020100000201D6
:10AE300000000201000002038000030FE000030095
:10AE4000000003C0000000600000000000000000DF
:10AE500000000000000000000000000000000000F2
:10AE600000000000000000000000000000000000E2
:10AE700000000000000000000000000000000000D2
:10AE800000000000000000000000000000000007BB
:10AE9000F800003FFE000070078001C001C0010003
:10AEA00000400300002002000020020000200200F9
:10AEB0000020010020200100204003C03F8000301E
:10AEC0003F80000020000000200000000000000083
:10AED0000000000000000000000000000000000072
:10AEE0000000000000000000000000000000000062
:10AEF0000000000000000000000000000000000052
:10AF0000000000000000000000000200002002001D
:10AF1000002003FFFFE003FFFFE0020080200200AB
:10AF200080200000800000008000000080000200FF
:10AF300080200200802003FFFFE003FFFFE002000B
:10AF400000200200002000000000000000000000BF
:10AF500000000000000000000000000000000000F1
:10AF600000000000000000000000000000000000E1
:10AF700000000000000000000000000000000000D1
:10AF800000000000000000000000000000000000C1
:10AF9000000000000000020000200200002002006B
:10AFA00000200200002003FFFFE003FFFFE002009B
:10AFB000002002000020020000200200002000000B
:10AFC0000000000000000000000000000000000081
:10AFD0000000000000000000000000000000000071
:10AFE0000000000000000000000000000000000061
:10AFF0000000000000000000000000000000000051
:10B000000000000000000000000000000000000040
:10B01000000E0000000F0000000F00000001020001
:10B02000000102000001020000030200000603FF0D
:10B03000FFFC03FFFFF80200000002000000020016
:10B0400000000200000000000000000000000000FE
:10B0500000000000000000000000000000000000F0
:10B0600000000000000000000000000000000000E0
:10B0700000000000000000000000000000000000D0
:10B0800000000000000000000000000000000200BE
:10B0900000200200002003FFFFE003FFFFE00200AA
:10B0A000C0200201002000078000000FE0000030F7
:10B0B000F80002603E2003800F20030003E002003E
:10B0C00000E002000020000000200000000000005E
:10B0D0000000000000000000000000000000000070
:10B0E0000000000000000000000000000000000060
:10B0F0000000000000000000000000000000000050
:10B10000000000000000000000000000000002003D
:10B1100000200200002003FFFFE003FFFFE0020029
:10B12000002002000020000000200000002000009D
:10B13000002000000020000000200000006000004F
:10B1400000E000000300000000000000000000001C
:10B1500000000000000000000000000000000000EF
:10B1600000000000000000000000000000000000DF
:10B1700000000000000000000000000000000000CF
:10B18000000000000000000000000200002002009B
:10B19000002003FFFFE003E0002003FF0020001F6A
:10B1A000F0000001FF8000000FE000001E0000031F
:10B1B000E000003E002003E0002003FFFFE003FF6B
:10B1C000FFE002000020020000200000000000005C
:10B1D000000000000000000000000000000000006F
:10B1E000000000000000000000000000000000005F
:10B1F000000000000000000000000000000000004F
:10B20000000000000000000000000200002002001A
:10B21000002003FFFFE00380002003F0002000FC7B
:10B220000000001F00000007C0000001F000000047
:10B230007C0002001F80020007E003FFFFE0020025
:10B2400000000200000000000000000000000000FC
:10B2500000000000000000000000000000000000EE
:10B2600000000000000000000000000000000000DE
:10B2700000000000000000000000000000000000CE
:10B280000000000000000000000000000000000FAF
:10B29000F800003FFE0000F00780018000C00100C0
:10B2A00000400200002002000020020000200200F6
:10B2B000002001000040018000C000F00380003F3A
:10B2C000FE00000FF8000000000000000000000079
:10B2D000000000000000000000000000000000006E
:10B2E000000000000000000000000000000000005E
:10B2F000000000000000000000000000000000004E
:10B30000000000000000000000000000000002003B
:10B3100000200200002003FFFFE003FFFFE0020027
:10B3200080200200802002008000020080000200D5
:10B33000800002008000030180000183000000FE05
:10B340000000007C00000000000000000000000081
:10B3500000000000000000000000000000000000ED
:10B3600000000000000000000000000000000000DD
:10B3700000000000000000000000000000000000CD
:10B380000000000000000000000000000000000FAE
:10B39000F800007FFF0000F00380018001C0010081
:10B3A00006400200042002000420020006200200E1
:10B3B00003E0010000F80180005C00E0038C003F26
:10B3C000FF0C000FFC18000000000000000000004F
:10B3D000000000000000000000000000000000006D
:10B3E000000000000000000000000000000000005D
:10B3F000000000000000000000000000000000004D
:10B40000000000000000000000000000000002003A
:10B4100000200200002003FFFFE003FFFFE0020125
:10B42000002002010020020180000201E000020170
:10B43000FC0003033F80018607E001FC00E000F808
:10B4400000200000002000000000000000000000BC
:10B4500000000000000000000000000000000000EC
:10B4600000000000000000000000000000000000DC
:10B4700000000000000000000000000000000000CC
:10B4800000000000000000000000000000000000BC
:10B4900000000078060000FE01E0018600C0030302
:10B4A00000400203002002018020020180200201EE
:10B4B000C0200200C0200100E060018070C003E0F5
:10B4C0003F8000001F00000000000000000000009E
:10B4D000000000000000000000000000000000006C
:10B4E000000000000000000000000000000000005C
:10B4F000000000000000000000000000000000004C
:10B5000000000000000000000000000000000060DB
:10B5100000000380000003000000020000000200A1
:10B5200000200200002003FFFFE003FFFFE0020015
:10B530000020020000200200000002000000038042
:10B54000000000E00000000000000000000000001B
:10B5500000000000000000000000000000000000EB
:10B5600000000000000000000000000000000000DB
:10B5700000000000000000000000000000000000CB
:10B5800000000000000000000000020000000200B7
:10B59000000003FFFF0003FFFFC0020000400200A5
:10B5A00000600000002000000020000000200000DB
:10B5B0000020020000400200008003FFFF000200A4
:10B5C0000000020000000000000000000000000079
:10B5D000000000000000000000000000000000006B
:10B5E000000000000000000000000000000000005B
:10B5F000000000000000000000000000000000004B
:10B600000000000000000000000000000000020038
:10B6100000000200000003C0000003FC0000023F25
:10B62000C0000003F80000007F80000007E0000079
:10B630000780000078000203C000023C000003C045
:10B6400000000200000002000000000000000000F6
:10B6500000000000000000000000000000000000EA
:10B6600000000000000000000000000000000000DA
:10B6700000000000000000000000000000000000CA
:10B68000000000000000000000000200000003C0F5
:10B69000000003FF8000023FFE0002007FE0000088
:10B6A0000F000200F00003EF000003FF8000020F14
:10B6B000FE0000003FE000001F000207E00003F86A
:10B6C0000000030000000200000000000000000075
:10B6D000000000000000000000000000000000006A
:10B6E000000000000000000000000000000000005A
:10B6F000000000000000000000000000000000004A
:10B700000000000000000000000000000000020037
:10B71000002002000020038000E003F0032002FC70
:10B720000C20021F30000007C0000007F0000218C4
:10B730007C0002601F20038003E0020000E00200A2
:10B7400000200000002000000000000000000000B9
:10B7500000000000000000000000000000000000E9
:10B7600000000000000000000000000000000000D9
:10B7700000000000000000000000000000000000C9
:10B7800000000000000000000000000000000200B7
:10B7900000000300000003C0000003F80000023EA8
:10B7A0000020020FC0200001FFE000007FE0000346
:10B7B0008020021C002002700000038000000200B4
:10B7C0000000020000000000000000000000000077
:10B7D0000000000000000000000000000000000069
:10B7E0000000000000000000000000000000000059
:10B7F0000000000000000000000000000000000049
:10B800000000000000000000000000000000000038
:10B810000020006000E0038003E003000FA00200AE
:10B820003E200200F8200203E020020F8020023EAA
:10B8300000200278002003E00060038000E00200A6
:10B8400003000000000000000000000000000000F5
:10B8500000000000000000000000000000000000E8
:10B8600000000000000000000000000000000000D8
:10B8700000000000000000000000000000000000C8
:10B8800000000000000000000000000000000000B8
:10B8900000000000000000000000000000000000A8
:10B8A00000001FFFFFFC1000000410000004100047
:10B8B0000004100000041000000410000004100038
:10B8C0000004000000000000000000000000000074
:10B8D0000000000000000000000000000000000068
:10B8E0000000000000000000000000000000000058
:10B8F0000000000000000000000000000000000048
:10B900000000000000000000000000000000000037
:10B910000000000000000700000003C000000078E5
:10B920000000001E00000003C0000000F000000046
:10B930001E0000000780000000F00000003C000036
:10B9400000060000000000000000000000000000F1
:10B9500000000000000000000000000000000000E7
:10B9600000000000000000000000000000000000D7
:10B9700000000000000000000000000000000000C7
:10B9800000000000000000000000000000000000B7
:10B99000000010000004100000041000000410005B
:10B9A00000041000000410000004100000041FFF39
:10B9B000FFFC00000000000000000000000000008C
:10B9C0000000000000000000000000000000000077
:10B9D0000000000000000000000000000000000067
:10B9E0000000000000000000000000000000000057
:10B9F0000000000000000000000000000000000047
:10BA00000000000000000000000000000000000036
:10BA10000000000000000000000002000000040020
:10BA200000000800000018000000100000001800CE
:10BA300000001800000004000000020000000000E8
:10BA400000000000000000000000000000000000F6
:10BA500000000000000000000000000000000000E6
:10BA600000000000000000000000000000000000D6
:10BA700000000000000000000000000000000000C6
:10BA800000000000000000000000000000010000B5
:10BA900000010000000100000001000000010000A2
:10BAA0000001000000010000000100000001000092
:10BAB0000001000000010000000100000001000082
:10BAC0000001000000010000000100000000000073
:10BAD0000000000000000000000000000000000066
:10BAE0000000000000000000000000000000000056
:10BAF0000000000000000000000000000000000046
:10BB00000000000000000000000000000000000035
:10BB100000000000000010000000100000001000F5
:10BB200000001800000008000000040000000000F1
:10BB30000000000000000000000000000000000005
:10BB400000000000000000000000000000000000F5
:10BB500000000000000000000000000000000000E5
:10BB600000000000000000000000000000000000D5
:10BB700000000000000000000000000000000000C5
:10BB800000000000000000000000000000000000B5
:10BB9000038000018FC000038C60000618200004A1
:10BBA0001020000410200004202000042040000683
:10BBB00020400003FFC00001FFE000000020000063
:10BBC0000020000000C00000000000000000000095
:10BBD0000000000000000000000000000000000065
:10BBE0000000000000000000000000000000000055
:10BBF0000000000000000000000000000000000045
:10BC00000000000000000000000000000000020032
:10BC100000000200000003FFFFE007FFFFC000017B
:10BC200080C0000200600002002000040020000428
:10BC300000200004002000060040000300C00001B6
:10BC4000FF800000FE000000000000000000000077
:10BC500000000000000000000000000000000000E4
:10BC600000000000000000000000000000000000D4
:10BC700000000000000000000000000000000000C4
:10BC800000000000000000000000000000000000B4
:10BC9000000000007E000001FF80000381C0000260
:10BCA00000400006002000040020000400200004E2
:10BCB0000020000600200003C0400001C0800000FA
:10BCC0000300000000000000000000000000000071
:10BCD0000000000000000000000000000000000064
:10BCE0000000000000000000000000000000000054
:10BCF0000000000000000000000000000000000044
:10BD00000000000000000000000000000000000033
:10BD1000000000007E000001FF80000380C00006DC
:10BD20000060000400200004002000040020020441
:10BD300000400202008003FFFFE007FFFFC0000099
:10BD40000040000000400000000000000000000073
:10BD500000000000000000000000000000000000E3
:10BD600000000000000000000000000000000000D3
:10BD700000000000000000000000000000000000C3
:10BD800000000000000000000000000000000000B3
:10BD9000000000007E000001FF80000311C00002CF
:10BDA0001040000410600004102000041020000463
:10BDB000102000061020000310400001F0C0000019
:10BDC0007100000000000000000000000000000002
:10BDD0000000000000000000000000000000000063
:10BDE0000000000000000000000000000000000053
:10BDF0000000000000000000000000000000000043
:10BE00000000000000000000000000000000000032
:10BE100000000004000000040020000400200004D2
:10BE20000020007FFFE001FFFFE001040020030489
:10BE3000002002040020020400200204000002008E
:10BE4000000001C0000001C0000000000000000070
:10BE500000000000000000000000000000000000E2
:10BE600000000000000000000000000000000000D2
:10BE700000000000000000000000000000000000C2
:10BE800000000000000000000000000000000000B2
:10BE900000000000001C0000E33E0003FFC200029F
:10BEA0000CC3000404C1000404C1000404C1000464
:10BEB00004C100060CC10003F8C30005F0620006CF
:10BEC000007E0006003C00000000000000000000B2
:10BED0000000000000000000000000000000000062
:10BEE0000000000000000000000000000000000052
:10BEF0000000000000000000000000000000000042
:10BF0000000000000000000000000000000002002F
:10BF100000200200002003FFFFE007FFFFE0000118
:10BF200000200002002000060000000400000004C1
:10BF3000000000040020000600200003FFE00001D4
:10BF4000FFE00000002000000020000000000000D2
:10BF500000000000000000000000000000000000E1
:10BF600000000000000000000000000000000000D1
:10BF700000000000000000000000000000000000C1
:10BF800000000000000000000000000000000000B1
:10BF90000000000000000004002000040020000455
:10BFA0000020000400200387FFE0038FFFE00380F0
:10BFB0000020000000200000002000000020000001
:10BFC0000000000000000000000000000000000071
:10BFD0000000000000000000000000000000000061
:10BFE0000000000000000000000000000000000051
:10BFF0000000000000000000000000000000000041
:10C000000000000000000000000000000000000030
:10C010000000000000000000000600000007000013
:10C020000001000000010004000100040001000400
:10C030000003000400060387FFFC038FFFF8038062
:10C0400000000000000000000000000000000000F0
:10C0500000000000000000000000000000000000E0
:10C0600000000000000000000000000000000000D0
:10C0700000000000000000000000000000000000C0
:10C0800000000000000000000000000000000200AE
:10C0900000200200002003FFFFE007FFFFE0000098
:10C0A000082000001020000030000000FC00000507
:10C0B0008E00000707A0000601E0000400E0000475
:10C0C0000020000000200000000000000000000030
:10C0D0000000000000000000000000000000000060
:10C0E0000000000000000000000000000000000050
:10C0F0000000000000000000000000000000000040
:10C10000000000000000000000000000000000002F
:10C1100000000000000002000020020000200200D9
:10C1200000200200002003FFFFE007FFFFE0000007
:10C13000002000000020000000200000002000007F
:10C1400000000000000000000000000000000000EF
:10C1500000000000000000000000000000000000DF
:10C1600000000000000000000000000000000000CF
:10C1700000000000000000000000000000000000BF
:10C1800000000000000000000000000000000004AB
:10C1900000200007FFE0000FFFE000020020000485
:10C1A0000000000400200007FFE00003FFE00002A1
:10C1B000002000040000000400200007FFE000034E
:10C1C000FFE0000000200000000000000000000070
:10C1D000000000000000000000000000000000005F
:10C1E000000000000000000000000000000000004F
:10C1F000000000000000000000000000000000003F
:10C20000000000000000000000000000000000042A
:10C210000020000400200007FFE0000FFFE0000105
:10C2200000200002002000020000000400000004C2
:10C23000000000040020000600200003FFE00001D1
:10C24000FFE00000002000000020000000000000CF
:10C2500000000000000000000000000000000000DE
:10C2600000000000000000000000000000000000CE
:10C2700000000000000000000000000000000000BE
:10C2800000000000000000000000000000000000AE
:10C29000000000007E000000FF80000381C000025B
:10C2A00000400006002000040020000400200004DC
:10C2B00000200006002000020040000381C00001B1
:10C2C000FF8000007E000000000000000000000071
:10C2D000000000000000000000000000000000005E
:10C2E000000000000000000000000000000000004E
:10C2F000000000000000000000000000000000003E
:10C300000000000000000000000000000000000429
:10C310000001000400010007FFFF000FFFFF000104
:10C3200000C10002004100040020000400200004BD
:10C3300000200004002000060040000301C00001AE
:10C34000FF8000007E0000000000000000000000F0
:10C3500000000000000000000000000000000000DD
:10C3600000000000000000000000000000000000CD
:10C3700000000000000000000000000000000000BD
:10C3800000000000000000000000000000000000AD
:10C39000000000007E000001FF80000380C000025A
:10C3A00000600004002000040020000400200004BD
:10C3B000002000020041000300C10003FFFF00074E
:10C3C000FFFF00000001000000010000000000006D
:10C3D000000000000000000000000000000000005D
:10C3E000000000000000000000000000000000004D
:10C3F000000000000000000000000000000000003D
:10C400000000000000000000000000000000000428
:10C410000020000400200004002000040020000F81
:10C42000FFE0000FFFE00000C0200001002000023C
:10C4300000200006002000040000000400000007A7
:10C4400000000003000000000000000000000000E9
:10C4500000000000000000000000000000000000DC
:10C4600000000000000000000000000000000000CC
:10C4700000000000000000000000000000000000BC
:10C4800000000000000000000000000000000000AC
:10C490000000000003E00001C0E00003E0400006EF
:10C4A000302000043020000418200004182000046C
:10C4B000182000040C2000020C60000307C00007D5
:10C4C0008380000000000000000000000000000069
:10C4D000000000000000000000000000000000005C
:10C4E000000000000000000000000000000000004C
:10C4F000000000000000000000000000000000003C
:10C50000000000000000000000000000000000002B
:10C510000000000400000004000000040000000C03
:10C520000000001FFF8000FFFFC000040060000447
:10C53000002000040020000400200004004000004F
:10C54000018000000000000000000000000000006A
:10C5500000000000000000000000000000000000DB
:10C5600000000000000000000000000000000000CB
:10C5700000000000000000000000000000000000BB
:10C5800000000000000000000000000000000004A7
:10C590000000000400000007FF80000FFFC0000043
:10C5A00000600000002000000020000000200000CB
:10C5B000002000040040000400800007FFE0000F9E
:10C5C000FFC000000040000000400000000000002C
:10C5D000000000000000000000000000000000005B
:10C5E000000000000000000000000000000000004B
:10C5F000000000000000000000000000000000003B
:10C600000000000000000000000000000000000426
:10C61000000000040000000780000007F000000494
:10C62000FE0000041FC0000003E0000003800000C3
:10C630001C000004600000078000000600000004E9
:10C6400000000000000000000000000000000000EA
:10C6500000000000000000000000000000000000DA
:10C6600000000000000000000000000000000000CA
:10C6700000000000000000000000000000000000BA
:10C6800000000000000000000000000400000006A0
:10C6900000000007C0000007FC0000043F8000000D
:10C6A00003E000040F800006F0000007F000000720
:10C6B000FF8000040FE00000038000043C0000073E
:10C6C000C0000006000000040000000000000000A0
:10C6D000000000000000000000000000000000005A
:10C6E000000000000000000000000000000000004A
:10C6F000000000000000000000000000000000003A
:10C700000000000000000000000000000000000029
:10C7100000200004002000040060000700E0000783
:10C7200083200007E6000004F80000003C0000043D
:10C730005E20000587A0000601E000040060000400
:10C7400000200000002000000000000000000000A9
:10C7500000000000000000000000000000000000D9
:10C7600000000000000000000000000000000000C9
:10C7700000000000000000000000000000000000B9
:10C7800000000000000000000000000000000004A5
:10C79000000000040003000700030007E00100049C
:10C7A000F80100041F02000007FC000000E0000088
:10C7B0000700000438000007C00000060000000465
:10C7C0000000000400000000000000000000000065
:10C7D0000000000000000000000000000000000059
:10C7E0000000000000000000000000000000000049
:10C7F0000000000000000000000000000000000039
:10C800000000000000000000000000000000000028
:10C81000000000078060000600E0000403E0000460
:10C8200007A000040E2000043C2000047020000536
:10C83000E0200007802000070060000400E0000006
:10C840000380000000000000000000000000000065
:10C8500000000000000000000000000000000000D8
:10C8600000000000000000000000000000000000C8
:10C8700000000000000000000000000000000000B8
:10C8800000000000000000000000000000000000A8
:10C890000000000000000000000000000000000098
:10C8A0000000000000000000800000008000000187
:10C8B000400007FE3FF808000004100000021000CE
:10C8C0000002000000000000000000000000000066
:10C8D0000000000000000000000000000000000058
:10C8E0000000000000000000000000000000000048
:10C8F0000000000000000000000000000000000038
:10C900000000000000000000000000000000000027
:10C910000000000000000000000000000000000017
:10C9200000000000000000000000FFFFFFFF00000B
:10C9300000000000000000000000000000000000F7
:10C9400000000000000000000000000000000000E7
:10C9500000000000000000000000000000000000D7
:10C9600000000000000000000000000000000000C7
:10C9700000000000000000000000000000000000B7
:10C9800000000000000000000000000000000000A7
:10C99000000010000002100000020800000407FE62
:10C9A0003FF800014000000080000000800000000F
:10C9B0000000000000000000000000000000000077
:10C9C0000000000000000000000000000000000067
:10C9D0000000000000000000000000000000000057
:10C9E0000000000000000000000000000000000047
:10C9F0000000000000000000000000000000000037
:10CA0000000000000000000000000000000018000E
:10CA10000000300000004000000040000000400026
:10CA200000002000000030000000080000000400AA
:10CA300000000200000002000000020000000C00E4
:10CA400000001800000000000000000000000000CE
:10CA500000000000000000000000000000000000D6
:10CA600000000000000000000000000000000000C6
:10CA700000000000000000000000000000000000B6
:10CA800000000000000000000000030009000F008B
:10CA900015001B0060E001200305350002081E0898
:10CAA000503C0F050000FF67500000181A1E148943
:10CAB000280A302EBB0A03000002331D00000000CC
:10CAC0000000003200002A1C5A94C5020700000032
:10CAD000B51F00902800773200623F00525000528C
:10CAE0000000000000000000000000000000000046
:10CAF000000000000000000F0F03061042F80F14A2
:10CB0000000000001A18161412100E0C0A0800007B
:10CB10000000000000000000000000000000000015
:10CB2000000029282422201F1E1D0E0C0A080605BD
:10CB3000040200FF0000000000000000000000FFF1
:10CB4000FFFFFFFFFFFFFFFFFFFFFFFF5081588147
:10CB500060816881708100010005001000140018D8
:10CB6000A0CB0008303132333435363738394142C2
:10CB7000434445464030580030313233343536373F
:10CB800038396162636465664030780004000008EB
:10CB90000000000000000002000100001000000082
:10CBA000506C6561736520757365207468652073CA
:10CBB00074796C757320636C69636B20746865208D
:10CBC00063726F7373206F6E207468652073637275
:10CBD00065656E2E5468652063726F737320776984
:10CBE0006C6C20616C77617973206D6F7665207550
:10CBF0006E74696C207468652073637265656E205D
:10CC000061646A7573746D656E7420697320636FF7
:10CC10006D706C657465642E000000003F000000BC
:10CC2000646563006964000072756E74696D650007
:10CC300068656C70000000006C697374000000008F
:10CC400068657800766F69642077726974655F61E2
:10CC50006464722875333220616464722C753332D7
:10CC60002076616C290000007533322072656164A2
:10CC70005F616464722875333220616464722900D4
:10CC8000766F69642064656C61795F6D73287531B6
:10CC900036206E6D73290000766F69642064656CC0
:10CCA00061795F757328753332206E7573290000C2
:10CCB000D0CC00080000002088010000C40100085A
:10CCC00034CD000888010020080800002002000878
:10CCD00011031424F42AFF01320123D090131D5DA7
:10CCE0001408496014088556022808131CCC1B0838
:10CCF00030041A38041A24041A40041A20041A288A
:10CD00000413156A1B08680813ED792B08441012E8
:10CD1000671B0880081A31081A98082274142045E5
:10CD2000711B08F12813856B1B08A50C2204298FA1
:04CD300001D9000025
:040000050800018965
:00000001FF
