:020000040800F2
:10000000901C002099020008254F0008C31D00081D
:10001000214F0008CB0800083D59000800000000EF
:10002000000000000000000000000000FD5000087B
:100030000D09000800000000274F0008CD510008FE
:10004000B3020008B3020008B3020008B3020008BC
:10005000B3020008B3020008B3020008B3020008AC
:10006000B3020008B3020008B3020008B30200089C
:10007000B3020008B3020008B3020008B30200088C
:10008000B3020008B3020008B3020008B30200087C
:10009000B3020008B3020008B3020008B30200086C
:1000A000B3020008B3020008B3020008B30200085C
:1000B000B3020008B302000839520008B302000876
:1000C000B3020008B3020008B3020008B30200083C
:1000D000B3020008ED580008B3020008B30200089C
:1000E000B3020008B3020008B3020008B30200081C
:1000F000B3020008B3020008B3020008B30200080C
:10010000B3020008B3020008B3020008B3020008FB
:10011000B3020008B3020008B3020008B3020008EB
:10012000B3020008B3020008B3020008B3020008DB
:10013000B3020008B3020008B3020008B3020008CB
:10014000B3020008B3020008B3020008B3020008BB
:10015000B3020008B3020008B3020008B3020008AB
:10016000B3020008B3020008B3020008B30200089B
:10017000B3020008B3020008B30200080000000048
:10018000B3020008B302000800F002F800F06DF8B6
:100190000AA090E8000C82448344AAF10107DA45E2
:1001A00001D100F062F8AFF2090EBAE80F0013F0C7
:1001B000010F18BFFB1A43F001031847DCB9000018
:1001C000FCB900000A444FF0000C10F8013B13F09A
:1001D000070408BF10F8014B1D1108BF10F8015BA0
:1001E000641E05D010F8016B641E01F8016BF9D193
:1001F00013F0080F1EBF10F8014BAD1C0C1B09D1EA
:100200006D1E58BF01F801CBFAD505E014F8016B5B
:1002100001F8016B6D1EF9D59142D6D370470000ED
:100220000023002400250026103A28BF78C1FBD8FF
:10023000520728BF30C148BF0B607047642900F0E7
:100240001F81752900F01C81782900F055816329F0
:1002500000F0A982732900F0AE82002070471FB51C
:1002600007F082F81FBD10B510BD00F0D7FA114697
:10027000FFF7F5FF05F082FC00F0F5FA03B4FFF795
:10028000F2FF03BC05F019FC30BF72B6704762B6CE
:10029000704780F30888704709488047094800473D
:1002A000FEE7FEE7FEE7FEE7FEE7FEE7FEE7FEE726
:1002B000FEE7FEE704480549054A064B7047000083
:1002C000D55100088901000890160020901C0020DC
:1002D0009018002090180020704753EA020C00F09C
:1002E00069802DE9F04B4FF00006002B1FBFB3FAD9
:1002F00083F503FA05F424FA05F65E4012BF1643AF
:10030000B2FA82F502FA05F4C5F120051EBF22FA01
:1003100005FC44EA0C04203556EA044C4FEA144428
:1003200018BF641C4FF000084FF00009904271EBB9
:10033000030C39D3002919BFB1FA81F701FA07F686
:10034000B0FA80F700FA07F6C7F120071EBF20FABF
:1003500007FC46EA0C062037B6FBF4FCA7EB0507C2
:10036000103F07F01F0BCBF120060CFA0BFB2CFA09
:1003700006F644BFB3460026202FA4BF5E464FF0CA
:10038000000B5BEA060C08BF4FF0010B19EB0B09E1
:10039000ABFB027C48EB0608C01B06FB02CC0BFB48
:1003A00003CC71EB0C01C1E70B46024641464846BF
:1003B000BDE8F08B13B54FF000004FF00001AFF334
:1003C0000080BDE81C4070470FB4044910B503AA73
:1003D000029800F0F5F910BC5DF814FB1C00002039
:1003E00070B5044685690068C10601D5302600E075
:1003F0002026C00707D070BDD4E9012130469047C0
:10040000206A401C20626D1EF6D570BD70B5044692
:1004100085690078C00707D170BDD4E9012120208B
:100420009047206A401C20626D1EF6D570BD70B5E5
:100430000C460546012A05D02878800600D5EA69D1
:10044000002302E0012305E05B1C934202D2E05C42
:100450000028F9D1A869E618C01AA861286A1844CA
:1004600028622846FFF7BCFF04E0D5E9012114F813
:10047000010B9047B442F8D32846FFF7C7FF70BD81
:100480002DE9F0410646002410687529314616A56D
:1004900010D0AFF30080002802DA404213A507E035
:1004A00031688A0701D512A502E0490704D511A5D4
:1004B000012401E0AFF3008000210A2206F12407A5
:1004C00009E0B0FBF2FCB0FBF2F302FB1C003030A1
:1004D00078541846491C0028F3D123462A46304652
:1004E000BDE8F04100F0FCB8000000002D00000065
:1004F0002B0000002000000070B504460D46214688
:100500001068AFF300802188090502D50F4A7A44AC
:1005100002E00E4A7A440E32002104F1240305E081
:1005200000F00F060009965D5E54491C0028F7D1C3
:1005300020780023000704D5702D02D009B10223D2
:1005400011322046BDE8704000F0CAB8B8B50000CE
:100550002DE9F05F894604464FF0000ADFF874B1D8
:10056000FB44C0F820A02046E1688847002874D0EA
:10057000252806D0D4E901219047206A401C20623A
:10058000F1E700265F462046E168884720280546B7
:1005900007DB312D05D2781910F8200C08B106437D
:1005A000F1E7B00701D526F00406C4F81CA0002727
:1005B000C4F818A02A2D09D0284605F077FA38B3D8
:1005C00004EB8708303DC8F8185019E059F8041BAF
:1005D000204604EB87029161E1688847012F0546B8
:1005E00018D1E069002820DA26F020061DE0D8F8AE
:1005F000180000EB800005EB40003038C8F8180008
:100600002046E1688847054605F050FA0028EED1FB
:10061000012F0AD02E2D08D12046E16888477F1C83
:100620000546022F46F02006C4DBA069002803DA45
:10063000404246F00106A061F00701D026F0100606
:100640006C2D0BD0682D09D04C2D39D06A2D35D0AA
:10065000742D35D07A2D33D016E038E0E1682F467E
:1006600020468847B842054609D16C2F26D04FF462
:100670008060E168064320468847054604E06C2F09
:100680001AD04FF4807006430DB3A5F1410019282C
:1006900002D8203546F400664A46294620462660A0
:1006A0004E46FFF7CBFD80B101280BD0F61D26F09A
:1006B000070000F1080956E74020E4E78020D8E76A
:1006C0000020D6E706F104094DE7284652E7206AE4
:1006D000BDE8F09F8EB500007047704770477047C7
:1006E0002DE9F0470D4699469246044600F124084C
:1006F0000168880604D5E06921F01001216000E05E
:100700000120A84201DD471B00E00027A1697A19FA
:1007100002EB0900081AA0612078C00602D4204626
:10072000FFF75EFE002608E0D4E901211AF8060072
:100730009047206A401C761C20624E45F4DB2078EE
:10074000C0060AD52046FFF74BFE06E0D4E901219A
:1007500030209047206A401C2062381EA7F1010714
:10076000F4DC07E0D4E9012118F805009047206A7D
:10077000401C2062281EA5F10105F3DC2046FFF78E
:1007800045FE2078000602D50220BDE8F087012052
:10079000FBE710B5436913B1AFF3008001E0FFF749
:1007A00046FE012010BD127800F124010A700022DB
:1007B0004A700122EDE711684FF0FF32E9E70000CF
:1007C000074B70B50D467B4400F011F804462846EF
:1007D00000F020F810B14FF0FF3070BD204670BD22
:1007E0006B53000001694A1C02610878704700B52C
:1007F0008FB0CDE901310021059105497944CDE95A
:10080000031011466846FFF7A3FE0FB000BD0000BD
:10081000E5FFFFFF007B00F080007047754600F0A9
:100820002BF8AE4605006946534620F00700854682
:1008300018B020B5FFF73EFDBDE820404FF00006A0
:100840004FF000074FF000084FF0000B21F00701B8
:10085000AC46ACE8C009ACE8C009ACE8C009ACE8FB
:10086000C0098D46704710B50446AFF3008020469E
:10087000BDE81040FFF702BD004870472C1600206D
:1008800010B501F0A1FA10BD70B50246002317E0C3
:10089000012500200DE0165C441C145DA64207DD16
:1008A0000025145C461C965D1654461C945500BFEA
:1008B000401C4C1EE41A8442EDDC05B103E05B1CD5
:1008C000481E9842E4DC00BF70BD00BFFEE770B573
:1008D000024600240023002000BF05E012F8016B4F
:1008E000F518EBB2651CECB28C42F7DBD8B270BDE8
:1008F00010B502460B460021002000BF03E0545C07
:1009000060404C1CE1B29942F9DB10BD7047000019
:1009100070B504461D460023B5F5804F13D154F839
:1009200022300C480340D1E9000640EA06108E68E8
:1009300040EA06208E8940EA06408E693043034330
:1009400044F8223003E06FF0704044F822000020A9
:1009500070BD00000000F0CF10B50346002208680B
:1009600053F8202012480240D1E901042043CC680A
:1009700020430C6920434C6920438C692043CC6997
:1009800020430C6A20434C6A20438C6A2043CC6A83
:100990002043CC6B20430C6B20430243886808281B
:1009A00001D142F04002086843F82020002010BD29
:1009B0008000F0FF30B503460024501C53F820405F
:1009C00004F04044D1E9000540EA05108D6840EA92
:1009D00005208D8940EA0545088A401E45EA0055F4
:1009E000087D801E45EA00608D6928430443501C41
:1009F00043F82040002030BD014691F83500022820
:100A000003D08020486501207047052081F835001B
:100A10000868006820F001000A6810600020F3E711
:100A2000F8B502460B460025002400200021DCE03A
:100A3000012606FA01F51E6806EA0504AC4273D1E8
:100A40005E68022E02D05E68122E13D1CF0802F12A
:100A5000200656F827004E07F70E0F26BE40B0437B
:100A60004F07FF0E1E69BE403043CF0802F120063B
:100A700046F8270010684F000326BE40B0431E7999
:100A800006F003064F00BE40304310605E68012E42
:100A900008D05E68022E05D05E68112E02D05E6816
:100AA000122E13D190684F000326BE40B0434F0072
:100AB000DE68BE4030439060506801268E40B043EF
:100AC0001E79C6F300168E4030435060D0684F0048
:100AD0000326BE40B0434F009E68BE403043D06006
:100AE0005E6806F08056B6F1805F7DD100BF0026BB
:100AF0000096404E366846F480463E4F3E603E4685
:100B0000366806F48046009600BF00BF3A4E8F0854
:100B100056F827008E07370F0F26BE40B043374EDA
:100B2000B24202D1002624E05EE0354EB24201D14D
:100B300001261EE0334EB24201D1022619E0324EA8
:100B4000B24201D1032614E0304EB24201D1042654
:100B50000FE02F4EB24201D105260AE02D4EB242DF
:100B600001D1062605E02C4EB24201D1072600E055
:100B700008268F073F0FBE4030431F4E8F0846F8B0
:100B80002700264E3068A0435E6806F48036B6F52E
:100B9000803F00D12043214E3060361D3068A04395
:100BA0005E6806F40036B6F5003F00D120431B4EC8
:100BB000361D3060361D3068A0435E6806F480162E
:100BC000B6F5801F00D12043144E08363060361D24
:100BD0003068A0435E6806F40016B6F5001F00D129
:100BE00020430E4E0C363060491C1029FFF420AF14
:100BF000F8BD0000443802400838014000000240BF
:100C00000004024000080240000C024000100240B4
:100C10000014024000180240001C0240003C014049
:100C2000024613690B400BB1012000E00020704721
:100C30000AB1816101E00B048361704701480068DB
:100C4000000C7047002004E0014800687047000075
:100C50000C00002003480068034909780844014952
:100C6000086070470C0000201400002010B50A48EE
:100C7000006840F40070084908600846006840F4C5
:100C800080600860052000F07FF80F2000F006F873
:100C900000F02AF8002010BD003C024070B5044668
:100CA0000E4800784FF47A71B1FBF0F00C490968F6
:100CB000B1FBF0F5284600F08DFE08B1012070BDB3
:100CC000102C07D200222146501E00F01EF80548C5
:100CD000046001E00120F2E70020F0E714000020AA
:100CE0000800002010000020704701460846002838
:100CF00009DB00F01F0301229A4043099B0003F126
:100D0000E023C3F8002100BF70472DE9F05F804663
:100D10000D461646002704F0ADFE074639462A4622
:100D2000334601F00700C0F1070ABAF1040F02D9F7
:100D30004FF0040A01E0C0F1070AD14600F1040AAD
:100D4000BAF1070F02D24FF0000A01E0A0F1030A46
:100D5000D4464FF0010A0AFA09FAAAF1010A0AEA8E
:100D6000020A0AFA0CFA4FF0010B0BFA0CFBABF17A
:100D7000010B0BEA030B4AEA0B042146404604F040
:100D800081FEBDE8F09F000000BF00F00702064BA7
:100D900019684FF6FF031940044B0B4343EA022145
:100DA000014B196000BF70470CED00E00000FA0530
:100DB00070B504460D460CB9012070BD5848006856
:100DC00000F00F00A84209D255490D70084600688E
:100DD00000F00F00A84201D00120EEE7207800F0DB
:100DE000020002281DD1207800F00400042805D15B
:100DF0004C48006840F4E0504A490860207800F010
:100E00000800082805D14748006840F4604045497B
:100E100008604448006820F0F000A1680843414998
:100E20000860207800F00100A8B36068012807D1AD
:100E30003C4808380068C0F34040B8B90120BCE71E
:100E40006068022802D06068032807D13548083856
:100E50000068C0F3406048B90120AEE73148083867
:100E60000068C0F3400008B90120A6E72D480068DB
:100E700020F00300616808432A490860FFF7E4FE98
:100E8000064609E0FFF7E0FE801B41F28831884208
:100E900002D9032091E707E02248006800F00C0027
:100EA0006168B0EB810FEDD11D48006800F00F00C4
:100EB000A84209D91A490D700846006800F00F00D1
:100EC000A84201D0012078E7207800F0040004282F
:100ED00007D11448006820F4E050E1680843114944
:100EE0000860207800F00800082808D10D48006844
:100EF00020F46040216940EAC1000A49086000F01E
:100F00003DF808490968C1F30311074A515CC8401C
:100F1000064908600F20FFF7C1FE00204DE70000E2
:100F2000003C0240083802407273000808000020AC
:100F300001480068704700000800002000B5FFF776
:100F4000F7FF04490968C1F38221034A515CC84094
:100F500000BD0000083802408273000800B5FFF7AA
:100F6000E7FF04490968C1F34231034A515CC840B4
:100F700000BD000008380240827300082DE9F047E8
:100F8000002400250026A1462548006800F00C003A
:100F900020B1042805D008283AD105E0DFF8849074
:100FA00039E0DFF8849036E01D48001F006800F04B
:100FB0003F041B48001F006800F4800078B11A4805
:100FC0001749091F0968C1F38811A0FB0170014688
:100FD000224600233846FFF780F905460EE0114807
:100FE0000F49091F0968C1F38811A0FB0170014670
:100FF000224600233846FFF770F905460848001FCF
:101000000068C0F30140401C4600B5FBF6F902E061
:10101000DFF8109000BF00BF4846BDE8F087000031
:10102000083802400024F40000127A00F8B50446A3
:101030000CB90120F8BD207800F00100002874D020
:10104000F948006800F00C0004280DD0F64800684C
:1010500000F00C00082813D1F348001F006800F4CA
:101060008000B0F5800F0BD1EF4808380068C0F35E
:101070004040002859D06068002856D10120D9E7A7
:1010800000BF6068B0F5803F08D1E74808380068C5
:1010900040F48030E449083908601EE06068B0F52B
:1010A000A02F0DD1E0480838006840F48020DE49C8
:1010B000083908600846006840F4803008600CE099
:1010C000D9480838006820F48030D74908390860CA
:1010D0000846006820F48020086000BF606890B176
:1010E000FFF7B2FD054606E0FFF7AEFD401B6428A2
:1010F00001D903209EE7CC4808380068C0F340407F
:101100000028F1D011E0FFF79FFD054606E0FFF74C
:101110009BFD401B642801D903208BE7C248083897
:101120000068C0F340400028F1D1207800F00200B0
:1011300002285FD1BC48006800F00C0058B1BA48E2
:10114000006800F00C0008281CD1B748001F006898
:1011500000F48000B0B9B44808380068C0F340001B
:1011600020B1E068012801D0012063E7AE480838CB
:10117000006820F0F800216940EAC100AA49083956
:10118000086037E0E06800B30120A8490860FFF775
:101190005BFD054606E0FFF757FD401B022801D91D
:1011A000032047E7A04808380068C0F34000002843
:1011B000F1D09D480838006820F0F800216940EA25
:1011C000C10099490839086014E000209749086077
:1011D000FFF73AFD054606E0FFF736FD401B022803
:1011E00001D9032026E7904808380068C0F3400082
:1011F0000028F1D1207800F0080008282CD160697F
:10120000A8B101208A490860FFF71EFD054606E0E7
:10121000FFF71AFD401B022801D903200AE7824884
:101220006C300068C0F340000028F1D014E00020CA
:101230007F490860FFF708FD054606E0FFF704FD5B
:10124000401B022801D90320F4E677486C3000687F
:10125000C0F340000028F1D1207800F004000428F9
:1012600070D1002670483830006800F0805090B986
:1012700000BF002000906C483830006840F080507B
:101280006949383108600846006800F080500090D5
:1012900000BF00BF01266748006800F48070B0B945
:1012A0006448006840F4807062490860FFF7CCFC35
:1012B000054606E0FFF7C8FC401B022801D90320C1
:1012C000B8E65C48006800F480700028F2D000BFE7
:1012D000A068012808D154486830006840F0010037
:1012E0005149683108601DE0A06805280DD14E48BD
:1012F0006830006840F004004B49683108600846D7
:10130000006840F0010008600CE047486830006861
:1013100020F001004449683108600846006820F068
:101320000400086000BFA068A8B1FFF78DFC054667
:1013300009E0FFF789FC401B41F28831884202D95D
:10134000032077E626E0384868300068C0F34000A4
:101350000028EED013E0FFF777FC054608E0FFF722
:1013600073FC401B41F28831884201D9032061E6B9
:101370002D4868300068C0F340000028EFD1012EEE
:1013800007D129483830006820F08050264938318C
:10139000086000BFA069B8B32348006800F00C00E3
:1013A00008285ED0A069022846D100201F4908669F
:1013B000FFF74AFC054606E0FFF746FC401B022803
:1013C00001D9032036E6184808380068C0F34060A9
:1013D0000028F1D1D4E907010843616A40EA81118C
:1013E0000122A06AC2EB500041EA00412C20005DBE
:1013F00041EA00600C49091F086001200B4908669A
:10140000FFF722FC054607E02DE0FFF71DFC401B1F
:10141000022801D903200DE6034808380068C0F30C
:1014200040600028F1D01EE008380240000047422A
:10143000800E47420070004000200C490866FFF70C
:1014400003FC054606E0FFF7FFFB401B022801D91D
:101450000320EFE506480068C0F340600028F2D1A1
:1014600001E00120E6E50020E4E50000000047423D
:101470000038024010B504460CB9012010BD606A66
:1014800000B900BFA06AB0F5005F00D100BF94F8BA
:10149000510028B9002084F85000204600F03AF8A6
:1014A000022084F851002068006820F04000216884
:1014B0000860D4E901010843E16808432169084351
:1014C00061690843218B01F400710843E169084315
:1014D000216A0843A16A0843216808600421A069C1
:1014E00001EA1040616A084321684860A06AB0F5CB
:1014F000005F02D12168E06A08612068C06920F4B9
:1015000000602168C86100206065012084F85100F6
:101510000020B3E710B586B0044600BF002000905D
:101520001748006840F00200154908600846006846
:1015300000F00200009000BF00BF00BF002000903C
:101540000F481430006840F480500D491431086091
:101550000846006800F48050009000BF00BF3820AB
:1015600001900220029001200390032004900520A6
:10157000059001A90348FFF753FA06B010BD00001B
:1015800030380240000402402DE9FF5F04468846DF
:1015900091461D460E9E012002900020019000BF42
:1015A00094F85000012803D1022004B0BDE8F09F58
:1015B000012084F8500000BFFFF746FB074694F86F
:1015C00051B060680390AA46BBF1010F0BD003989D
:1015D000B0F5827F04D1A06810B9BBF1040F02D02E
:1015E000022001902AE1B8F1000F03D0B9F1000FF9
:1015F00000D015B90120019020E194F85100042891
:1016000002D0052084F8510000206065C4F83890AD
:10161000E587A587C4F83080E586A58620646064E8
:10162000A06AB0F5005F0DD100BF2068006820F40B
:101630000050216808602068006840F4005021686C
:10164000086000BF2068006800F04000402805D016
:101650002068006840F0400021680860E068B0F54C
:10166000006F56D1606810B1BAF1010F09D1206B3B
:1016700000882168C860206B801C2063E08E401EBB
:10168000E0863FE02068806800F0020002281CD15C
:10169000E08ED0B10298012817D1206B0088216814
:1016A000C860206B801C2063E08E401EE086002016
:1016B0000290E08E48B9A06AB0F5005F05D12068BD
:1016C000006840F48050216808602068806800F05D
:1016D000010068B1E08F58B12068C068A16B088034
:1016E000A06B801CA063E08F401EE0870120029069
:1016F000FFF7AAFAC01BB04204D3701C10B103203C
:1017000001909BE0E08E0028BCD1E08F0028B9D189
:1017100056E0606810B1BAF1010F09D1206B007872
:1017200021680873206B401C2063E08E401EE08619
:1017300040E02068806800F0020002281CD1E08EA2
:10174000D0B10298012817D1206B00782168087366
:10175000206B401C2063E08E401EE086002002903B
:10176000E08E48B9A06AB0F5005F05D12068006836
:1017700040F48050216808602068806800F0010013
:1017800068B1E08F58B12068C068A16B0870A06B89
:10179000401CA063E08F401EE08701200290FFF70D
:1017A00053FAC01BB04201D3701C00B916B9032014
:1017B000019043E0E08E0028BBD1E08F0028B8D133
:1017C000A06AB0F5005F10D13346012211462046D1
:1017D000009703F03FFC30B1606D40F0020060659F
:1017E000032001902AE02068C0682068806800F02B
:1017F0001000102809D1606D40F0020060654FF6BE
:10180000EF7021688860012001903A4631462046F9
:1018100003F0EAFB20B101200190202060650DE07B
:10182000A06850B900BF002000902068C0680090F8
:1018300020688068009000BF00BF00BF012084F8CE
:10184000510000BF002084F8500000BF0198ACE6B2
:1018500070B504460E4615460CB9012070BD94F8CB
:10186000490028B9002084F84800204600F01CF800
:1018700004F108012068FFF76FF83146A26820687C
:10188000FFF798F82946236BD4E90102FFF740F8E7
:10189000A168206850F8210040F00100A26821688A
:1018A00041F822000020D9E710B586B0044600BFF9
:1018B000002000903848006840F001003649086078
:1018C0000846006800F00100009000BF00BF00BFA4
:1018D0000020009030480838006840F008002E4989
:1018E000083908600846006800F00800009000BF52
:1018F00000BF00BF002000900846006840F01000C4
:1019000008600846006800F01000009000BF00BFAB
:1019100000BF002000900846006840F020000860EA
:101920000846006800F02000009000BF00BF00BF24
:10193000002000900846006840F04000086008461B
:10194000006800F04000009000BF00BF4CF2337010
:1019500001900220029001200390032004900C20AB
:10196000059001A90D48FFF75BF84FF680700190D4
:1019700001A90B48FFF754F84FF48050019001A9DA
:101980000848FFF74DF84FF48050019001A9064830
:10199000FFF746F806B010BD38380240000C024090
:1019A000001002400014024000180240042808D130
:1019B0004FF0E021096941F004014FF0E02211618C
:1019C00007E04FF0E021096921F004014FF0E02227
:1019D0001161704770B504462546681EB0F1807FDE
:1019E00001D301200FE0681E4FF0E02148610F2174
:1019F0004FF0FF3004F046F800204FF0E0218861FE
:101A000007200861002070BD10B504460CB9012004
:101A100010BD94F83D0028B9002084F83C00204611
:101A200000F00CF8022084F83D00211D206803F02E
:101A300025FC012084F83D000020E9E770470146BD
:101A40000868C06840F001000B68D86008688068CA
:101A500000F00702062A05D00868006840F001007F
:101A60000B68186000207047704700002DE9F047B0
:101A70000446206805682068C668206847694FF0FA
:101A80000008C14605F00F08B8F1000F0AD105F0B3
:101A9000200038B106F0200020B1204603F0B4FC4D
:101AA000BDE8F087B8F1000F6ED007F0010018B95B
:101AB00006F49070002867D005F0010030B106F4FC
:101AC000807018B1E06B40F00100E06305F00400A5
:101AD00030B107F0010018B1E06B40F00200E063A4
:101AE00005F0020030B107F0010018B1E06B40F0E2
:101AF0000400E06305F0080030B107F0010018B100
:101B0000E06B40F00800E063E06B70B305F020008C
:101B100028B106F0200010B1204603F075FC2068C3
:101B20004069C0F38019E06B00F0080010B9B9F10A
:101B3000000F23D0204603F047FC2068406900F0E6
:101B40004000402816D12068406920F040002168FC
:101B50004861606B50B11748616B0865606BFEF7B8
:101B60004BFF10B1606B016D88470CE02046FFF71A
:101B70007BFF08E02046FFF777FF04E02046FFF7F1
:101B800073FF0020E0638BE705F0800030B106F0C2
:101B9000800018B1204603F03FFE81E705F04000C9
:101BA00030B106F0400018B1204603F01DFC77E785
:101BB00000BF75E7B553000810B504460CB9012005
:101BC00010BDA06900B100E000BF94F8390028B949
:101BD000002084F83800204600F028F8242084F8FB
:101BE00039002068C06820F400502168C860204691
:101BF00003F05EFC2068006920F4904021680861D1
:101C00002068406920F02A00216848612068C06887
:101C100040F400502168C8600020E063202084F870
:101C2000390084F83A000020CAE7000010B586B0F9
:101C300004462849206888424AD100BF002000900D
:101C40002548006840F00100234908600846006804
:101C500000F00100009000BF00BF00BF0020009016
:101C60001D481430006840F010001B491431086012
:101C70000846006800F01000009000BF00BF481543
:101C8000019002200290012003900220049007207E
:101C9000059001A91148FEF7C3FE4FF48060019042
:101CA00001A90E48FEF7BCFE2068C06820F0400085
:101CB0002168C8602068C06840F020002168C860C2
:101CC0002520FFF712F8032211462520FFF71DF803
:101CD00006B010BD00100140303802400000024044
:101CE0002DE9F84304460D4616461F464FF00009FD
:101CF00094F83A00202860D105B116B90120BDE85A
:101D0000F88300BF94F83800012801D10220F6E7DB
:101D1000012084F8380000BF0020E063222084F80E
:101D20003A00FEF791FF8146A685E68539E0E08D11
:101D3000401EE085A068B0F5805F1BD14B460022B5
:101D400020212046009703F09BFD08B10320D6E731
:101D5000A846206938B920684068C0F30800A8F890
:101D60000000AD1C1DE020684068C0B2A8F800006B
:101D70006D1C16E04B46002220212046009703F000
:101D80007FFD08B10320BAE7206920B920684068C8
:101D900005F8010B05E02068406800F07F0005F8B9
:101DA000010BE08D0028C2D1202084F83A0000BF4A
:101DB000002084F8380000BFA1E702209FE77047A9
:101DC000704700BFFEE7000000B587B000BF0020ED
:101DD00001901048006840F002000E490860084673
:101DE000006800F00200019000BF00BFC020029018
:101DF0000120039004900220059002A90648FEF7F6
:101E00000FFE0120054908600549C1F8980207B096
:101E100000BD000030380240000402409C82404275
:101E20000080404200B587B000BF002001901B48F1
:101E3000006840F00100194908600846006800F099
:101E40000100019000BF00BF00BF002001900846C4
:101E5000006840F0100008600846006800F01000BC
:101E6000019000BF00BF01200290002003900220DB
:101E700004900320059002A90948FEF7D1FD1C201B
:101E8000029000200390012004900320059002A9F5
:101E90000448FEF7C5FD07B000BD00003038024021
:101EA000000002400010024010B50446012C01D190
:101EB0002C4908702B480078002837D010212A4878
:101EC000FEF7AEFE78B108212748FEF7A9FE50B113
:101ED00004212548FEF7A4FE28B101212348FEF77E
:101EE0009FFE012822D10A2003F0F4FD00201D49A5
:101EF000087010211C48FEF793FE08B9012010BDA0
:101F000008211948FEF78CFE08B90220F7E70421E2
:101F10001548FEF785FE08B90320F0E701211348B4
:101F2000FEF77EFE01281BD10420E8E710210E48B1
:101F3000FEF776FE012813D108210B48FEF770FE4C
:101F400001280DD104210848FEF76AFE012807D1B7
:101F500001210648FEF764FE10B90120014908700E
:101F60000020CCE7340000200010024000000240B6
:101F700070B504460026094805884088454300217D
:101F8000084602F011FE02F089FF00BF02E004499A
:101F90000C80761CAE42FAD370BD00008415002080
:101FA0008000006C10B5044649488471002C45D16E
:101FB000F020474908804FF4A07048800846808888
:101FC00045F21051884210D14FF4305040490881F9
:101FD0004FF4285048814FF42C5088814FF4F07012
:101FE00008804FF4487048801AE03948808841F6EC
:101FF000631188420DD12C20354908812B2048815E
:102000002A2088814FF4F07008804FF4487048808F
:1020100006E02C202E4908812A2048812B20888127
:102020002B48808845F2103188424CD14FF4A07083
:10203000274908804FF4F070488044E04FF4A070C6
:1020400023490880F02048800846808845F21051D6
:10205000884210D14FF430501D4908814FF4285068
:1020600048814FF42C5088814FF4487008804FF419
:10207000F07048801AE01648808841F66311884263
:102080000DD12C20124908812A2048812B208881DB
:102090004FF4487008804FF4F070488006E02C2020
:1020A0000B4908812A2048812B2088810848808894
:1020B00045F21031884206D14FF4F070044908808F
:1020C0004FF4A0704880002002F054FC10BD0000C6
:1020D0008415002030B504460D463948808845F205
:1020E0001051884220D13649488902F0CBFE201297
:1020F00002F0BCFE32494989491C88B202F0C2FE96
:10210000E0B202F0B3FE2E49888902F0BBFE28122D
:1021100002F0ACFE2A498989491C88B202F0B2FE5D
:10212000E8B202F0A3FE42E02548808841F6631140
:10213000884228D12248807920B921480088401E51
:10214000001B84B21E49488902F09CFE201202F056
:102150008DFEE0B202F08AFE201202F087FEE0B2AD
:1021600002F084FE1649888902F08CFE281202F0E3
:102170007DFEE8B202F07AFE281202F077FEE8B2A5
:1021800002F074FE13E00E49488902F07BFE201233
:1021900002F06CFEE0B202F069FE0949888902F0A3
:1021A00071FE281202F062FEE8B202F05FFE0448FF
:1021B0000089044908804FF0D841A1F8802030BD43
:1021C000841500207E00006C2DE9F04F05460E4678
:1021D00017469846DDF824A04FF0000B781B401CF2
:1021E0001FFA80FB344613E02146284602F0DCFC4F
:1021F00002F054FE4FF0000906E00749A1F800A0E4
:1022000009F101001FFA80F9D945F6DB601C84B2A0
:102210004445E9DDBDE8F08F8000006C00B595B065
:1022200000BF00200190FE48006840F00200FC4919
:1022300008600846006800F00200019000BF00BF7F
:102240004FF4004010900120119012900320139041
:1022500010A9F448FEF7E4FB4FF02040F249086073
:10226000F2484860062088600021EF48C1600161A3
:102270001021416100218161C16141624FF48051AF
:1022800081620021C1624FF48041016300214163FA
:1022900081634FF48011C1630F20099000200A90E0
:1022A0003C200B9000200F90059009200290002008
:1022B0000390082004900020089002AA09A9DA4897
:1022C000FFF7C6FA322003F005FCD32002F0DAFD56
:1022D00002F016FBD649888002F012FBD4498880B0
:1022E00002F00EFBD2498880084680884FF6FF71C5
:1022F00001EA0020CE49888002F002FBCC4989889F
:102300000843CB4988800846808849F24131884299
:102310007DD0042002F0B6FD02F0F2FAC4498880B4
:1023200002F0EEFAC249888002F0EAFAC0498880D9
:10233000084680884FF6FF7101EA0020BC4988807A
:1023400002F0DEFABA4989880843B949888008460C
:10235000808848F25251884203D147F28970B449CB
:102360008880B348808847F289718842D0D0D420D1
:1023700002F088FD02F0C4FAAD49888002F0C0FA8C
:10238000AB49888002F0BCFAA94988800846808859
:102390004FF6FF7101EA0020A549888002F0B0FAEB
:1023A000A34989880843A24988800846808845F265
:1023B000103188426BD055214FF4704002F078FD07
:1023C000AA214FF2010002F073FD52214FF20200E8
:1023D00002F06EFD08214FF2030002F069FD0121B9
:1023E0004FF2040002F064FD4FF4454002F04AFD54
:1023F00002F086FA8E498880084680884FF6FF7181
:1024000001EA00208A4988804CF2015000E03EE059
:1024100002F038FD02F074FA85498988084384493E
:102420008880052003F056FB81488088B0F5004F76
:1024300003D145F210507E4988807D48808845F25E
:102440001051884223D0A12002F01CFD02F058FA5E
:102450007749888002F054FA754988800846808858
:102460004FF6FF7101EA00207149888002F048FAB6
:102470006F49898808436E4988800846808845F2FC
:102480006171884203D141F66310694988806848C8
:10249000818868A0FDF798FF6548808849F241313E
:1024A00088427CD1CF2002F0EDFC002002F0DEFC5F
:1024B000C12002F0DBFC302002F0D8FCED2002F05D
:1024C000E1FC642002F0D2FC032002F0CFFC1220D9
:1024D00002F0CCFC812002F0C9FCE82002F0D2FC22
:1024E000852002F0C3FC102002F0C0FC7A2002F02C
:1024F000BDFCCB2002F0C6FC392002F0B7FC2C203A
:1025000002F0B4FC002002F0B1FC342002F0AEFC7A
:10251000022002F0ABFCF72002F0B4FC202002F015
:10252000A5FCEA2002F0AEFC002002F09FFC002097
:1025300002F09CFCC02002F0A5FC1B2002F096FCDF
:10254000C12002F09FFC012002F090FCC52002F0A7
:1025500099FC302002F08AFC302002F087FCC72072
:1025600002F090FCB72002F081FC362002F08AFCD9
:10257000482002F07BFC3A2002F084FC552002F057
:1025800075FCB12002F07EFC002002F06FFC1A20E6
:1025900002F06CFCB62002F075FC0A2000E0ACE012
:1025A00002F064FCA22002F061FCF22002F06AFC5E
:1025B000002002F05BFC262002F064FC012002F007
:1025C00055FCE02002F05EFC0F2002F04FFC2A20B8
:1025D00002F04CFC282002F049FC082002F046FCE6
:1025E0000E2002F043FC082002F040FC542002F0D0
:1025F0003DFCA92002F03AFC432002F037FC0A20FF
:1026000002F034FC0F2002F031FC002002F02EFC1E
:10261000002002F02BFC002002F028FC002011E03A
:10262000303802400004024034150020040100A0AC
:1026300084150020204C43442049443A25780D0A53
:102640000000000002F012FCE12002F01BFC002060
:1026500002F00CFC152002F009FC172002F006FC29
:10266000072002F003FC112002F000FC062002F01B
:10267000FDFB2B2002F0FAFB562002F0F7FB3C207A
:1026800002F0F4FB052002F0F1FB102002F0EEFB5B
:102690000F2002F0EBFB3F2002F0E8FB3F2002F0AE
:1026A000E5FB0F2002F0E2FB2B2002F0EBFB002009
:1026B00002F0DCFB002002F0D9FB012002F0D6FB87
:1026C0003F2002F0D3FB2A2002F0DCFB002002F0C6
:1026D000CDFB002002F0CAFB002002F0C7FBEF2078
:1026E00002F0C4FB112002F0CDFB782003F0F2F9D8
:1026F000292002F0C7FB02F0A6B8FE48808847F206
:10270000897188427ED1112002F0BCFB782003F051
:10271000E1F9362002F0B6FB002002F0A7FB3A20D8
:1027200002F0B0FB052002F0A1FBB22002F0AAFBF0
:102730000C2002F09BFB0C2002F098FB002002F022
:1027400095FB332002F092FB332002F08FFBB72081
:1027500002F098FB352002F089FBBB2002F092FBCF
:10276000322002F083FBC02002F08CFB0C2002F030
:102770007DFBC22002F086FB012002F077FBC32024
:1027800002F080FB102002F071FBC42002F07AFB03
:10279000202002F06BFBC62002F074FB0F2002F039
:1027A00065FBD02002F06EFBA42002F05FFBA120AD
:1027B00002F05CFBE02002F065FBD02002F056FB4B
:1027C000002002F053FB022002F050FB072002F031
:1027D0004DFB0A2002F04AFB282002F047FB322082
:1027E00002F044FB442002F041FB422002F03EFB99
:1027F000062002F03BFB0E2002F038FB122002F014
:1028000035FB00E054E0142002F030FB172002F00A
:102810002DFBE12002F036FBD02002F027FB002048
:1028200002F024FB022002F021FB072002F01EFB35
:102830000A2002F01BFB282002F018FB312002F0D6
:1028400015FB542002F012FB472002F00FFB0E2074
:1028500002F00CFB1C2002F009FB172002F006FB23
:102860001B2002F003FB1E2002F000FB2A2002F0D6
:1028700009FB002002F0FAFA002002F0F7FA00202B
:1028800002F0F4FAEF2002F0F1FA2B2002F0FAFA4B
:10289000002002F0EBFA002002F0E8FA012002F03A
:1028A000E5FA3F2002F0E2FA292002F0EBFA22E7F3
:1028B0009048808845F21031884240F07C87ED20B6
:1028C00002F0E0FA012002F0D1FAFE2002F0CEFA86
:1028D000EE2002F0D7FADE2002F0C8FA212002F042
:1028E000C5FAF12002F0CEFA012002F0BFFADF2093
:1028F00002F0C8FA102002F0B9FAC42002F0C2FABD
:102900008F2002F0B3FAC62002F0BCFA002002F0D9
:10291000ADFAE22002F0AAFAE22002F0A7FAE220E1
:1029200002F0A4FABF2002F0ADFAAA2002F09EFA4B
:10293000B02002F0A7FA0D2002F098FA002002F071
:1029400095FA0D2002F092FA002002F08FFA112081
:1029500002F08CFA002002F089FA192002F086FABF
:10296000002002F083FA212002F080FA002002F019
:102970007DFA2D2002F07AFA002002F077FA3D204D
:1029800002F074FA002002F071FA5D2002F06EFA93
:10299000002002F06BFA5D2002F068FA002002F0DD
:1029A00065FAB12002F06EFA802002F05FFA002092
:1029B00002F05CFA8B2002F059FA002002F056FA7D
:1029C000962002F053FA002002F050FAB22002F0F2
:1029D00059FA002002F04AFA002002F047FA0220D9
:1029E00002F044FA002002F041FA032002F03EFA1D
:1029F000002002F03BFAB32002F044FA002002F07B
:102A000035FA002002F032FA002002F02FFA0020FE
:102A100002F02CFA002002F029FA002002F026FA37
:102A2000002002F023FA002002F020FA002002F039
:102A30001DFA002002F01AFA002002F017FA002016
:102A400002F014FA002002F011FA002002F00EFA4F
:102A5000002002F00BFA002002F008FA002002F039
:102A600005FA002002F002FA002002F0FFF900202F
:102A700002F0FCF9002002F0F9F9002002F0F6F96A
:102A8000002002F0F3F9002002F0F0F9B42002F087
:102A9000F9F98B2002F0EAF9002002F0E7F996201C
:102AA00002F0E4F9002002F0E1F9A12002F0DEF9E1
:102AB000002002F0DBF9B52002F0E4F9022002F078
:102AC000D5F9002002F0D2F9032002F0CFF900205E
:102AD00002F0CCF9042002F0C9F9002002F0C6F996
:102AE000B62002F0CFF9002002F0C0F9002002F079
:102AF000BDF901E084150020B72002F0C3F90020E1
:102B000002F0B4F9002002F0B1F93F2002F0AEF972
:102B1000002002F0ABF95E2002F0A8F9002002F0DC
:102B2000A5F9642002F0A2F9002002F09FF98C20A0
:102B300002F09CF9002002F099F9AC2002F096F91D
:102B4000002002F093F9DC2002F090F9002002F05E
:102B50008DF9702002F08AF9002002F087F99020A8
:102B600002F084F9002002F081F9EB2002F07EF9F6
:102B7000002002F07BF9DC2002F078F9002002F05E
:102B800075F9B82002F07EF9002002F06FF90020FC
:102B900002F06CF9002002F069F9002002F066F9F9
:102BA000002002F063F9002002F060F9002002F03A
:102BB0005DF9002002F05AF9BA2002F063F92420EE
:102BC00002F054F9002002F051F9002002F04EF911
:102BD000002002F04BF9C12002F054F9202002F04D
:102BE00045F9002002F042F9542002F03FF900209C
:102BF00002F03CF9FF2002F039F9002002F036F92A
:102C0000C22002F03FF90A2002F030F9002002F061
:102C10002DF9042002F02AF9002002F027F9C32040
:102C200002F030F93C2002F021F9002002F01EF9F8
:102C30003A2002F01BF9002002F018F9392002F0C6
:102C400015F9002002F012F9372002F00FF90020E8
:102C500002F00CF93C2002F009F9002002F006F91C
:102C6000362002F003F9002002F000F9322002F0D1
:102C7000FDF8002002F0FAF82F2002F0F7F800200B
:102C800002F0F4F82C2002F0F1F8002002F0EEF847
:102C9000292002F0EBF8002002F0E8F8262002F0EC
:102CA000E5F8002002F0E2F8242002F0DFF800202E
:102CB00002F0DCF8242002F0D9F8002002F0D6F867
:102CC000232002F0D3F8002002F0D0F83C2002F0DC
:102CD000CDF8002002F0CAF8362002F0C7F8002034
:102CE00002F0C4F8322002F0C1F8002002F0BEF871
:102CF0002F2002F0BBF8002002F0B8F82C2002F0E0
:102D0000B5F8002002F0B2F8292002F0AFF8002058
:102D100002F0ACF8262002F0A9F8002002F0A6F894
:102D2000242002F0A3F8002002F0A0F8242002F0F2
:102D30009DF8002002F09AF8232002F097F8002076
:102D400002F094F8C42002F09DF8622002F08EF8A0
:102D5000002002F08BF8052002F088F8002002F035
:102D600085F8842002F082F8002002F07FF8F0203D
:102D700002F07CF8002002F079F8182002F076F8D2
:102D8000002002F073F8A42002F070F8002002F096
:102D90006DF8182002F06AF8002002F067F8502061
:102DA00002F064F8002002F061F80C2002F05EF8F6
:102DB000002002F05BF8172002F058F8002002F023
:102DC00055F8952002F052F8002002F04FF8F32059
:102DD00002F04CF8002002F049F8E62002F046F834
:102DE000002002F043F8C52002F04CF8322002F037
:102DF0003DF8002002F03AF8442002F037F80020B5
:102E000002F034F8652002F031F8002002F02EF8CC
:102E1000762002F02BF8002002F028F8882002F03B
:102E200025F8002002F022F8C62002F02BF820201E
:102E300002F01CF8002002F019F8172002F016F832
:102E4000002002F013F8012002F010F8002002F038
:102E50000DF8C72002F016F8002002F007F8002055
:102E600002F004F8002002F001F8002001F0FEFF5B
:102E7000C82002F007F8002001F0F8FF002001F060
:102E8000F5FF002001F0F2FF002001F0EFFFC92064
:102E900001F0F8FF002001F0E9FF002001F0E6FF5B
:102EA000002001F0E3FF002001F0E0FF002001F02E
:102EB000DDFF002001F0DAFF002001F0D7FF002045
:102EC00001F0D4FF002001F0D1FF002001F0CEFF7F
:102ED000002001F0CBFF002001F0C8FF002001F02E
:102EE000C5FF002001F0C2FF002001F0BFFF00205D
:102EF00001F0BCFFE02001F0C5FF162001F0B6FF95
:102F0000002001F0B3FF1C2001F0B0FF002001F011
:102F1000ADFF212001F0AAFF002001F0A7FF36201D
:102F200001F0A4FF002001F0A1FF462001F09EFF68
:102F3000002001F09BFF522001F098FF002001F0DB
:102F400095FF642001F092FF002001F08FFF7A20AE
:102F500001F08CFF002001F089FF8B2001F086FF3B
:102F6000002001F083FF992001F080FF002001F094
:102F70007DFFA82001F07AFF002001F077FFB92043
:102F800001F074FF002001F071FFC42001F06EFF1A
:102F9000002001F06BFFCA2001F068FF002001F063
:102FA00065FFD22001F062FF002001F05FFFD92011
:102FB00001F05CFF002001F059FFE02001F056FF16
:102FC000002001F053FFF32001F050FF002001F03A
:102FD0004DFFE12001F056FF162001F047FF0020D1
:102FE00001F044FF1C2001F041FF002001F03EFFF2
:102FF000222001F03BFF002001F038FF362001F0D5
:1030000035FF002001F032FF452001F02FFF0020A6
:1030100001F02CFF522001F029FF002001F026FFD3
:10302000642001F023FF002001F020FF7A2001F04E
:103030001DFF002001F01AFF8B2001F017FF002078
:1030400001F014FF992001F011FF002001F00EFFA4
:10305000A82001F00BFF002001F008FFB92001F0CB
:1030600005FF002001F002FFC42001F0FFFE002058
:1030700001F0FCFECA2001F0F9FE002001F0F6FE8E
:10308000D22001F0F3FE002001F0F0FED82001F084
:10309000EDFE002001F0EAFEE02001F0E7FE002056
:1030A00001F0E4FEF32001F0E1FE002001F0DEFE7D
:1030B000E22001F0E7FE052001F0D8FE002001F03B
:1030C000D5FE0B2001F0D2FE002001F0CFFE1B2028
:1030D00001F0CCFE002001F0C9FE342001F0C6FE54
:1030E000002001F0C3FE442001F0C0FE002001F0EA
:1030F000BDFE4F2001F0BAFE002001F0B7FE6120B6
:1031000001F0B4FE002001F0B1FE792001F0AEFE26
:10311000002001F0ABFE882001F0A8FE002001F0A5
:10312000A5FE972001F0A2FE002001F09FFEA62040
:1031300001F09CFE002001F099FEB72001F096FE00
:10314000002001F093FEC22001F090FE002001F06B
:103150008DFEC72001F08AFE002001F087FED120FD
:1031600001F084FE002001F081FED62001F07EFEF9
:10317000002001F07BFEDD2001F078FE002001F050
:1031800075FEF32001F072FE002001F06FFEE320D7
:1031900001F078FE052001F069FE002001F066FED6
:1031A0000A2001F063FE002001F060FE1C2001F007
:1031B0005DFE002001F05AFE332001F057FE002092
:1031C00001F054FE442001F051FE002001F04EFEBB
:1031D000502001F04BFE002001F048FE622001F07B
:1031E00045FE002001F042FE782001F03FFE002065
:1031F00001F03CFE882001F039FE002001F036FE8F
:10320000972001F033FE002001F030FEA62001F0EF
:103210002DFE002001F02AFEB72001F027FE00203D
:1032200001F024FEC22001F021FE002001F01EFE6C
:10323000C72001F01BFE002001F018FED12001F094
:1032400015FE002001F012FED52001F00FFE002037
:1032500001F00CFEDD2001F009FE002001F006FE69
:10326000F32001F003FE002001F000FEE42001F055
:1032700009FE012001F0FAFD002001F0F7FD012018
:1032800001F0F4FD002001F0F1FD022001F0EEFD5F
:10329000002001F0EBFD2A2001F0E8FD002001F004
:1032A000E5FD3C2001F0E2FD002001F0DFFD4B20B8
:1032B00001F0DCFD002001F0D9FD5D2001F0D6FD1C
:1032C000002001F0D3FD742001F0D0FD002001F0BA
:1032D000CDFD842001F0CAFD002001F0C7FD932040
:1032E00001F0C4FD002001F0C1FDA22001F0BEFDEF
:1032F000002001F0BBFDB32001F0B8FD002001F07B
:10330000B5FDBE2001F0B2FD002001F0AFFDC420EC
:1033100001F0ACFD002001F0A9FDCD2001F0A6FDDB
:10332000002001F0A3FDD32001F0A0FD002001F05A
:103330009DFDDD2001F09AFD002001F097FDF320B6
:1033400001F094FD002001F091FDE52001F09AFDCF
:10335000002001F08BFD002001F088FD002001F02D
:1033600085FD002001F082FD022001F07FFD00209C
:1033700001F07CFD292001F079FD002001F076FDAF
:103380003C2001F073FD002001F070FD4B2001F0A6
:103390006DFD002001F06AFD5D2001F067FD002059
:1033A00001F064FD742001F061FD002001F05EFD7C
:1033B000842001F05BFD002001F058FD932001F016
:1033C00055FD002001F052FDA22001F04FFD00202C
:1033D00001F04CFDB32001F049FD002001F046FD55
:1033E000BE2001F043FD002001F040FDC42001F0AB
:1033F0003DFD002001F03AFDCD2001F037FD002019
:1034000001F034FDD32001F031FD002001F02EFD4C
:10341000DC2001F02BFD002001F028FDF32001F05D
:1034200025FD002001F022FDE62001F02BFD1120FA
:1034300001F01CFD002001F019FD342001F016FD03
:10344000002001F013FD562001F010FD002001F0D6
:103450000DFD762001F00AFD002001F007FD772028
:1034600001F004FD002001F001FD662001F0FEFCEA
:10347000002001F0FBFC882001F0F8FC002001F0A6
:10348000F5FC992001F0F2FC002001F0EFFCBB20DC
:1034900001F0ECFC002001F0E9FC992001F0E6FCD1
:1034A000002001F0E3FC662001F0E0FC002001F0C8
:1034B000DDFC552001F0DAFC002001F0D7FC55209E
:1034C00001F0D4FC002001F0D1FC452001F0CEFC3D
:1034D000002001F0CBFC432001F0C8FC002001F0EB
:1034E000C5FC442001F0C2FC002001F0BFFCE72035
:1034F00001F0C8FC322001F0B9FC002001F0B6FC5C
:10350000552001F0B3FC002001F0B0FC762001F062
:10351000ADFC002001F0AAFC662001F0A7FC002011
:1035200001F0A4FC672001F0A1FC002001F09EFC4A
:10353000672001F09BFC002001F098FC872001F03F
:1035400095FC002001F092FC992001F08FFC0020F6
:1035500001F08CFCBB2001F089FC002001F086FC0E
:10356000992001F083FC002001F080FC772001F01D
:103570007DFC002001F07AFC442001F077FC002063
:1035800001F074FC562001F071FC002001F06EFC8B
:10359000232001F06BFC002001F068FC332001F0D7
:1035A00065FC002001F062FC452001F05FFC00207A
:1035B00001F05CFCE82001F065FC002001F056FC05
:1035C000002001F053FC992001F050FC002001F094
:1035D0004DFC872001F04AFC002001F047FC8820C8
:1035E00001F044FC002001F041FC772001F03EFC9A
:1035F000002001F03BFC662001F038FC002001F0C7
:1036000035FC882001F032FC002001F02FFCAA20BC
:1036100001F02CFC002001F029FCBB2001F026FC6D
:10362000002001F023FC992001F020FC002001F093
:103630001DFC662001F01AFC002001F017FC55204B
:1036400001F014FC002001F011FC552001F00EFCEB
:10365000002001F00BFC442001F008FC002001F0E8
:1036600005FC442001F002FC002001F0FFFB552086
:1036700001F0FCFB002001F0F9FBE92001F002FC65
:10368000AA2001F0F3FB002001F0F0FB002001F084
:10369000EDFB002001F0EAFB002001F0F3FBAA2083
:1036A00001F0E4FBCF2001F0EDFB002001F0DEFB98
:1036B000002001F0DBFB002001F0D8FB002001F02E
:1036C000D5FB002001F0D2FB002001F0CFFB002051
:1036D00001F0CCFB002001F0C9FB002001F0C6FB8B
:1036E000002001F0C3FB002001F0C0FB002001F02E
:1036F000BDFB002001F0BAFB002001F0B7FB002069
:1037000001F0B4FB002001F0B1FB002001F0AEFBA2
:10371000F02001F0B7FB002001F0A8FB502001F0E1
:10372000A5FB002001F0A2FB002001F09FFB002080
:1037300001F09CFBF32001F0A5FB002001F096FBBB
:10374000F92001F09FFB062001F090FB102001F012
:103750008DFB292001F08AFB002001F087FB3A2035
:1037600001F090FB552001F081FB112001F08AFB54
:10377000642002F0AFF9292001F084FB352001F02C
:1037800081FB002001F072FB512001F07BFBFF2048
:1037900001F06CFB532001F075FB2C2001F066FB5F
:1037A000552001F06FFB822001F060FB2C2001F01E
:1037B00069FB01F048B8FE48808845F21051884204
:1037C0007ED155214FF4704001F072FBAA214FF2D7
:1037D000010001F06DFB52214FF2020001F068FB85
:1037E00008214FF2030001F063FB01214FF20400B6
:1037F00001F05EFB0D214FF4304001F059FB0D212B
:103800004BF2010001F054FB0D214BF2020001F0DC
:103810004FFB34214FF4364001F04AFB34214BF288
:10382000016001F045FB34214BF2026001F040FBE6
:103830000D214FF4314001F03BFB0D214BF2011003
:1038400001F036FB0D214BF2021001F031FB342167
:103850004FF4374001F02CFB34214BF2017001F0A2
:1038600027FB34214BF2027001F022FB00214FF4C0
:10387000324001F01DFB00214BF2012001F018FB4A
:1038800000214BF2022001F013FB24214FF43840B9
:1038900001F00EFB24214BF6010001F009FB24216D
:1038A0004BF6020001F004FB01214FF43F4001F010
:1038B000FFFA0F214FF4334001F0FAFA0F2100E034
:1038C000FEE34BF2013001F0F3FA0F214BF202302C
:1038D00001F0EEFA34214FF4394001F0E9FA3421D5
:1038E0004BF6011001F0E4FA34214BF6021001F01E
:1038F000DFFA08214FF4354001F0DAFA08214BF2E3
:10390000015001F0D5FA08214BF2025001F0D0FA33
:1039100003214FF4424001F0CBFA24214FF43A4006
:1039200001F0C6FA24214BF6012001F0C1FA24214E
:103930004BF6022001F0BCFA00214FF43C4001F0AC
:10394000B7FA78214BF6014001F0B2FA00214BF6AC
:10395000024001F0ADFA00214FF43D4001F0A8FA19
:1039600078214BF6015001F0A3FA00214BF60250EA
:1039700001F09EFA00214FF43E4001F099FA6421D3
:103980004BF6016001F094FA00214FF4514001F030
:103990008FFA33214DF2011001F08AFA00214DF225
:1039A000021001F085FA34214DF2031001F080FA83
:1039B00000214DF2041001F07BFA3A214DF205107E
:1039C00001F076FA00214DF2061001F071FA4A2159
:1039D0004DF2071001F06CFA00214DF2081001F0D1
:1039E00067FA5C214DF2091001F062FA00214DF2F4
:1039F0000A1001F05DFA81214DF20B1001F058FA26
:103A000000214DF20C1001F053FAA6214DF20D10D9
:103A100001F04EFA00214DF20E1001F049FAE521B5
:103A20004DF20F1001F044FA01214DF2101001F097
:103A30003FFA13214DF2111001F03AFA01214DF233
:103A4000121001F035FA54214DF2131001F030FA42
:103A500001214DF2141001F02BFA82214DF21510C4
:103A600001F026FA01214DF2161001F021FACA21C7
:103A70004DF2171001F01CFA02214DF2181001F05E
:103A800017FA00214DF2191001F012FA02214DF23D
:103A90001A1001F00DFA01214DF21B1001F008FA85
:103AA00002214DF21C1001F003FA34214DF21D10D9
:103AB00001F0FEF902214DF21E1001F0F9F9672123
:103AC0004DF21F1001F0F4F902214DF2201001F027
:103AD000EFF984214DF2211001F0EAF902214DF2B3
:103AE000221001F0E5F9A4214DF2231001F0E0F9D4
:103AF00002214DF2241001F0DBF9B7214DF225101F
:103B000001F0D6F902214DF2261001F0D1F9CF21B2
:103B10004DF2271001F0CCF902214DF2281001F0EE
:103B2000C7F9DE214DF2291001F0C2F902214DF250
:103B30002A1001F0BDF9F2214DF22B1001F0B8F975
:103B400002214DF22C1001F0B3F9FE214DF22D109F
:103B500001F0AEF903214DF22E1001F0A9F9102168
:103B60004DF22F1001F0A4F903214DF2301001F0B5
:103B70009FF933214DF2311001F09AF903214DF2F2
:103B8000321001F095F96D214DF2331001F090F9EA
:103B900000214FF4524001F08BF933214DF2012006
:103BA00001F086F900214DF2022001F081F901E0D7
:103BB0008415002034214DF2032001F079F9002111
:103BC0004DF2042001F074F93A214DF2052001F084
:103BD0006FF900214DF2062001F06AF94A214DF2F9
:103BE000072001F065F900214DF2082001F060F98D
:103BF0005C214DF2092001F05BF900214DF20A2011
:103C000001F056F981214DF20B2001F051F900210C
:103C10004DF20C2001F04CF9A6214DF20D2001F0DF
:103C200047F900214DF20E2001F042F9E5214DF255
:103C30000F2001F03DF901214DF2102001F038F97B
:103C400013214DF2112001F033F901214DF2122020
:103C500001F02EF954214DF2132001F029F9012130
:103C60004DF2142001F024F982214DF2152001F0CB
:103C70001FF901214DF2162001F01AF9CA214DF267
:103C8000172001F015F902214DF2182001F010F96A
:103C900000214DF2192001F00BF902214DF21A20FA
:103CA00001F006F901214DF21B2001F001F902217A
:103CB0004DF21C2001F0FCF834214DF21D2001F0E2
:103CC000F7F802214DF21E2001F0F2F867214DF2C3
:103CD0001F2001F0EDF802214DF2202001F0E8F85C
:103CE00084214DF2212001F0E3F802214DF222203F
:103CF00001F0DEF8A4214DF2232001F0D9F80221D1
:103D00004DF2242001F0D4F8B7214DF2252001F026
:103D1000CFF802214DF2262001F0CAF8CF214DF252
:103D2000272001F0C5F802214DF2282001F0C0F84B
:103D3000DE214DF2292001F0BBF802214DF22A20AC
:103D400001F0B6F8F2214DF22B2001F0B1F802217A
:103D50004DF22C2001F0ACF8FE214DF22D2001F0A7
:103D6000A7F803214DF22E2001F0A2F810214DF208
:103D70002F2001F09DF803214DF2302001F098F83A
:103D800033214DF2312001F093F803214DF232201E
:103D900001F08EF86D214DF2332001F089F80021F9
:103DA0004FF4534001F084F833214DF2013001F01B
:103DB0007FF800214DF2023001F07AF834214DF203
:103DC000033001F075F800214DF2043001F070F875
:103DD0003A214DF2053001F06BF800214DF206302A
:103DE00001F066F84A214DF2073001F061F8002138
:103DF0004DF2083001F05CF85C214DF2093001F021
:103E000057F800214DF20A3001F052F881214DF2AD
:103E10000B3001F04DF800214DF20C3001F048F864
:103E2000A6214DF20D3001F043F800214DF20E3085
:103E300001F03EF8E5214DF20F3001F039F8012193
:103E40004DF2103001F034F813214DF2113001F031
:103E50002FF801214DF2123001F02AF854214DF2D1
:103E6000133001F025F801214DF2143001F020F853
:103E700082214DF2153001F01BF801214DF2163070
:103E800001F016F8CA214DF2173001F011F80221A5
:103E90004DF2183001F00CF800214DF2193001F00C
:103EA00007F802214DF21A3001F002F801214DF21B
:103EB0001B3000F0FDFF02214DF21C3000F0F8FF36
:103EC00034214DF21D3000F0F3FF02214DF21E307F
:103ED00000F0EEFF67214DF21F3000F0E9FF0221F4
:103EE0004DF2203000F0E4FF84214DF2213000F04B
:103EF000DFFF02214DF2223000F0DAFFA4214DF263
:103F0000233000F0D5FF02214DF2243000F0D0FF25
:103F1000B7214DF2253000F0CBFF02214DF22630C3
:103F200000F0C6FFCF214DF2273000F0C1FF022183
:103F30004DF2283000F0BCFFDE214DF2293000F0B8
:103F4000B7FF02214DF22A3000F0B2FFF2214DF20C
:103F50002B3000F0ADFF02214DF22C3000F0A8FF15
:103F6000FE214DF22D3000F0A3FF03214DF22E3043
:103F700000F09EFF10214DF22F3000F099FF032139
:103F80004DF2303000F094FF33214DF2313000F02B
:103F90008FFF03214DF2323000F08AFF6D214DF288
:103FA000333000F085FF00214FF4544000F080FFD3
:103FB00033214DF2014000F07BFF00214DF2024021
:103FC00000F076FF34214DF2034000F071FF002134
:103FD0004DF2044000F06CFF3A214DF2054000F034
:103FE00067FF00214DF2064000F062FF4A214DF2CA
:103FF000074000F05DFF00214DF2084000F058FF3F
:104000005C214DF2094000F053FF00214DF20A40BF
:1040100000F04EFF81214DF20B4000F049FF0021DE
:104020004DF20C4000F044FFA6214DF20D4000F08F
:104030003FFF00214DF20E4000F03AFFE5214DF226
:104040000F4000F035FF01214DF2104000F030FF2D
:1040500013214DF2114000F02BFF01214DF21240CF
:1040600000F026FF54214DF2134000F021FF012102
:104070004DF2144000F01CFF82214DF2154000F07B
:1040800017FF01214DF2164000F012FFCA214DF238
:10409000174000F00DFF02214DF2184000F008FF1C
:1040A00000214DF2194000F003FF02214DF21A40A9
:1040B00000F0FEFE01214DF21B4000F0F9FE00E091
:1040C00003E302214DF21C4000F0F2FE34214DF2D8
:1040D0001D4000F0EDFE02214DF21E4000F0E8FE12
:1040E00067214DF21F4000F0E3FE02214DF2204017
:1040F00000F0DEFE84214DF2214000F0D9FE0221C5
:104100004DF2224000F0D4FEA4214DF2234000F0F5
:10411000CFFE02214DF2244000F0CAFEB7214DF23D
:10412000254000F0C5FE02214DF2264000F0C0FE01
:10413000CF214DF2274000F0BBFE02214DF2284076
:1041400000F0B6FEDE214DF2294000F0B1FE022162
:104150004DF22A4000F0ACFEF2214DF22B4000F06F
:10416000A7FE02214DF22C4000F0A2FEFE214DF2EE
:104170002D4000F09DFE03214DF22E4000F098FEF0
:1041800010214DF22F4000F093FE03214DF23040FC
:1041900000F08EFE33214DF2314000F089FE032104
:1041A0004DF2324000F084FE6D214DF2334000F0BC
:1041B0007FFE00214FF4554000F07AFE33214DF28E
:1041C000015000F075FE00214DF2025000F070FE2B
:1041D00034214DF2035000F06BFE00214DF20450EB
:1041E00000F066FE3A214DF2055000F061FE00211C
:1041F0004DF2065000F05CFE4A214DF2075000F0EF
:1042000057FE00214DF2085000F052FE5C214DF2A5
:10421000095000F04DFE00214DF20A5000F048FE1A
:1042200081214DF20B5000F043FE00214DF20C5065
:1042300000F03EFEA6214DF20D5000F039FE0021A7
:104240004DF20E5000F034FEE5214DF20F5000F01B
:104250002FFE01214DF2105000F02AFE13214DF2E5
:10426000115000F025FE01214DF2125000F020FE09
:1042700054214DF2135000F01BFE01214DF2145059
:1042800000F016FE82214DF2155000F011FE0121C2
:104290004DF2165000F00CFECA214DF2175000F0FE
:1042A00007FE02214DF2185000F002FE00214DF2EF
:1042B000195000F0FDFD02214DF21A5000F0F8FDFA
:1042C00001214DF21B5000F0F3FD02214DF21C5074
:1042D00000F0EEFD34214DF21D5000F0E9FD022109
:1042E0004DF21E5000F0E4FD67214DF21F5000F02A
:1042F000DFFD02214DF2205000F0DAFD84214DF265
:10430000215000F0D5FD02214DF2225000F0D0FDE9
:10431000A4214DF2235000F0CBFD02214DF2245098
:1043200000F0C6FDB7214DF2255000F0C1FD02217D
:104330004DF2265000F0BCFDCF214DF2275000F089
:10434000B7FD02214DF2285000F0B2FDDE214DF202
:10435000295000F0ADFD02214DF22A5000F0A8FDD9
:10436000F2214DF22B5000F0A3FD02214DF22C5012
:1043700000F09EFDFE214DF22D5000F099FD03212D
:104380004DF22E5000F094FD10214DF22F5000F010
:104390008FFD03214DF2305000F08AFD33214DF2A4
:1043A000315000F085FD03214DF2325000F080FDC8
:1043B0006D214DF2335000F07BFD00214FF456404B
:1043C00000F076FD33214DF2016000F071FD002117
:1043D0004DF2026000F06CFD34214DF2036000F0FC
:1043E00067FD00214DF2046000F062FD3A214DF2BC
:1043F000056000F05DFD00214DF2066000F058FD03
:104400004A214DF2076000F053FD00214DF2086093
:1044100000F04EFD5C214DF2096000F049FD0021E5
:104420004DF20A6000F044FD81214DF20B6000F076
:104430003FFD00214DF20C6000F03AFDA6214DF247
:104440000D6000F035FD00214DF20E6000F030FDF2
:10445000E5214DF20F6000F02BFD01214DF21060BF
:1044600000F026FD13214DF2116000F021FD012125
:104470004DF2126000F01CFD54214DF2136000F06B
:1044800017FD01214DF2146000F012FD82214DF262
:10449000156000F00DFD01214DF2166000F008FDE1
:1044A000CA214DF2176000F003FD02214DF21860A1
:1044B00000F0FEFC00214DF2196000F0F9FC022131
:1044C0004DF21A6000F0F4FC01214DF21B6000F087
:1044D000EFFC02214DF21C6000F0EAFC34214DF2A9
:1044E0001D6000F0E5FC02214DF21E6000F0E0FCD2
:1044F00067214DF21F6000F0DBFC02214DF22060CD
:1045000000F0D6FC84214DF2216000F0D1FC0221A4
:104510004DF2226000F0CCFCA4214DF2236000F0AB
:10452000C7FC02214DF2246000F0C2FCB7214DF21D
:10453000256000F0BDFC02214DF2266000F0B8FCC1
:10454000CF214DF2276000F0B3FC02214DF228602C
:1045500000F0AEFCDE214DF2296000F0A9FC022142
:104560004DF22A6000F0A4FCF2214DF22B6000F025
:104570009FFC02214DF22C6000F09AFCFE214DF2CE
:104580002D6000F095FC03214DF22E6000F090FCB0
:1045900010214DF22F6000F08BFC03214DF23060B2
:1045A00000F086FC33214DF2316000F081FC0321E4
:1045B0004DF2326000F07CFC6D214DF2336000F072
:1045C00077FC55214FF4704000F072FCAA214FF2A5
:1045D000010000F06DFC52214FF2020000F068FC77
:1045E00008214FF2030000F063FC00214FF20400A9
:1045F00000F05EFCCC214FF4314000F059FC00216A
:104600004BF2011000F054FC05214FF4364000F04D
:104610004FFC70214FF4374000F04AFC70214BF200
:10462000017000F045FC01214FF4384000F040FCDF
:1046300003214BF6010000F03BFC03214BF6020086
:1046400000F036FC03214BF6030000F031FC0221A0
:104650004FF43C4000F02CFC00214BF6014000F0F0
:1046600027FC00214BF6024000F022FCD0214FF441
:10467000494000F01DFC02214CF6011000F018FC2E
:1046800050214CF6021000F013FC50214CF60310A0
:1046900000F00EFC50214CF6041000F009FC002143
:1046A0004FF4545000F004FC55214FF4685000F0D2
:1046B000FFFB4FF4885000F0E5FB782001F016FA7C
:1046C0004FF4245000F0DEFBBDE08A48808841F6BC
:1046D00063118842F8D1E22000F0D4FB1D2000F0E5
:1046E000C5FB022000F0C2FB042000F0BFFB6420E9
:1046F00001F0FCF9E02000F0C5FB012000F0B6FB62
:104700000A2001F0E7F9E02000F0BCFB032000F0F4
:10471000ADFB0C2001F0DEF9012000F0B3FB0A2014
:1047200001F0D8F9E62000F0ADFB2F2000F09EFB51
:10473000FF2000F09BFBFF2000F098FBB02000F072
:10474000A1FB202000F092FB002000F08FFB032053
:1047500000F08CFB40F21F3000F088FB012000F0DD
:1047600085FB40F2DF1000F081FB002000F07EFBB3
:10477000B42000F087FB042000F078FB40F21F40DB
:1047800000F074FB002000F071FB2E2000F06EFBA7
:10479000002000F06BFB002000F068FB002000F020
:1047A00065FB002000F062FBB62000F06BFB0220EE
:1047B00000F05CFB4FF4037000F058FB002000F0A9
:1047C00055FB172000F052FB152000F04FFB002096
:1047D00000F04CFB002000F049FBF02000F052FB01
:1047E000032000F043FB292000F04CFBD02000F018
:1047F00049FB002000F03AFBBE2000F043FB0520FF
:1048000000F034FBFE2000F031FB012000F02EFB15
:10481000002000F02BFB002000F028FB002000F01F
:1048200025FBB82000F02EFB032000F01FFB012029
:1048300000F01CFBBA2000F025FB012000F016FB65
:10484000642000F067F82B48808849F241318842A3
:1048500017D02848808847F28971884211D02548AE
:10486000808845F2103188420BD02248808845F27A
:104870001051884205D01F48808841F66311884254
:104880002CD11D48006820F00F004FF02041C1F8E6
:104890001C010846D0F81C0120F47060C1F81C010E
:1048A0000846D0F81C0140F00300C1F81C01114873
:1048B000808847F28971884208D10F48006840F427
:1048C00040704FF02041C1F81C0107E00A48006821
:1048D00040F400704FF02041C1F81C010020FDF7AA
:1048E00061FB0120054908604FF6FF70FDF740FBB2
:1048F00015B000BD841500201C0100A0BC82404200
:1049000008B5034800880090BDF8000008BD00000D
:104910008000006C70B52DED048B0446BE2000F0C5
:10492000B1FA052000F0A2FA204602F00CFC41EC9E
:10493000190B9FED0E0B53EC102B02F017FC41EC02
:10494000180B02F0D3FB85B2284600F08FFA012045
:1049500000F08CFAFF2000F089FA002000F086FABF
:10496000002000F083FABDEC048B70BD66666666BD
:1049700066660440F0B50546002400278948807922
:10498000012805D18748808841F66311884208D103
:1049900084488079F0B98348808841F66311884261
:1049A00018D1082D15D2DFE805F00406080A0C0E10
:1049B000101206250DE007250BE0042509E005256A
:1049C00007E0012505E0002503E0032501E00225BD
:1049D00000BF00BF082D1CD2DFE805F00406090C5B
:1049E0000F12151800BF14E044F0800411E044F0E9
:1049F00040040EE044F0C0040BE044F0200408E062
:104A000044F0600405E044F0A00402E044F0E00457
:104A100000BF00BF6348808845F21051884202D130
:104A20004FF4585700E036275E48808849F24131FC
:104A3000884205D05B48808847F28971884201D15D
:104A400044F008042146384600F032FA5548808880
:104A500041F6631188421DD004F0200068B151482E
:104A6000008850494988884214DA4E4806884088B0
:104A70004C490880084646800CE04A48008849496D
:104A80004988884206DD47480688408845490880AD
:104A9000084646804348808845F21051884252D1EA
:104AA0004049488900F0EEF9002000F0DFF93D4967
:104AB0004989491C88B200F0E5F9002000F0D6F9D8
:104AC00038494989891C88B200F0DCF935490988E0
:104AD000491EC1F30F2000F0C9F932494989C91CA8
:104AE00088B200F0CFF92F490978491EC8B200F00A
:104AF000BDF92C49888900F0C5F9002000F0B6F90D
:104B000028498989491C88B200F0BCF9002000F0CE
:104B1000ADF924498989891C88B200F0B3F921498B
:104B20004988491EC1F30F2000F0A0F91D49898969
:104B3000C91C88B200F0A6F91A498978491EC8B282
:104B400000F094F92DE01749488900F09BF9002006
:104B500000F08CF9002000F089F912490988491EFB
:104B6000C1F30F2000F082F90E490978491EC8B23E
:104B700000F07CF90B49888900F084F9002000F0EE
:104B800075F9002000F072F906494988491EC1F301
:104B90000F2000F06BF903498978491EC8B200F074
:104BA00065F9F0BD8415002010B502460C46454855
:104BB000808841F66311884247D142488079A8B97C
:104BC00040480088401E801A82B23E49488900F061
:104BD00059F9002000F04AF9002000F047F91012BE
:104BE00000F044F9D0B200F041F916E035494889A7
:104BF00000F048F9101200F039F9D0B200F036F99F
:104C000030490988491EC1F30F2000F02FF92D49C2
:104C10000978491EC8B200F029F92A49888900F0AC
:104C200031F9201200F022F9E0B200F01FF9254915
:104C30004988491EC1F30F2000F018F921498978ED
:104C4000491EC8B200F012F93AE01E48808845F2C9
:104C50001051884220D11B49488900F013F91012E5
:104C600000F004F917494989491C88B200F00AF993
:104C7000D0B200F0FBF81349888900F003F9201244
:104C800000F0F4F80F498989491C88B200F0FAF85D
:104C9000E0B200F0EBF813E00A49488900F0F2F8BE
:104CA000101200F0E3F8D0B200F0E0F8054988896E
:104CB00000F0E8F8201200F0D9F8E0B200F0D6F8E1
:104CC00010BD0000841500202DE9F84F80460F46E6
:104CD00016461C46BB462046E31704EB5373DB1015
:104CE00021464FEAE47C04EB5C7C4FEAEC0CA4EB3D
:104CF000CC0CBCF1000F02D04FF0010C01E04FF0E2
:104D0000000C6344224604EBD27C4FEA6C0C03FB9C
:104D10000CF3DBB20093A6F12000C6B200255EE0E2
:104D20000C2C07D106EB46002F4901EB800010F850
:104D300005901BE0102C05D12C4800EB061010F854
:104D4000059013E0182C07D106EBC600284901EBAB
:104D5000800010F8059009E0202C05D1254800EBD3
:104D6000C61010F8059001E0BDE8F88F4FF0000A7A
:104D70002FE009F0800030B11F48394602684046F4
:104D8000FDF7A8F907E00A9828B91C4839460268D7
:104D90004046FDF79FF94FEA49604FEA1069781CD9
:104DA00087B217484088B84200DCDDE7A7EB0B006C
:104DB000A0420AD15F4608F101001FFA80F81048AE
:104DC0000088404500DCCFE706E00AF1010000F072
:104DD000FF0ABAF1080FCCDB00BF681CC5B200980F
:104DE00085429DDB00BFBFE78A730008FE7700089D
:104DF000EE7D00084A8B00082C00002030000020C7
:104E0000841500202DE9F84704460D469046994642
:104E1000DDE9096704F0FF0A08EB04001FFA80F8D7
:104E200009EB05001FFA80F916E0444502DB544601
:104E3000A81985B24D4500DB14E0002000903A78B7
:104E4000334629462046FFF73FFF304606EBD07138
:104E500004EB61018CB27F1C38787E2802DC387844
:104E60002028E2DA00BFBDE8F887000001B5BDF8F0
:104E700000000090BDF800000149088008BD000056
:104E80008000006C01B5BDF800000090BDF8000086
:104E90000149088008BD00007E00006C02480089BE
:104EA0000249088070470000841500207E00006CD5
:104EB000034A10804FF0D842A2F8801070470000DB
:104EC0007E00006C00B587B000BF00200190124842
:104ED000006840F02000104908600846006800F0B3
:104EE0002000019000BF00BF4FF4C060029001207D
:104EF000039004900320059002A90848FBF790FD59
:104F0000012251020548FBF793FE0122910203485A
:104F1000FBF78EFE07B000BD30380240001402409F
:104F200000BFFEE77047704710B51348134908608B
:104F30004FF482704860002110488160C1600221F6
:104F4000016101214161490281613821C161002172
:104F50000162416281620721C162FCF78BFA074856
:104F60000068006840F04000044909680860FF20BC
:104F700000F006F810BD000000300140941500203C
:104F800001B582B04FF47A70012301AA02A9009002
:104F90000248FCF7F9FA9DF804000EBD94150020B4
:104FA00010490968096821F040010E4A1268116031
:104FB0000C49096809684FF6C7721140094A12681E
:104FC00011600849096809680143064A12681160BE
:104FD00004490968096841F04001024A12681160F9
:104FE00070470000941500207CB504460D46164617
:104FF000164800681821B0FBF1F01549B0FBF1F03C
:105000004FF47A71484301906068B0F5827F0DD10A
:105010002B46002280212046009600F01BF898B114
:10502000606D40F02000606503207CBD00BF0198EA
:1050300000B908E00198401E019020688068C0F324
:10504000C0100028F3D100BF0020EEE708000020C8
:1050500040420F002DE9F04104460E4617461D461A
:10506000DDF818803EE0681CD8B3FBF7EDFDA0EB3F
:105070000800A84200D2A5BB2068406820F0E000EC
:10508000216848606068B0F5827F0DD1A068B0F5F6
:10509000004F03D0A068B0F5806F05D1206800688C
:1050A00020F0400021680860A06AB0F5005F0DD1D3
:1050B00000BF2068006820F4005021680860206864
:1050C000006840F400502168086000BF012084F8A7
:1050D000510000BF002084F8500000BF0320BDE84D
:1050E000F081FFE7206880683040B04201D10120A4
:1050F00000E00020B842B6D10020F0E77047000081
:105100002DE9F04192B00446884615461E46002718
:1051100000BF002000902A48006840F080502849D5
:1051200008600846006800F08050009000BF00BF93
:1051300000BF002000902348006840F480402149CF
:1051400008600846006800F48040009000BF00BF7F
:10515000012006900004079002200C9041050D915B
:10516000CDF838800F941095119606A8FBF75EFFD6
:1051700007460FB100BFFEE70F200190022002900A
:10518000002003904FF4A05004904FF480500590FD
:10519000052101A8FBF70CFE07460FB100BFFEE793
:1051A000FBF74CFD41F20101884205D10648006839
:1051B00040F480700449086012B0BDE8F08100003E
:1051C0004038024000700040003C024010B5FBF740
:1051D00041FD10BD1448006840F470001249086099
:1051E0001248006840F001001049086000200F4993
:1051F000083108600D4800680D4908400B490860F7
:105200000C48091D0860081F006820F48020091F51
:105210000860002005490C3108604FF00060024929
:10522000803908607047000088ED00E000380240D7
:10523000FFFFF6FE1030002410B50E480068C0686D
:1052400000F0010078B10C49086980470020094945
:105250000968486200BF642006490968C862642181
:105260000448C16000BF6FF001000249096808618D
:1052700010BD0000EC1500207400002010B502687D
:10528000294B98420ED0B0F1804F0BD0274B98425B
:1052900008D0274B984205D0264B984202D0264B87
:1052A000984203D122F070024B681A431E4B984279
:1052B00020D0B0F1804F1DD01C4B98421AD01C4B0F
:1052C000984217D01B4B984214D01B4B984211D0D8
:1052D0001A4B98420ED01A4B98420BD0194B984259
:1052E00008D0194B984205D0184B984202D0184B61
:1052F000984203D122F44072CB681A4322F0800313
:105300004C6943EA040202608B68C3620B688362E3
:10531000054B984202D0084B984201D10B690363B8
:105320000123436110BD0000000001400004004063
:1053300000080040000C0040000401400040014013
:10534000004401400048014000180040001C00409B
:105350000020004038B505460C4600BF00200090F4
:105360001148006840F004000F49086008460068D2
:1053700000F00400009000BF00BF032211461E2071
:10538000FBF7C3FC1E20FBF7B0FC08480849086087
:105390000846446000218160C5600161FCF734FB70
:1053A0000348FCF74CFB38BD403802400008004081
:1053B000EC15002070B50546AC6B0020E085E0845C
:1053C0002046FCF751FB70BD0168C96821F490715B
:1053D0000268D1600168496921F0010102685161E8
:1053E000202180F83A10704710B504462068C06844
:1053F00020F040002168C860202084F83900204651
:10540000FCF7DEFC002010BD70B5044694F83A00AD
:1054100022284AD1A068B0F5805F13D1A56A20691F
:1054200040B920684068C0F308002880A06A801C4A
:10543000A06219E020684068C0B22880A06A401CC1
:10544000A06211E0206938B920684068C1B2A26A40
:10545000501CA062117007E02068406800F07F01D6
:10546000A26A501CA0621170E08D401E80B2E085DF
:10547000C8B92068C06820F020002168C860206892
:10548000C06820F480702168C8602068406920F0FE
:10549000010021684861202084F83A002046FCF78A
:1054A0008EFC002070BD0020FCE70220FAE700001F
:1054B0002DE9F04104462068006920F44050E1687D
:1054C0000843216808612169A068084361690843AD
:1054D000E16940EA01052068C06849F20C6188432F
:1054E00028432168C8602068406920F44070A169A1
:1054F000084321684861E069B0F5004F7ED1C44996
:105500002068884203D0C349206888425DD1FBF7F8
:1055100025FD00EBC00101EB001061684900B0FB04
:10552000F1F06421B0FBF1F00601FBF717FD00EB91
:10553000C00101EB001061684900B0FBF1F7FBF717
:105540000DFD00EBC00101EB001061684900B0FBEC
:10555000F1F06421B0FBF1F000EBC00101EB0010B1
:10556000A7EB8000322101EBC0006421B0FBF1F019
:1055700000F0F80006EB4006FBF7F0FC00EBC00182
:1055800001EB001061684900B0FBF1F7FBF7E6FCA6
:1055900000EBC00101EB001061684900B0FBF1F0C5
:1055A0006421B0FBF1F000EBC00101EB0010A7EBB0
:1055B0008000322101EBC0006421B0FBF1F000F06B
:1055C000070030442168886020E1FBF7B7FC00EB5E
:1055D000C00101EB001061684900B0FBF1F06421EB
:1055E000B0FBF1F00601FBF7A9FC00EBC00101EBF9
:1055F000001061684900B0FBF1F700E045E0FBF7FF
:105600009DFC00EBC00101EB001061684900B0FB9C
:10561000F1F06421B0FBF1F000EBC00101EB0010F0
:10562000A7EB8000322101EBC0006421B0FBF1F058
:1056300000F0F80006EB4006FBF780FC00EBC00131
:1056400001EB001061684900B0FBF1F7FBF776FC55
:1056500000EBC00101EB001061684900B0FBF1F004
:105660006421B0FBF1F000EBC00101EB0010A7EBEF
:105670008000322101EBC0006421B0FBF1F000F0AA
:105680000700304421688860C0E061492068884292
:1056900003D06049206888425CD1FBF75FFC00EBD7
:1056A000C00101EB001061688900B0FBF1F6FBF767
:1056B00055FC00EBC00101EB001061688900B0FBF4
:1056C000F1F06421B0FBF1F000EBC00101EB001040
:1056D000A6EB8000322101EB00106421B0FBF1F059
:1056E00000F0F006FBF73AFC00EBC00101EB001004
:1056F00061688900B0FBF1F06421B0FBF1F006EBCA
:105700000016FBF72BFC00EBC00101EB00106168F9
:105710008900B0FBF1F7FBF721FC00EBC00101EBC6
:10572000001061688900B0FBF1F06421B0FBF1F07A
:1057300000EBC00101EB0010A7EB8000322101EB70
:1057400000106421B0FBF1F000F00F00304421683C
:1057500088605BE0FBF7F2FB00EBC00101EB00109F
:1057600061688900B0FBF1F6FBF7E8FB00EBC001D4
:1057700001EB001061688900B0FBF1F06421B0FB1F
:10578000F1F000EBC00101EB0010A6EB800032212C
:1057900001EB00106421B0FBF1F000F0F006FBF724
:1057A000CDFB00EBC00101EB001061688900B0FB8C
:1057B000F1F06421B0FBF1F006EB0016FBF7BEFB45
:1057C00000EBC00101EB001061688900B0FBF1F74C
:1057D000FBF7B4FB00EBC00101EB0010616889002E
:1057E000B0FBF1F06421B0FBF1F000EBC00101EB84
:1057F0000010A7EB8000322101EB00106421B0FB08
:10580000F1F000F00F00304421688860BDE8F081BD
:105810000010014000140140014691F83900212890
:105820002CD18868B0F5805F0FD10A6A1088C0F368
:1058300008000B685860086918B9086A801C08627B
:1058400009E0086A401C086205E00B6A581C0862FF
:1058500018780B685860C88C401E80B2C88458B94C
:105860000868C06820F080000B68D8600868C068CD
:1058700040F040000B68D860002070470220FCE731
:105880002DE9F04104460D4617469846069E21E054
:10589000701CF8B12EB1FBF7D7F9A0EB0800B042AD
:1058A00018D92068C06820F4D0702168C8602068CA
:1058B000406920F0010021684861202084F8390007
:1058C00084F83A0000BF002084F8380000BF0320AD
:1058D000BDE8F081206800682840A84201D101207D
:1058E00000E00020B842D3D00020F1E708B510480E
:1058F00000680068C0F34010B0B16423012269461B
:105900000B48FCF7EDF90B4800684FF6FF71884231
:105910000AD29DF800000849064A126888540548D2
:105920000068401C034908600148FCF79FF808BD67
:10593000F4140020240000206C01002000BFFEE7CA
:1059400010B586B000BF002000901F48006840F0EE
:1059500002001D4908600846006800F0020000903F
:1059600000BF00BF4FF480400190012002900390DF
:105970000320049001A91548FBF752F801201449AF
:105980000860FFF7D1FA0820FFF70AFB00F026F8BD
:1059900010490880084600884EF61871884210D1D8
:1059A000032000F03FF8044604F0010048B900204D
:1059B00007490860B720FFF7E3FA01200649C1F85C
:1059C000B80206B010BD00003038024000040240AA
:1059D000B8824042360000200080404210B50024CA
:1059E00000200E4908609020FFF7CAFA0020FFF758
:1059F000C7FA0020FFF7C4FA0020FFF7C1FAFF2022
:105A0000FFF7BEFA44EA0024FF20FFF7B9FA044387
:105A100001200349C1F8B802204610BDB8824042B7
:105A20000080404270B5044600250026012C04D0B9
:105A3000022C04D0032C06D103E0052605E0352610
:105A400003E0152601E0052600BF00BF002007493E
:105A500008603046FFF794FAFF20FFF791FA0546F9
:105A600001200349C1F8B802284670BDB8824042FF
:105A70000080404202480068C0F3022070470000E6
:105A80000CED00E010B5002804DB0A07130E054AF0
:105A9000135406E00A07140E034A00F00F031B1FFD
:105AA000D45410BD00E400E018ED00E030380A28BE
:105AB00001D2012070470020704700BF70470000EE
:105AC00010B504460420FBF771FF0148046010BDC7
:105AD0001800002030B50446002504E04FF47A7029
:105AE00000F004F86D1CA542F8D330BD70B5034634
:105AF00000224FF0E02675690D4E366803FB06F470
:105B00004FF0E026B16910E04FF0E026B06988421E
:105B10000BD0884202D20E1A324402E02E1A0E44F2
:105B200032440146A24200D300E0EDE700BF70BD61
:105B30001800002000BF054A126802F04002002A47
:105B4000F9D0C2B2014B5A6070470000001001400A
:105B500010B50446206807490840B0F1005F08D13D
:105B60006068054908602068FAF793FB02480068FE
:105B7000804710BD0000FE2F680100201CB54FF0CB
:105B8000000A00260027B14600BFFBF76FF8072385
:105B9000022208214FF4A870FFF7B2FAA820FFF7FD
:105BA0008FFF4FF4E13000F0E1F9FFF78BF9FCF7DC
:105BB00039F9FCF733FBFFF7C3FEFAF761FE4FF448
:105BC00078407E4908607EA010210B46C822CDE9AE
:105BD000001032211E20FFF715F97EA010210B4680
:105BE000C822CDE9001046211E20FFF70BF97CA04A
:105BF00010210B46C822CDE900105A211E20FFF7C4
:105C000001F97BA010210B46C822CDE900106E21BE
:105C10001E20FFF7F7F879A010210B46C822CDE926
:105C2000001082211E20FFF7EDF87AA010210B460C
:105C3000C822CDE9001096211E20FFF7E3F87AA0D4
:105C400010210B46C822CDE90010AA211E20FFF723
:105C5000D9F87AA010210B46C822CDE90010BE2148
:105C60001E20FFF7CFF81F2054490860062178480E
:105C7000FAF72DFE8346594676A0FAF7A5FB0621D2
:105C80007348FAF735FE8346594672A0FAF79CFB33
:105C900006216F48FAF7F8FD002406E06C48015D24
:105CA00071A0FAF791FB601CC4B2062CF6DB83E00E
:105CB0007248006800282DD070480068824525D1C0
:105CC0006E4806684FF0000A00206C4908606CA01E
:105CD000FAF77AFB31466FA0FAF776FB002406E06C
:105CE0007148015D71A0FAF76FFB601CC4B2052C0E
:105CF000F6DB052407E0301B6B4A115C72A0FAF753
:105D000063FB601EC4B2002CF5DC03E05B48008836
:105D10001FFA80FA08F1010000F0FF080A20FFF7DF
:105D2000D9FEB8F11E0F16D16E48006808B90120DF
:105D300000E000206B4908604FF000085FB1781E5A
:105D4000C7B247B94FF6FF70E223F022D22100908C
:105D50001E20FCF739FA0020FCF7A6F80546042DB2
:105D60000CD161A0FAF730FB3246494663A0FAF73E
:105D70002BFB09EB06001FFA80F90026032D1BD12F
:105D800064A0FAF721FB6A48406800F07F40B0F158
:105D9000006F03D16648FFF7DBFE0CE065A0FAF761
:105DA00013FB6BA010210B46C822CDE90010D221B5
:105DB0001E20FFF727F807277AE700002C000020B5
:105DC0004578706C6F7265722053544D333246348F
:105DD0000000000049415020544553540000000089
:105DE00041544F4D40414C49454E54454B000000F5
:105DF000323031372F352F38000000004B45595FC6
:105E000055503A436F70792041505032464C4153BF
:105E1000480000004B4559313A4572617365205383
:105E200052414D20415050004B4559303A52756E09
:105E3000205352414D204150500000004B455932F3
:105E40003A52756E20464C41534820415050000054
:105E500000000020436865636B53756D3A20253060
:105E60003278200A00000000427562626C65536F50
:105E700072743A25303278200D0A00002400002088
:105E8000D3C3BBA7B3CCD0F2BDD3CAD5CDEAB3C977
:105E9000210D0A00B4FAC2EBB3A4B6C83A25644295
:105EA000797465730D0A00006C0100206561726CE5
:105EB0007955534152545F52585F4255463A253006
:105EC0003278200D0A0000006C6173745553415202
:105ED000545F52585F4255463A25303278200D0AB9
:105EE00000000000A4824242BFAACABCB8FCD0C2D3
:105EF000B9CCBCFE2E2E2E0D0A0000006164647227
:105F00003A2564202B206170706C656E733A2564AD
:105F10000D0A0000BFAACABCD6B4D0D0464C41532B
:105F200048D3C3BBA7B4FAC2EB21210D0A0000007D
:105F300000000108B7C7464C415348D3A6D3C3B3AA
:105F4000CCD0F22CCEDEB7A8D6B4D0D0210D0A002A
:105F5000496C6C6567616C20464C41534820415048
:105F600050210000014608687047000010B5044643
:105F70000748084908600846446000218160C16004
:105F8000016181610C214161FBF716FE10BD00002B
:105F900000100140F414002030B595B0054613AB55
:105FA00012AA09A9284600F03FFA044614B1204677
:105FB00015B030BD0020149026E0224909689DF8F4
:105FC000502001EBC20113AB11AA486801A900F0EF
:105FD0002BFA04460CB12046EAE709A901A800F013
:105FE000E1FC60B99DF844009DF84810884201DD4D
:105FF0000220DDE79DF85000124988750AE09DF8FF
:106000005000401CC0B214900E48007D9DF8501006
:106010008842D2DC00BF0B48007D9DF850108842BA
:1060200001D10420C4E714A9284600F0DDFA044693
:106030000CB12046BCE79DF850000249487500208D
:10604000B6E70000740000202DE9F0419AB09C48AA
:10605000847D007DA04202DC1AB0BDE8F081984941
:10606000096801EBC40106AB07AA486808A900F05B
:10607000DBF908A993A0FAF7A7F9002644E09048B5
:10608000008B0121B1400840D8B122218FA0FAF73E
:106090009BF9304600F02EFB8949243147183946D8
:1060A0008BA0FAF791F9222188A0FAF78DF93046F2
:1060B00000F020FB82492431084410A941F8260051
:1060C00018E0304600F016FB7D492431085810A92D
:1060D00041F826007A48C07D30B910A850F8261043
:1060E0007CA0FAF771F905E010A850F826107AA004
:1060F000FAF76AF99DF81C00401EB04202D078A061
:10610000FAF762F9701CC6B29DF81C008642B6DB35
:1061100074A0FAF759F900F03FFB6948407D0B285D
:106120000DD2DFE800F0060D151E27323F4E5F72DC
:1061300087006349096851F834008047054690E0BC
:106140005F4A126852F8341010988847054688E074
:106150005B4B1B6853F83420DDE91001904705467E
:106160007FE0574F3F6857F8343010A807C898476A
:10617000054676E0DFF848C1DCF800C05CF8347012
:1061800010A80FC8B84705466BE01498DFF830C177
:106190000090DCF800C05CF8347010A80FC8B84755
:1061A00005465EE0DDE91401DFF814C1CDE9000128
:1061B000DCF800C05CF8347010A80FC8B84705467A
:1061C0004FE0DDE914121698DFF8F4C0CDE90012B3
:1061D0000290DCF800C05CF8347010A80FC8B84713
:1061E00005463EE0DDE91423DDE91610DFF8D0C0F6
:1061F000CDE90023CDE90210DCF800C05CF8347072
:1062000010A80FC8B84705462BE0DDE91523DDE9E6
:106210001710CDE90123CDE903101498DFF8A0C0D1
:106220000090DCF800C05CF8347010A80FC8B847C4
:10623000054616E0DDE91623DDE91810CDE9022355
:10624000CDE90410DDE91401DFF874C0CDE90001E7
:10625000DCF800C05CF8347010A80FC8B8470546D9
:1062600000BF00BF00F056FA9DF8180001280CD1BD
:106270001348C07D20B929461BA0FAF7A5F807E00E
:1062800029461BA0FAF7A0F802E018A0FAF79CF83C
:106290000B4890F8EC0088B10948D0F8F0000A21CA
:1062A000B0FBF1F201FB12070548D0F8F000B0FB9B
:1062B000F1F83A46414611A0FAF786F800BFCBE65E
:1062C000740000200D0A25732800000025630000DB
:1062D00025730000256C640030582558000000002C
:1062E0002C000000290000003D256C753B0D0A00C4
:1062F0003D305825583B0D0A0000000046756E637E
:1063000074696F6E2052756E2054696D653A25640C
:106310002E2531646D730D0A00000000F0B50346B0
:10632000154600200022002600245BE01F782C2F59
:1063300001D104B901221F78292F01D01F780FB98C
:1063400004B950E0002E3AD11F78302F02DB1F78BD
:10635000392F17DD1F782D2F14D01F782B2F11D038
:106360001F78612F02DB1F78662F0BDD1F78412F0E
:1063700002DB1F78462F05DD1F78582F02D01F78CB
:10638000782F0CD102B12EE01F78612F03DB1F782C
:10639000203F0F7001E01F780F70491C1FE01F782D
:1063A000222F04D102B11EE00126012417E01F783C
:1063B000202F14D01F782C2F11D0FF2613E01F7828
:1063C000222F00D1002402B10DE044B11F785C2FD0
:1063D00002D15B1C471CF8B21F780F70491C471C88
:1063E000F8B25B1CA2E700BF00270F702E70F0BD53
:1063F00010B50446002010700BE020780870641C73
:10640000491C1078401C10701078984201DB012064
:1064100010BD2078202802D020780028EDD100205F
:10642000087000BFF4E700002DE9FF4F85B08046FB
:1064300089460027002004900390012002904FF02D
:10644000000B002544461DE02078202816D005F0DA
:106450007F00052812DA0DB945F0800505F07F00B0
:10646000042803D120782A2800D00EE0207805F0F7
:106470007F010DF80100681CC5B202E0852D00D136
:1064800003E0641C20780028DED100BF8DB100201D
:1064900005F07F010DF8010051A1684600F082FA75
:1064A00018B900210898017002E0012108980170D4
:1064B00000254FF0000A444614E0641C0AF1010074
:1064C00000F0FF0A2078202802D020782A2809D15D
:1064D000204600F0D9F90646282E03D02A2E01D0F6
:1064E000CDF810A02078282802D020780028E4D108
:1064F0004446049810B10498401C04444FF0000A2C
:10650000002654E0207810B94FF0010A50E02078BE
:10651000282803D116B9781CC7B213E0207829289F
:1065200008D13EB917B1781EC7B201E04FF0010A99
:1065300047B93DE02078222804D10EB9012000E0BF
:106540000020064647B9207820282FD0207889F8E7
:10655000000009F1010929E020782C2804D101204C
:106560000290681CC5B214E02078202811D0207851
:1065700028280ED04DB9BBF1050F06DA20780DF8AA
:106580000B000BF1010000F0FF0B0298401CC0B2A1
:106590000290012F0AD10298022807D10298401CCC
:1065A000C0B202900398401CC0B20390641CA9E7DB
:1065B00000BF0398012809D100200DF80B0008A1A5
:1065C000684600F0EFF908B9002003900799039896
:1065D0000870002089F80000504609B0BDE8F08F2F
:1065E000766F6964000000002DE9F043B5B0054600
:1065F0000F460024002604E000213D488155701C10
:10660000C6B20A2EF8DB06E06D1C287818B9012006
:1066100035B0BDE8F08328782828F5D16D1C61E0FD
:1066200034AA69462846FFF779FE064635449DF8A8
:10663000D00020B1012827D0FF284CD149E09DF897
:10664000000000B333A9684600F029F906460EB1F0
:106650000220DDE7204600F04DF825490A31339A43
:106660000A50A1F12400008B0121A1408843204958
:106670001A39088304211E480155601CC4B20A2C33
:1066800001DD0320C4E726E0684600F0A7F9401CBE
:1066900000F0FF08204600F02DF815490A3100EB04
:1066A00001094946684600F08EF911481A38018BF5
:1066B0000120A040014388B20D491A3908830C48D3
:1066C00000F80480601CC4B20A2C01DD03209FE79F
:1066D00001E002209CE700BF2878292801D0287813
:1066E00000B900E09CE700BF3C70002090E700008C
:1066F0008E00002002460020002105E0044B5B5C78
:106700000344D8B24B1CD9B29142F7DB704700006A
:106710008E0000200E480068006900F0010040B1C2
:106720000C48D0F8F0004FF6FF7108440949C1F851
:10673000F0000848D0F8F00005490968496A0844A3
:106740000449C1F8F0000846D0F8F0007047000096
:10675000EC1500207400002010B5044604EBC400C2
:1067600000EB04100122C2EB800081B24FF47A707A
:10677000FEF7F0FD01200149C87510BD740000202E
:1067800010B50246012000E050430B1EA1F10104A8
:10679000E1B2F9D110BD00006FF0010009490968AC
:1067A000086100BF000C07490968C8620146054836
:1067B000C16000BF00200349096848620249C1F86E
:1067C000F0007047EC1500207400002070B51D48E3
:1067D000008800F40040002833D01A4805780020D3
:1067E00019494855194881681748884704461CB913
:1067F0001649C868804721E0134800F0FBF80546B9
:10680000012D00D02C46CCB1012C06D0022C08D092
:10681000032C0AD0042C10D10BE00DA0F9F7D4FD05
:106820000BE00EA0F9F7D0FD07E00FA0F9F7CCFDC3
:1068300003E010A0F9F7C8FD00BF00BF0020014928
:10684000088070BD200000206C0100207400002032
:10685000BAAFCAFDB4EDCEF3210D0A00B2CECAFD27
:10686000B4EDCEF3210D0A00B2CECAFDCCABB6E03A
:10687000210D0A00CEB4D5D2B5BDC6A5C5E4B5C4B8
:10688000BAAFCAFD210D0A000146491C00E0491CAF
:106890000878202801D10029F9D1087870472DE91E
:1068A000F04F05460F4600264FF00A09B3462C4626
:1068B0000020386034E02078392802DC2078302845
:1068C00011DA28782D2802D028782B2800D156B14B
:1068D0002078462802DC2078412804DA20785828DD
:1068E00017D1012E15D12078412801DB4FF0100976
:1068F00028782D2803D14FF0020B6D1C0FE028786B
:106900002B2803D14FF0010B6D1C08E0701CC6B2A0
:1069100005E0207800B904E00120BDE8F08F641C98
:10692000C9E700BF2C46B9F1100F0FD1032E01DAD1
:106930000220F2E72078302806D16078582803D169
:10694000A41CB01EC6B204E00320E6E70EB9042082
:10695000E3E71BE00EB1701EC6B22078392806DCD2
:106960002078302803DB2078A0F1300A02E020787C
:10697000A0F1370A31464846FFF702FF39680AFBA3
:1069800000103860641C207800B900E0E2E700BF26
:10699000BBF1020F04D13868C0F10008C7F80080CD
:1069A0000020BAE702460AE010780B78984201D03E
:1069B00001207047107800B902E0521C491CF3E72F
:1069C00000BF0020F5E706E002780A70027802B9FD
:1069D00002E0401C491CF7E700BF70470146002059
:1069E00005E00A7802B903E0421CD0B2491CF8E77E
:1069F00000BF704710B58CB004461E230BAA03A934
:106A00002046FFF7F5FC0090009810B101200CB073
:106A100010BD9DF82C00044400200B900EE040486F
:106A20009DF82C2050F8221003A8FFF7BBFF00B9F7
:106A300008E09DF82C00401CC0B20B909DF82C0083
:106A40000728ECD300BF9DF82C00072863D2DFE8AD
:106A500000F004053C5E6564630000BF31A0F9F7F7
:106A6000B3FC31A0F9F7B0FC3FA0F9F7ADFC4EA0A4
:106A7000F9F7AAFC5CA0F9F7A7FC6BA0F9F7A4FC56
:106A800079A0F9F7A1FC87A0F9F79EFC8CA0F9F793
:106A90009BFC94A0F9F798FC98A0F9F795FC9DA0B1
:106AA000F9F792FCA2A0F9F78FFCA8A0F9F78CFCEB
:106AB000B4A0F9F789FCC1A0F9F786FCCCA0F9F7DE
:106AC00083FCD8A0F9F780FCA2E216A0F9F77CFCC1
:106AD000E4A0F9F779FC00200B900EE0F148006883
:106AE0009DF82C2000EBC2004168EFA0F9F76CFC88
:106AF0009DF82C00401CC0B20B90EA48007D9DF828
:106B00002C108842EADC07A0F9F75EFC80E205A0C1
:106B1000F9F75AFCCCE179E24DE221E2F4E1000020
:106B2000380000200D0A00002D2D2D2D2D2D2D2D8E
:106B30002D2D2D2D2D2D2D2D2D2D2D2D2D2D2D2D85
:106B400055534D4152542056332E332D2D2D2D2D7E
:106B50002D2D2D2D2D2D2D2D2D2D2D2D2D2D2D2D65
:106B60002D2D2D200D0A00002020202055534D41B1
:106B70005254CAC7D3C9414C49454E54454BBFAA8C
:106B8000B7A2B5C4D2BBB8F6C1E9C7C9B5C4B4AEE3
:106B9000BFDAB5F7CAD4BBA5BDBBD7E9BCFE2CCDC7
:106BA000A8B9FD200D0A0000CBFC2CC4E3BFC9D25C
:106BB000D4CDA8B9FDB4AEBFDAD6FACAD6B5F7D3EC
:106BC000C3B3CCD0F2C0EFC3E6B5C4C8CEBACEBA18
:106BD000AFCAFD2CB2A2D6B4D0D02ED2F2B4CB2CF8
:106BE000C4E3BFC90D0A0000D2D4CBE6D2E2B8FCA0
:106BF000B8C4BAAFCAFDB5C4CAE4C8EBB2CECAFDC8
:106C000028D6A7B3D6CAFDD7D62831302F3136BD06
:106C1000F8D6C62CD6A7B3D6B8BACAFD29A1A2D732
:106C2000D6B7FBB4AE0D0A00A1A2BAAFCAFDC8EB3D
:106C3000BFDAB5D8D6B7B5C8D7F7CEAAB2CECAFD97
:106C4000292CB5A5B8F6BAAFCAFDD7EEB6E0D6A7DF
:106C5000B3D63130B8F6CAE4C8EBB2CECAFD2CB216
:106C6000A2D6A7B3D60D0A00BAAFCAFDB7B5BBD836
:106C7000D6B5CFD4CABE2ED6A7B3D6B2CECAFDCF14
:106C8000D4CABEBDF8D6C6C9E8D6C3B9A6C4DC2CE2
:106C9000D6A7B3D6BDF8D6C6D7AABBBBB9A6C4DCA7
:106CA0002E0D0A00BCBCCAF5D6A7B3D63A777777C3
:106CB0002E6F70656E6564762E636F6D0D0A000031
:106CC00055534D415254D3D037B8F6CFB5CDB3C399
:106CD000FCC1EE28B1D8D0EBD0A1D0B4293A0D0A2E
:106CE000000000003F3A202020202020BBF1C8A156
:106CF000B0EFD6FAD0C5CFA20D0A000068656C705F
:106D00003A202020BBF1C8A1B0EFD6FAD0C5CFA25F
:106D10000D0A00006C6973743A202020BFC9D3C3E8
:106D2000B5C4BAAFCAFDC1D0B1ED0D0A0A0000006A
:106D300069643A2020202020BFC9D3C3BAAFCAFD5E
:106D4000B5C44944C1D0B1ED0D0A0A006865783A6E
:106D500020202020B2CECAFD3136BDF8D6C6CFD411
:106D6000CABE2CBAF3B8FABFD5B8F12BCAFDD7D634
:106D7000BCB4D6B4D0D0BDF8D6C6D7AABBBB0D0A1A
:106D80000A0000006465633A20202020B2CECAFDCC
:106D90003130BDF8D6C6CFD4CABE2CBAF3B8FABFCC
:106DA000D5B8F12BCAFDD7D6BCB4D6B4D0D0BDF877
:106DB000D6C6D7AABBBB0D0A0A00000072756E7456
:106DC000696D653A312CBFAAC6F4BAAFCAFDD4CBFF
:106DD000D0D0BCC6CAB13B302CB9D8B1D5BAAFCA35
:106DE000FDD4CBD0D0BCC6CAB13B0D0A0A0000000E
:106DF000C7EBB0B4D5D5B3CCD0F2B1E0D0B4B8F1D4
:106E0000CABDCAE4C8EBBAAFCAFDC3FBBCB0B2CEC0
:106E1000CAFDB2A2D2D4BBD8B3B5BCFCBDE1CAF89E
:106E20002E0D0A002D2D2D2D2D2D2D2D2D2D2D2D01
:106E30002D2D2D2D2D2D2D2D2D2D2D2D2D2D414C4F
:106E400049454E54454B2D2D2D2D2D2D2D2D2D2DC0
:106E50002D2D2D2D2D2D2D2D2D2D2D2D2D2D2D206F
:106E60000D0A00002D2D2D2D2D2D2D2D2D2D2D2DEF
:106E70002D2D2D2D2D2D2D2D2D2D2D2D2DBAAFCA96
:106E8000FDC7E5B5A52D2D2D2D2D2D2D2D2D2D2D10
:106E90002D2D2D2D2D2D2D2D2D2D2D2D2D2D2D2D22
:106EA000200D0A007400002025730D0A0000000068
:106EB00059A0F9F789FA00200B901AE06649096891
:106EC0009DF82C2001EBC20101AB02AA486803A97E
:106ED000FFF7AAFA604800689DF82C1050F831209E
:106EE00003A95EA0F9F770FA9DF82C00401CC0B20F
:106EF0000B905948007D9DF82C108842DEDCAFF2E3
:106F0000DC30F9F761FA83E0AFF2E830F9F75CFAC8
:106F10000BAA03A92046FFF701FA9DF82C00C8B977
:106F2000694603A8FFF7BBFC0B909DF82C0020B925
:106F30004FA00099F9F748FA0EE09DF82C000428BC
:106F400001D0022063E54DA0F9F73EFA0120424945
:106F5000C87501E002205AE547A0F9F735FA57E075
:106F600045A0F9F731FA0BAA03A92046FFF7D6F995
:106F70009DF82C00C8B9694603A8FFF790FC0B9058
:106F80009DF82C0020B942A00099F9F71DFA0EE0F7
:106F90009DF82C00042801D0022038E53FA0F9F725
:106FA00013FA00202C49C87501E002202FE532A019
:106FB000F9F70AFA2CE030A0F9F706FA0BAA03A9B0
:106FC0002046FFF7ABF99DF82C00C8B9694603A825
:106FD000FFF765FC0B909DF82C0078B91E490098CE
:106FE00081F8EC00084690F8EC0018B130A0F9F7F1
:106FF000EBF907E035A0F9F7E7F903E0022006E531
:10700000022004E51CA0F9F7DFF901E00120FEE40D
:1070100000BF0020FBE400002D2D2D2D2D2D2D2D4A
:107020002D2D2D2D2D2D2D2D2D2D2D2D2D2D2D2D90
:107030002DBAAFCAFD204944202D2D2D2D2D2D2DEB
:107040002D2D2D2D2D2D2D2D2D2D2D2D2D2D2D2D70
:107050002D2D2D2D200D0A00740000202573206990
:10706000642069733A0D0A3058253038580D0A00EB
:107070004845583A305825580D0A00003136BDF8B9
:10708000D6C6B2CECAFDCFD4CABE210D0A000000BA
:107090004445433A256C750D0A0000003130BDF8B7
:1070A000D6C6B2CECAFDCFD4CABE210D0A0000009A
:1070B00052756E2054696D652043616C63756C6117
:1070C00074696F6E204F4E0D0A00000052756E20DD
:1070D00054696D652043616C63756C6174696F6E92
:1070E000204F46460D0A0000016070474FEA1153D9
:1070F000A3F58063D3F11E03A8BFD3F1200C08DBF6
:107100004FF0004242EAC12252EA505232FA03F0F2
:10711000704709420BD4102BC4BF0020704703F501
:10712000787CBCF1FF3F05D04FF0FF3070474FF047
:107130000000704770B500F0C3F800BF499224808A
:1071400000207047F0E7B0FA80F310FA03F10AD09C
:10715000C3F11D0303F580634FEA41504FEA035228
:1071600002EBD12170474FF000007047DFF848C1B3
:1071700070B51CEA111E1EBF1CEA13159EEA0C0F07
:1071800095EA0C0F00F06F8081EA030423EA4C13A8
:107190004EEAD47E21EA4C1141F4801143F480136D
:1071A000AE44A1FB024CA0FB0365AEF17F7E361915
:1071B00055EB0C05A1FB034C4CF10003A0FB021C9A
:1071C00016EB0C06654153F10003094218BF46F067
:1071D000010613F4007F0BD14FEA03314FEA05306B
:1071E000340341EA155140EA16506FF003020AE0F9
:1071F0004FEAC3214FEAC520F40241EA555140EA63
:1072000056506FF0020202EB2E4201EB025585EA66
:10721000CE710AD05FEA440C18BF24F0004450F14C
:10722000000041F1000120EAD47040F2FE7C62458A
:1072300000D270BDA84214BF4FF080444FF04044CC
:10724000002E08BF0024BEF1806FA8BFA1F1C0418D
:10725000BDE8704080F282804FF0000001F1C04133
:1072600001F0004170479EEA0C0F0CEA131518BF9D
:1072700095EA0C0F06D04FF0000081EA030E0EF0E5
:10728000004170BD00F01CF88900013E00F007B815
:1072900000F009B84FEA430C5FEA5C5C08D081EA71
:1072A000030100F05BB84FEA410C5FEA5C5CF6D189
:1072B0004FF00000014970470000FF070000F87F11
:1072C0000EF1020E2EF0030E5EF8046B364205D46A
:1072D000012A43EB030515F5001F12D8012841EBE5
:1072E000010C1CF5001F0CD80ED14FEAD17C15F50E
:1072F000001F0CEB4C0C0CF1020C08BF4CEBD37CC8
:1073000004E04FF0080C01E04FEAD37C0CEB4C0595
:1073100026FA05F606F00706B6F1040C06D20EEBC7
:10732000860CBDE870404CF0010C6047DFE80CF0C3
:10733000090B02024FF000414FF00000A1F50021BF
:1073400070BD19461046012851EB010418BFD4F551
:10735000001484BF002001F0004170BD0808A0F5B2
:1073600000114FEA310170474FF04070E1EE100A12
:10737000704700000000000000000102030406073F
:1073800008090000000001020304000000000000E2
:10739000000000000000000000003F40000000006E
:1073A00000000000300040003000400000000900F4
:1073B0000BC03D000BC03D00090018C024407FE019
:1073C000224031800000180024C01B000D80324094
:1073D000018003801C4027401C80074000401000B3
:1073E000600000000000000000000000000000003D
:1073F0001F80204040200000402020401F800000CF
:107400000000090006001F800600090000000400BB
:1074100004003F8004000400000000100060000031
:107420000000000000000400040004000400040048
:1074300000000000004000000000000000000020EC
:1074400001C006003800400000001F80204020409E
:1074500020401F800000000010403FC0004000009E
:10746000000018C021402240244018400000108035
:107470002040244024401B80000002000D00110029
:107480003FC0014000003C80244024402440238031
:1074900000001F802440244034400380000030005E
:1074A000200027C03800200000001B80244024401A
:1074B00024401B8000001C0022C0224022401F806C
:1074C0000000000000000840000000000000000074
:1074D00000000460000000000000000004000A003A
:1074E000110020804040090009000900090009003E
:1074F000000000004040208011000A000400180035
:10750000200023402400180000001F802040274056
:1075100029401F400000004007C039000F0001C093
:10752000004020403FC0244024401B8000001F80BA
:107530002040204020403080000020403FC02040BC
:1075400020401F80000020403FC024402E4030C01B
:10755000000020403FC024402E00300000000F00FB
:107560001080204022403380020020403FC00400B1
:1075700004003FC02040204020403FC02040204029
:1075800000000060202020203FC02000200020407C
:107590003FC024400B0030C0204020403FC020406E
:1075A0000040004000C03FC03C0003C03C003FC062
:1075B000000020403FC00C4023003FC020001F803F
:1075C0002040204020401F80000020403FC0244039
:1075D0002400180000001F802140214020E01FA04F
:1075E000000020403FC02440260019C0004018C0C1
:1075F00024402440224031800000300020403FC021
:1076000020403000000020003F80004000403F80CC
:10761000200020003E0001C0070038002000380094
:1076200007C03C0007C038000000204039C00600F9
:1076300039C0204000002000384007C038402000FA
:107640000000304021C02640384020C0000000002B
:1076500000007FE0402040200000000070000C008F
:107660000380004000000000402040207FE0000038
:10767000000000002000400020000000000000107A
:10768000001000100010001000100000000040006A
:10769000000000000000000002800540054003C01B
:1076A000004020003FC00440044003800000000070
:1076B00003800440044006400000000003800440B2
:1076C00024403FC0004000000380054005400340C7
:1076D0000000000004401FC024402440200000009F
:1076E00002E0055005500650042020403FC00440F1
:1076F000040003C000400000044027C00040000018
:10770000000000100010041027E0000000002040DE
:107710003FC00140070004C00440204020403FC05B
:1077200000400040000007C0040007C0040003C080
:107730000000044007C00440040003C000400000F3
:1077400003800440044003800000041007F004504C
:10775000044003800000000003800440045007F050
:107760000010044007C002400400040000000000B4
:1077700006400540054004C00000000004001F80D2
:10778000044000400000040007800040044007C09F
:1077900000400400070004C0018006000400060049
:1077A00001C0070001C006000000044006C001003F
:1077B00006C0044000000410071004E00180060029
:1077C00004000000044005C0064004400000000022
:1077D000000004007BE040200000000000000000EA
:1077E000FFF000000000000040207BE004000000EB
:1077F0000000400080004000200020004000000009
:107800000000000000000000000000000000000078
:10781000000000001FCC000C000000000000000071
:107820000800300060000800300060000000022006
:1078300003FC1E20022003FC1E200220000000008A
:107840000E1811043FFF10840C78000000000F0098
:1078500010840F3800C00778188400780000007882
:107860000F8410C411240E9800E40084000808005E
:107870006800700000000000000000000000000030
:107880000000000007E0181820044002000000007B
:1078900040022004181807E0000000000000024029
:1078A000024001800FF00180024002400000008091
:1078B000008000800FF80080008000800000000140
:1078C000000D000E0000000000000000000000009D
:1078D0000080008000800080008000800080000028
:1078E000000C000C00000000000000000000000080
:1078F000000600180060018006001800200000004B
:1079000007F0080810041004080807F00000000041
:10791000080408041FFC000400040000000000002C
:107920000E0C10141024104411840E0C00000000E2
:107930000C1810041104110412880C7000000000CF
:1079400000E00320042408241FFC002400000000A1
:107950001F9810841104110410881070000000009A
:1079600007F0088811041104188800700000000056
:107970001C00100010FC13001C0010000000000090
:107980000E3811441084108411440E380000000099
:107990000700088C10441044088807F0000000001D
:1079A00000000000030C030C0000000000000000B9
:1079B00000000001010600000000000000000000BF
:1079C000008001400220041008081004000002207A
:1079D00002200220022002200220022000000000DB
:1079E000100408080410022001400080000000007C
:1079F0000E001200100C106C10800F00000003E04D
:107A00000C1813E4142417C4082807D0000000043D
:107A1000003C03C41C40074000E4001C00041004A8
:107A20001FFC1104110411040E880070000003E013
:107A30000C1810041004100410081C10000010048E
:107A40001FFC100410041004080807F000001004C4
:107A50001FFC1104110417C41004081800001004BE
:107A60001FFC1104110017C010000800000003E003
:107A70000C181004100410441C780040000010047E
:107A80001FFC10840080008010841FFC1004000084
:107A9000100410041FFC1004100400000000000378
:107AA0000001100110011FFE100010000000100462
:107AB0001FFC110403801464181C1004000010043F
:107AC0001FFC1004000400040004000C000010045B
:107AD0001FFC1F0000FC1F001FFC1004000010040E
:107AE0001FFC0C04030000E010181FFC100007F03E
:107AF0000808100410041004080807F0000010041F
:107B00001FFC10841080108010800F00000007F010
:107B1000081810241024101C080A07F20000100492
:107B20001FFC1104110011C011300E0C00040000E4
:107B30000E1C11041084108410441C38000018001E
:107B4000100010041FFC10041000180000001000AA
:107B50001FF810040004000410041FF810001000A7
:107B60001E0011E0001C007013801C0010001FC0DC
:107B7000103C00E01F0000E0103C1FC0000010049B
:107B8000180C163401C001C01634180C1004100073
:107B90001C00130400FC13041C0010000000080467
:107BA000101C1064108413041C0410180000000042
:107BB000000000007FFE4002400240020000000082
:107BC00030000C0003800060001C00030000000077
:107BD0004002400240027FFE000000000000000062
:107BE0000000200040004000400020000000000194
:107BF000000100010001000100010001000100007E
:107C000040004000200000000000000000000000D4
:107C10000098012401440144014400FC00041000C8
:107C20001FFC0088010401040088007000000000AF
:107C300000700088010401040104008800000000B5
:107C4000007000880104010411081FFC00040000FA
:107C500000F8014401440144014400C80000000050
:107C6000010401040FFC11041104110018000000AC
:107C700000D601290129012901C9010600001004CB
:107C80001FFC008401000100010400FC000400004E
:107C90000104190419FC00040004000000000000A5
:107CA000000300010101190119FE00000000100489
:107CB0001FFC0024004001B4010C0104000000007E
:107CC000100410041FFC0004000400000000010464
:107CD00001FC0104010001FC0104010000FC01049D
:107CE00001FC008401000100010400FC000400000C
:107CF00000F8010401040104010400F8000001017E
:107D000001FF0085010401040088007000000000EC
:107D10000070008801040104010501FF0001010455
:107D2000010401FC00840104010001800000000046
:107D300000CC01240124012401240198000000004A
:107D40000100010007F80104010400000000010027
:107D500001F8000400040004010801FC0004010013
:107D600001800170000C001001600180010001F031
:107D7000010C003001C00030010C01F001000000D6
:107D80000104018C00740170018C010400000101E8
:107D900001810171000E00180160018001000000E6
:107DA0000184010C013401440184010C0000000035
:107DB00000000000000001003EFC40024002000004
:107DC000000000000000FFFF0000000000000000B5
:107DD000400240023EFC01000000000000000000E4
:107DE0006000800080004000400020002000000073
:107DF0000000000000000000000000000000000083
:107E00000000000000000000000000000000000072
:107E10000000000000000000000000000000000062
:107E2000000F80380FFE380F80380000000000007F
:107E3000000000000000000000000000010000063B
:107E400000000C00003800003100000600000C00AB
:107E500000380000300000000000000000006180D9
:107E60000067F807F9800061800061800061800090
:107E700061800067F807F980006180000000000061
:107E80000000000001C0E003E0F00630080418081C
:107E90001FFFFE040E080787F00381E000000000CA
:107EA000000001F000060C00040408060C7001F943
:107EB000C0000E00003BE000EC18070808040C1896
:107EC0000003E00000000001E00007F003F81804E0
:107ED0001C0804170807E1D003C0E00023B0003CF1
:107EE0000800200800001000000000000001000051
:107EF0003100003200001C00000000000000000003
:107F00000000000000000000000000000000000071
:107F100000000000000000000000000000007F00E2
:107F200001FFC00780F00C001810000420000200C0
:107F300000000000002000021000040C0018078060
:107F4000F001FFC0007F0000000000000000000002
:107F50000000000000000000000042000066000079
:107F60006600003C0000180003FFC0001800003C41
:107F700000006600006600004200000000000800EB
:107F800000080000080000080000080001FFC00011
:107F900008000008000008000008000008000000B9
:107FA0000000000100003100003200001C00000051
:107FB00000000000000000000000000000000000C1
:107FC0000000000000000800000800000800000891
:107FD0000000080000080000080000080000080079
:107FE0000008000000000000000000000000380051
:107FF0000038000038000000000000000000000011
:10800000000000000000000000000000000000066A
:1080100000001C000070000180000E00003800000D
:10802000C0000700001C000030000000000000003D
:1080300000007F8001FFE003807006001804000844
:1080400004000806001803807001FFE0007F800034
:10805000000000000000000001000801000801000D
:108060000803FFF807FFF8000008000008000008F8
:1080700000000000000000000001C03802C05804E9
:108080000098040118040218040418061C1803F8C8
:108090001801E0F800000000000000000001C0E04E
:1080A00003C0F004000804080804080806180803C0
:1080B000F41801E7F00001E00000000000000000FB
:1080C00000000300000D00001100006100008108A5
:1080D00003010807FFF80FFFF8000108000108007E
:1080E00000000000000000E007FCD00608080610B1
:1080F00008061008061008061838060FF00607C014
:10810000000000000000000000003F8001FFE003CD
:108110008430020818041008041008041008071816
:1081200010030FF00007C000000000000000000076
:1081300003C0000700000600000600F80607F80666
:10814000180006E000070000060000000000000024
:108150000001E1E003F7F0063410041808041808E1
:10816000040C08040C0806161803F3F001C1E00023
:10817000000000000000F80003FC30030638040291
:10818000080402080402080404100308F001FFC0F8
:10819000007F000000000000000000000000000060
:1081A00000000000000070380070380070380000D7
:1081B00000000000000000000000000000000000BF
:1081C00000000000000000000000301A00301C0019
:1081D000000000000000000000000000000000009F
:1081E0000000000000080000140000220000410010
:1081F00000808001004002002004001008000800F8
:1082000000000000000021000021000021000021EA
:1082100000002100002100002100002100002100B9
:108220000021000000000000000000000800080419
:108230000010020020010040008080004100002268
:108240000000140000080000000000000003C0004F
:1082500004C000040000080038080F380808380877
:1082600010000C300007E00003C000000000000018
:1082700000003F8000FFE0038070020F100670884E
:1082800004C088048308047F8802C0900301200092
:10829000FE400000080000180001F8003E0801C27E
:1082A0000007020007E20000FE00001FC80001F8FE
:1082B00000003800000804000807FFF807FFF80472
:1082C000080804080804080804080806180803F445
:1082D0001801E7F00001E0000000000000003F800E
:1082E00001FFE00380700200180400080400080485
:1082F00000080400100600200780C00000000400F1
:108300000807FFF807FFF804000804000804000845
:1083100004001802001003807001FFE0007F80005D
:10832000000004000807FFF807FFF8040808040825
:1083300008040808040808043E0804000806001899
:1083400001006000000004000807FFF807FFF804C0
:108350000808040800040800040800043E000600A1
:1083600000060000018000000000000000003F80C7
:1083700001FFE003807006001804000804020804EE
:1083800002080203F00783F000020000020004006C
:108390000807FFF807FFF8040808000800000800B5
:1083A00000080000080004080807FFF807FFF804A9
:1083B0000008000000000000040008040008040099
:1083C0000807FFF807FFF804000804000804000885
:1083D0000000000000000000000000060000070090
:1083E000000104000104000104000307FFFE07FF71
:1083F000FC04000004000004000004000807FFF86B
:1084000007FFF8040C08001800003E0004C78005B0
:1084100003C80600F804003804001800000804002F
:108420000807FFF807FFF80400080000080000082C
:1084300000000800000800000800001800006000AC
:10844000000004000807FFF807800807FC00007F11
:10845000C00003F80007C000780007800807FFF895
:1084600007FFF804000804000807FFF807000803E6
:10847000C00000E000003800001E000007000001FE
:10848000C00400F007FFF8040000000000007F8037
:1084900001FFE003807006001804000804000806CD
:1084A000001803003001FFE0007F8000000004009E
:1084B0000807FFF807FFF804040804040004040098
:1084C000040400040400060C0003F80001F000009E
:1084D0000000000000007F8001FFE00380700600C4
:1084E000880400880400C806003C03003E01FFE643
:1084F000007F8400000004000807FFF807FFF8046D
:108500000808040800040C00040F00040BC0061047
:10851000F003F03801E00800000800000001E0F876
:1085200003F030063010041808041808040C08047E
:108530000C080206180207F00781E0000000018025
:108540000006000004000004000004000807FFF813
:1085500007FFF80400080400000400000600000102
:10856000800004000007FFE007FFF004001800008F
:1085700008000008000008000008000008040010BF
:1085800007FFE004000004000006000007E0000709
:10859000FE00041FE00001F80000380001E0043E86
:1085A0000007C00006000004000004000007E0000F
:1085B00007FFC0041FF80007C007F80007FF80048A
:1085C0003FF80007C004F8000700000400000000A6
:1085D0000004000806001807C07805F1C8003E0036
:1085E000001F800463E80780F806001804000800F4
:1085F000000004000006000007800007E008047C7B
:1086000008001FF80007F800180804E00807000039
:108610000600000400000000000100080600380405
:1086200000F80403E8040F08047C0805F00807C0FC
:1086300008070018040060000000000000000000AF
:108640000000000000000000003FFFFE20000220AC
:1086500000022000022000022000020000000000B2
:108660000000000008000007000000C00000380003
:108670000006000001C000003000000E00000100F4
:108680000000000000000000200002200002200086
:10869000022000022000023FFFFE00000000000058
:1086A00000000000000000000000000000000008C2
:1086B000000010000030000020000030000010001A
:1086C00000080000000000000000000001000001A0
:1086D0000000010000010000010000010000010095
:1086E0000001000001000001000001000001000085
:1086F000000000000000002000002000001000002A
:108700001000000000000000000000000000000059
:1087100000000000000000F00019F8001B18002203
:1087200008002608002408002410003FF8001FF865
:1087300000000800001800000004000007FFF80F08
:10874000FFF0001818001008002008002008003072
:1087500018001FF0000FC00000000000000007C05C
:10876000001FF0001830002008002008002008003A
:108770003C08001C10000060000000000000000029
:10878000000007C0001FF000381800200800200873
:1087900000200804101007FFF80FFFF00000100081
:1087A00000000000000000000007C0001FF00012E1
:1087B00030002218002208002208003208001E1093
:1087C000000E200000000000000020000020080033
:1087D000200801FFF803FFF8062008042008042001
:1087E0000807200003000000000000000000000E49
:1087F000000E6E001FF30031B10020B10020B10067
:108800003191001F13002E1E00200E0030000000CA
:108810000004000807FFF80FFFF800100800200010
:10882000002000002008003FF8001FF800000800AA
:1088300000000000000000000020080020080020C8
:1088400008063FF8063FF80000080000080000088E
:108850000000000000000000000000000000030015
:108860000003002001002001002003063FFE063F18
:10887000FC000000000000000000000000040008F0
:1088800007FFF80FFFF8000188000300002FC00069
:1088900038F8002038002008000008000000000020
:1088A0000000000004000804000804000807FFF8A6
:1088B0000FFFF8000008000008000008000000009A
:1088C0000000002008003FF8003FF80010080020DA
:1088D00000003FF8003FF8001008002000003FF8BB
:1088E000003FF8000008000000002008003FF800EA
:1088F0003FF8001008001000002000002008003F92
:10890000F8001FF80000080000000000000007C089
:10891000000FF00018300030080020080020080088
:108920003008001830000FF00007C0000000000001
:1089300000002001003FFF003FFF00101100200950
:10894000002008002008003038001FF0000FC00091
:1089500000000000000007C0001FF00038180020D1
:1089600008002008002009001011001FFF003FFF31
:10897000000001000000002008002008002008007E
:108980003FF8003FF8000808001008002008002009
:108990000000300000300000000000000000000077
:1089A000000C78001E18003308002308002108007E
:1089B00021880021980030F000386000000000009D
:1089C0000000200000200000200000FFF003FFF85E
:1089D00000200800200800200800003000000000EF
:1089E0000000000000002000003FF0007FF80000C1
:1089F00018000008000008002010003FF8007FF079
:108A00000000100000000000000020000030000006
:108A10003C00003F800023F000007800007000233D
:108A200080003C00003000002000002000003C00DE
:108A3000003FE00023F80000E0002700003E0000B7
:108A40003FE00021F80001E0003E000020000000AF
:108A500000002008002008003838003E6800278009
:108A60000003C8002CF80038380020180020080047
:108A70000000000000002000003003003C01003F27
:108A8000830023EC000070002380003C00002000E5
:108A90000020000000000000000000000038080076
:108AA00020380020F80023E8002F88003E08003816
:108AB0000800201800007000000000000000000006
:108AC0000000000000000000000008000014001F6B
:108AD000F7FC30000620000200000000000000004B
:108AE0000000000000000000000000000000000086
:108AF000FFFFFF0000000000000000000000000079
:108B000000000000000000002000023000061FF7F7
:108B1000FC0014000008000000000000000000003D
:108B2000000000000000000000180000600000408D
:108B300000004000002000001000000800000400B9
:108B4000000400000C000010000000000000000005
:108B50000000000000000000000000000000000015
:108B60000000000000000000000000000000000005
:108B700000000000000000000000000000000000F5
:108B800000000000000000000000000000000000E5
:108B900000000000000000000000000000000000D5
:108BA00000000000000000000000000000000000C5
:108BB00000000000000000000000000000000000B5
:108BC00000000000000000000000000000000000A5
:108BD0000000000000000000000000000000000095
:108BE000000007F000C007FFE1E007F001E000002F
:108BF00000C00000000000000000000000000000B5
:108C00000000000000000000000000000000000064
:108C10000000000000000000000000000000000054
:108C20000000000000000000000000000000000044
:108C30000000000000000000000000000000000034
:108C40000000000000000000000000000000000024
:108C500000000020000001C00000078000001F008D
:108C600000001E0000001C20000001C00000078062
:108C700000001F0000001E0000001C00000000009B
:108C800000000000000000000000000000000000E4
:108C900000000000000000000000000000000000D4
:108CA00000000000000000000000000000000000C4
:108CB00000000000000000000000000000000000B4
:108CC000000000000000000000000000000000188C
:108CD0000C0000180C0000180FE0001FFC0003F847
:108CE0000C0000180C0000180C0000180C000018F4
:108CF0000C0000180FE0001FFC0003F80C00001827
:108D00000C0000180C000000000000000000000033
:108D10000000000000000000000000000000000053
:108D20000000000000000000000000000000000043
:108D30000000000000000000000000000000000033
:108D40000000000000000000000000000000000023
:108D5000000000000780007807C000FC0640010EFC
:108D6000002003070020020380200FFFFFFC020108
:108D7000C0200200E0600130704001F03F8000F050
:108D80001F000000000000000000000000000000C4
:108D900000000000000000000000000000000000D3
:108DA00000000000000000000000000000000000C3
:108DB00000000000000000000000000000000000B3
:108DC0000000000000000000000000FE000001FFA5
:108DD00000000301800002008060030181C001FFE8
:108DE000070000FE18000000E0000003BF00000CB8
:108DF000FFC00071806001C100200301806000009D
:108E0000FFC000003F000000000000000000000064
:108E10000000000000000000000000000000000052
:108E20000000000000000000000000000000000042
:108E30000000000000000000000000000000000032
:108E40000000000000000000000000001F00000003
:108E50007FC000FCC0C001FF80600303E02002026D
:108E6000782002061E2003FC074001F00380000169
:108E700003C000011C600001E0200001002000018F
:108E80000040000001800000000000000000000021
:108E900000000000000000000000000000000000D2
:108EA00000000000000000000000000000000000C2
:108EB00000000000000000000000000000000000B2
:108EC0000000000000000000000000000000002082
:108ED00000001C6000001C4000001F8000000F000C
:108EE0000000000000000000000000000000000082
:108EF0000000000000000000000000000000000072
:108F00000000000000000000000000000000000061
:108F10000000000000000000000000000000000051
:108F20000000000000000000000000000000000041
:108F30000000000000000000000000000000000031
:108F40000000000000000000000000000000000021
:108F50000000000000000000000000000000000011
:108F60000000000000000007F800003FFF0000784C
:108F700007C001C000E00300003004000008080042
:108F800000041000000200000000000000000000CB
:108F900000000000000000000000000000000000D1
:108FA00000000000000000000000000000000000C1
:108FB00000000000000000000000000000000000B1
:108FC0000000000000000000000000000000100091
:108FD000000208000004040000080300003001C083
:108FE00000E0007807C0003FFF000007F800000025
:108FF0000000000000000000000000000000000071
:109000000000000000000000000000000000000060
:109010000000000000000000000000000000000050
:109020000000000000000000000000000000000040
:109030000000000000000000000000000000000030
:109040000000000000000000000000000000000020
:109050000000000C1800000E3800000E380000065A
:109060003000000360000061438000FFFF8000616A
:1090700043000003600000063000000E3800000EC0
:109080003800000C18000000000000000000000084
:1090900000000000000000000000000000000000D0
:1090A00000000000000000000000000000000000C0
:1090B00000000000000000000000000000000000B0
:1090C00000000000000000000000000000000000A0
:1090D0000000000080000000800000008000000010
:1090E00080000000800000008000007FFF00000082
:1090F0008000000080000000800000008000000070
:10910000800000008000000000000000000000005F
:10911000000000000000000000000000000000004F
:10912000000000000000000000000000000000003F
:10913000000000000000000000000000000000002F
:10914000000000000000000000000000000000001F
:109150000001000000E3000000E2000000FC00004D
:109160000078000000000000000000000000000087
:1091700000000000000000000000000000000000EF
:1091800000000000000000000000000000000000DF
:1091900000000000000000000000000000000000CF
:1091A00000000000000000000000000000000000BF
:1091B00000000000000000000000000000000000AF
:1091C000000000000000000000000000000000009F
:1091D000800000008000000080000000800000008F
:1091E000800000008000000080000000800000007F
:1091F000800000008000000080000000800000006F
:10920000800000008000000000000000000000005E
:10921000000000000000000000000000000000004E
:10922000000000000000000000000000000000003E
:10923000000000000000000000000000000000002E
:10924000000000000000000000000000000000001E
:109250000000000000C0000001E0000001E000008C
:1092600000C000000000000000000000000000003E
:1092700000000000000000000000000000000000EE
:1092800000000000000000000000000000000000DE
:1092900000000000000000000000000000000000CE
:1092A00000000000000000000000000000000000BE
:1092B00000000000000000000000000000000000AE
:1092C000000000000000000000000000000000009E
:1092D000000C00000038000000E0000003800000E7
:1092E0000E00000038000000E00000038000000EC7
:1092F00000000038000000E00000038000000E00C5
:109300000000180000000000000000000000000045
:10931000000000000000000000000000000000004D
:10932000000000000000000000000000000000003D
:10933000000000000000000000000000000000002D
:10934000000000000000000000000000000000001D
:109350000000000FF800007FFF0000F00780018090
:1093600000C0030000600200002002000020020094
:10937000002003000060018000C000E00380007F47
:10938000FF00000FF80000000000000000000000D7
:1093900000000000000000000000000000000000CD
:1093A00000000000000000000000000000000000BD
:1093B00000000000000000000000000000000000AD
:1093C000000000000000000000000000000000009D
:1093D00000000000000000800020008000200080CD
:1093E00000200080006001FFFFE003FFFFE00000BD
:1093F00000600000002000000020000000200000AD
:10940000000000000000000000000000000000005C
:10941000000000000000000000000000000000004C
:10942000000000000000000000000000000000003C
:10943000000000000000000000000000000000002C
:10944000000000000000000000000000000000001C
:109450000000007800E00098016001000260020056
:109460000460020008600200106002002060020038
:109470004060030080600183006001FE00E0007C2A
:109480000780000000000000000000000000000055
:1094900000000000000000000000000000000000CC
:1094A00000000000000000000000000000000000BC
:1094B00000000000000000000000000000000000AC
:1094C000000000000000000000000000000000009C
:1094D000000000F0078001F007C00100004002001A
:1094E00000200201002002010020020100200303ED
:1094F00080200186804001FCC0C000787F80000091
:109500001E0000000000000000000000000000003D
:10951000000000000000000000000000000000004B
:10952000000000000000000000000000000000003B
:10953000000000000000000000000000000000002B
:10954000000000000000000000000000000000001B
:1095500008000000380000004800000188000006F4
:109560000800000C0810003008100040081001FF2F
:10957000FFF003FFFFF003FFFFF000000810000002
:1095800008100000081000000000000000000000AB
:1095900000000000000000000000000000000000CB
:1095A00000000000000000000000000000000000BB
:1095B00000000000000000000000000000000000AB
:1095C000000000000000000000000000000000009B
:1095D000000000000780001F864003E10020030216
:1095E00000200304002003040020030400200304DF
:1095F000002003060040030301C00301FF800300B5
:109600007E000000000000000000000000000000DC
:10961000000000000000000000000000000000004A
:10962000000000000000000000000000000000003A
:10963000000000000000000000000000000000002A
:10964000000000000000000000000000000000001A
:1096500000000007FC00003FFF000070C380008195
:1096600080C001010060030200200202002002020B
:109670000020020200200203004001C180C000C09F
:10968000FF8000007E0000000000000000000000DD
:1096900000000000000000000000000000000000CA
:1096A00000000000000000000000000000000000BA
:1096B00000000000000000000000000000000000AA
:1096C000000000000000000000000000000000009A
:1096D000000000F0000003C0000003800000030051
:1096E0000000030007E003003FE00301C0000306A1
:1096F0000000031800000360000003800000030066
:109700000000000000000000000000000000000059
:109710000000000000000000000000000000000049
:109720000000000000000000000000000000000039
:109730000000000000000000000000000000000029
:109740000000000000000000000000000000000019
:109750001F0000783F8000FC60C0018EC0400307FE
:1097600080200203002002018020020180200201EB
:10977000C0200301E040018670C000FC3F800078FB
:109780001F000000000000000000000000000000BA
:1097900000000000000000000000000000000000C9
:1097A00000000000000000000000000000000000B9
:1097B00000000000000000000000000000000000A9
:1097C0000000000000000000000000000000003F5A
:1097D000000000FF81C001C0C1C001006020020084
:1097E0002020020020200200202002002060020031
:1097F00040C00100C18000C18F00007FFE00001F3B
:10980000F000000000000000000000000000000068
:109810000000000000000000000000000000000048
:109820000000000000000000000000000000000038
:109830000000000000000000000000000000000028
:109840000000000000000000000000000000000018
:109850000000000000000000000000000000000008
:109860000000000300C0000781E0000781E0000362
:1098700000C0000000000000000000000000000028
:1098800000000000000000000000000000000000D8
:1098900000000000000000000000000000000000C8
:1098A00000000000000000000000000000000000B8
:1098B00000000000000000000000000000000000A8
:1098C0000000000000000000000000000000000098
:1098D0000000000000000000000000000000000088
:1098E000000000060066000600780000000000008E
:1098F0000000000000000000000000000000000068
:109900000000000000000000000000000000000057
:109910000000000000000000000000000000000047
:109920000000000000000000000000000000000037
:109930000000000000000000000000000000000027
:109940000000000000000000000000000000000017
:109950000000000080000001C0000003600000065D
:109960003000000C180000180C00003006000060E9
:10997000030000C00180010000400200002004003C
:1099800000100000000000000000000000000000C7
:1099900000000000000000000000000000000000C7
:1099A00000000000000000000000000000000000B7
:1099B00000000000000000000000000000000000A7
:1099C0000000000000000000000000000000000493
:1099D0001000000410000004100000041000000437
:1099E0001000000410000004100000041000000427
:1099F0001000000410000004100000041000000417
:109A00001000000410000000000000000000000032
:109A10000000000000000000000000000000000046
:109A20000000000000000000000000000000000036
:109A30000000000000000000000000000000000026
:109A40000000000000000000000000000000000016
:109A5000000004000010020000200100004000C0CF
:109A60000180006003000030060000180C00000CAC
:109A7000180000063000000360000001C000000074
:109A80008000000000000000000000000000000056
:109A900000000000000000000000000000000000C6
:109AA00000000000000000000000000000000000B6
:109AB00000000000000000000000000000000000A6
:109AC0000000000000000000000000000000000096
:109AD00000000078000001F80000023800000200D9
:109AE0000000040000C0040079E0040081E00401EB
:109AF00000C004030000020200000306000001FC95
:109B0000000000F80000000000000000000000005D
:109B10000000000000000000000000000000000045
:109B20000000000000000000000000000000000035
:109B30000000000000000000000000000000000025
:109B40000000000000000000000000000000000F06
:109B5000F800003FFE000070078000C000C0010157
:109B6000F8400307FC20021E0420023008200220D7
:109B70003020023FFC20013F044001800CC000E087
:109B80003180001FC2000000000000000000000043
:109B900000000000000000000000000000000000C5
:109BA00000000000000000000000000000000000B5
:109BB00000000000000000000000000000000000A5
:109BC0000000000000000000000000000020000075
:109BD0000060000003E000003E200003E020003EA3
:109BE000200003E020000380200007FC2000003F4D
:109BF000E0000003FE2000003FE0000001E0000064
:109C00000020000000200000000000000000000014
:109C10000000000000000000000000000000000044
:109C20000000000000000000000000000000000034
:109C30000000000000000000000000000000000024
:109C40000000000000000000000000000000020012
:109C500000200200002003FFFFE003FFFFE00201FD
:109C60000020020100200201002002010020020168
:109C70000020030300200186806001FCC0C000F8C2
:109C80007F8000001F0000000000000000000000B6
:109C900000000000000000000000000000000000C4
:109CA00000000000000000000000000000000000B4
:109CB00000000000000000000000000000000000A4
:109CC000000000000000000000000000000000078D
:109CD000F800003FFF000070078000C000C00100D6
:109CE00000400300002002000020020000200200CB
:109CF00000200200002001000040018000C003C0DD
:109D0000018000300600000000000000000000009C
:109D10000000000000000000000000000000000043
:109D20000000000000000000000000000000000033
:109D30000000000000000000000000000000000023
:109D40000000000000000000000000000000020011
:109D500000200200002003FFFFE003FFFFE00200FD
:109D6000002002000020020000200200002003006A
:109D7000006001000040018000C000F00780007F0B
:109D8000FE00000FF80000000000000000000000CE
:109D900000000000000000000000000000000000C3
:109DA00000000000000000000000000000000000B3
:109DB00000000000000000000000000000000000A3
:109DC0000000000000000000000000000000020091
:109DD00000200200002003FFFFE003FFFFE002017C
:109DE00000200201002002010020020100200201E7
:109DF000002002038020020FE0200300006003C067
:109E000000E000600300000000000000000000000F
:109E10000000000000000000000000000000000042
:109E20000000000000000000000000000000000032
:109E30000000000000000000000000000000000022
:109E40000000000000000000000000000000020010
:109E500000200200002003FFFFE003FFFFE00201FB
:109E600000200201002002010000020100000201A6
:109E700000000201000002038000030FE000030065
:109E8000000003C0000000600000000000000000AF
:109E900000000000000000000000000000000000C2
:109EA00000000000000000000000000000000000B2
:109EB00000000000000000000000000000000000A2
:109EC000000000000000000000000000000000078B
:109ED000F800003FFE000070078001C001C00100D3
:109EE00000400300002002000020020000200200C9
:109EF0000020010020200100204003C03F800030EE
:109F00003F80000020000000200000000000000052
:109F10000000000000000000000000000000000041
:109F20000000000000000000000000000000000031
:109F30000000000000000000000000000000000021
:109F400000000000000000000000020000200200ED
:109F5000002003FFFFE003FFFFE00200802002007B
:109F600080200000800000008000000080000200CF
:109F700080200200802003FFFFE003FFFFE00200DB
:109F8000002002000020000000000000000000008F
:109F900000000000000000000000000000000000C1
:109FA00000000000000000000000000000000000B1
:109FB00000000000000000000000000000000000A1
:109FC0000000000000000000000000000000000091
:109FD000000000000000020000200200002002003B
:109FE00000200200002003FFFFE003FFFFE002006B
:109FF00000200200002002000020020000200000DB
:10A000000000000000000000000000000000000050
:10A010000000000000000000000000000000000040
:10A020000000000000000000000000000000000030
:10A030000000000000000000000000000000000020
:10A040000000000000000000000000000000000010
:10A05000000E0000000F0000000F000000010200D1
:10A06000000102000001020000030200000603FFDD
:10A07000FFFC03FFFFF802000000020000000200E6
:10A0800000000200000000000000000000000000CE
:10A0900000000000000000000000000000000000C0
:10A0A00000000000000000000000000000000000B0
:10A0B00000000000000000000000000000000000A0
:10A0C000000000000000000000000000000002008E
:10A0D00000200200002003FFFFE003FFFFE002007A
:10A0E000C0200201002000078000000FE0000030C7
:10A0F000F80002603E2003800F20030003E002000E
:10A1000000E002000020000000200000000000002D
:10A11000000000000000000000000000000000003F
:10A12000000000000000000000000000000000002F
:10A13000000000000000000000000000000000001F
:10A14000000000000000000000000000000002000D
:10A1500000200200002003FFFFE003FFFFE00200F9
:10A16000002002000020000000200000002000006D
:10A17000002000000020000000200000006000001F
:10A1800000E00000030000000000000000000000EC
:10A1900000000000000000000000000000000000BF
:10A1A00000000000000000000000000000000000AF
:10A1B000000000000000000000000000000000009F
:10A1C000000000000000000000000200002002006B
:10A1D000002003FFFFE003E0002003FF0020001F3A
:10A1E000F0000001FF8000000FE000001E000003EF
:10A1F000E000003E002003E0002003FFFFE003FF3B
:10A20000FFE002000020020000200000000000002B
:10A21000000000000000000000000000000000003E
:10A22000000000000000000000000000000000002E
:10A23000000000000000000000000000000000001E
:10A2400000000000000000000000020000200200EA
:10A25000002003FFFFE00380002003F0002000FC4B
:10A260000000001F00000007C0000001F000000017
:10A270007C0002001F80020007E003FFFFE00200F5
:10A2800000000200000000000000000000000000CC
:10A2900000000000000000000000000000000000BE
:10A2A00000000000000000000000000000000000AE
:10A2B000000000000000000000000000000000009E
:10A2C0000000000000000000000000000000000F7F
:10A2D000F800003FFE0000F00780018000C0010090
:10A2E00000400200002002000020020000200200C6
:10A2F000002001000040018000C000F00380003F0A
:10A30000FE00000FF8000000000000000000000048
:10A31000000000000000000000000000000000003D
:10A32000000000000000000000000000000000002D
:10A33000000000000000000000000000000000001D
:10A34000000000000000000000000000000002000B
:10A3500000200200002003FFFFE003FFFFE00200F7
:10A3600080200200802002008000020080000200A5
:10A37000800002008000030180000183000000FED5
:10A380000000007C00000000000000000000000051
:10A3900000000000000000000000000000000000BD
:10A3A00000000000000000000000000000000000AD
:10A3B000000000000000000000000000000000009D
:10A3C0000000000000000000000000000000000F7E
:10A3D000F800007FFF0000F00380018001C0010051
:10A3E00006400200042002000420020006200200B1
:10A3F00003E0010000F80180005C00E0038C003FF6
:10A40000FF0C000FFC18000000000000000000001E
:10A41000000000000000000000000000000000003C
:10A42000000000000000000000000000000000002C
:10A43000000000000000000000000000000000001C
:10A44000000000000000000000000000000002000A
:10A4500000200200002003FFFFE003FFFFE00201F5
:10A46000002002010020020180000201E000020140
:10A47000FC0003033F80018607E001FC00E000F8D8
:10A48000002000000020000000000000000000008C
:10A4900000000000000000000000000000000000BC
:10A4A00000000000000000000000000000000000AC
:10A4B000000000000000000000000000000000009C
:10A4C000000000000000000000000000000000008C
:10A4D00000000078060000FE01E0018600C00303D2
:10A4E00000400203002002018020020180200201BE
:10A4F000C0200200C0200100E060018070C003E0C5
:10A500003F8000001F00000000000000000000006D
:10A51000000000000000000000000000000000003B
:10A52000000000000000000000000000000000002B
:10A53000000000000000000000000000000000001B
:10A5400000000000000000000000000000000060AB
:10A550000000038000000300000002000000020071
:10A5600000200200002003FFFFE003FFFFE00200E5
:10A570000020020000200200000002000000038012
:10A58000000000E0000000000000000000000000EB
:10A5900000000000000000000000000000000000BB
:10A5A00000000000000000000000000000000000AB
:10A5B000000000000000000000000000000000009B
:10A5C0000000000000000000000002000000020087
:10A5D000000003FFFF0003FFFFC002000040020075
:10A5E00000600000002000000020000000200000AB
:10A5F0000020020000400200008003FFFF00020074
:10A600000000020000000000000000000000000048
:10A61000000000000000000000000000000000003A
:10A62000000000000000000000000000000000002A
:10A63000000000000000000000000000000000001A
:10A640000000000000000000000000000000020008
:10A6500000000200000003C0000003FC0000023FF5
:10A66000C0000003F80000007F80000007E0000049
:10A670000780000078000203C000023C000003C015
:10A6800000000200000002000000000000000000C6
:10A6900000000000000000000000000000000000BA
:10A6A00000000000000000000000000000000000AA
:10A6B000000000000000000000000000000000009A
:10A6C000000000000000000000000200000003C0C5
:10A6D000000003FF8000023FFE0002007FE0000058
:10A6E0000F000200F00003EF000003FF8000020FE4
:10A6F000FE0000003FE000001F000207E00003F83A
:10A700000000030000000200000000000000000044
:10A710000000000000000000000000000000000039
:10A720000000000000000000000000000000000029
:10A730000000000000000000000000000000000019
:10A740000000000000000000000000000000020007
:10A75000002002000020038000E003F0032002FC40
:10A760000C20021F30000007C0000007F000021894
:10A770007C0002601F20038003E0020000E0020072
:10A780000020000000200000000000000000000089
:10A7900000000000000000000000000000000000B9
:10A7A00000000000000000000000000000000000A9
:10A7B0000000000000000000000000000000000099
:10A7C0000000000000000000000000000000020087
:10A7D00000000300000003C0000003F80000023E78
:10A7E0000020020FC0200001FFE000007FE0000316
:10A7F0008020021C00200270000003800000020084
:10A800000000020000000000000000000000000046
:10A810000000000000000000000000000000000038
:10A820000000000000000000000000000000000028
:10A830000000000000000000000000000000000018
:10A840000000000000000000000000000000000008
:10A850000020006000E0038003E003000FA002007E
:10A860003E200200F8200203E020020F8020023E7A
:10A8700000200278002003E00060038000E0020076
:10A8800003000000000000000000000000000000C5
:10A8900000000000000000000000000000000000B8
:10A8A00000000000000000000000000000000000A8
:10A8B0000000000000000000000000000000000098
:10A8C0000000000000000000000000000000000088
:10A8D0000000000000000000000000000000000078
:10A8E00000001FFFFFFC1000000410000004100017
:10A8F0000004100000041000000410000004100008
:10A900000004000000000000000000000000000043
:10A910000000000000000000000000000000000037
:10A920000000000000000000000000000000000027
:10A930000000000000000000000000000000000017
:10A940000000000000000000000000000000000007
:10A950000000000000000700000003C000000078B5
:10A960000000001E00000003C0000000F000000016
:10A970001E0000000780000000F00000003C000006
:10A9800000060000000000000000000000000000C1
:10A9900000000000000000000000000000000000B7
:10A9A00000000000000000000000000000000000A7
:10A9B0000000000000000000000000000000000097
:10A9C0000000000000000000000000000000000087
:10A9D000000010000004100000041000000410002B
:10A9E00000041000000410000004100000041FFF09
:10A9F000FFFC00000000000000000000000000005C
:10AA00000000000000000000000000000000000046
:10AA10000000000000000000000000000000000036
:10AA20000000000000000000000000000000000026
:10AA30000000000000000000000000000000000016
:10AA40000000000000000000000000000000000006
:10AA500000000000000000000000020000000400F0
:10AA6000000008000000180000001000000018009E
:10AA700000001800000004000000020000000000B8
:10AA800000000000000000000000000000000000C6
:10AA900000000000000000000000000000000000B6
:10AAA00000000000000000000000000000000000A6
:10AAB0000000000000000000000000000000000096
:10AAC0000000000000000000000000000001000085
:10AAD0000001000000010000000100000001000072
:10AAE0000001000000010000000100000001000062
:10AAF0000001000000010000000100000001000052
:10AB00000001000000010000000100000000000042
:10AB10000000000000000000000000000000000035
:10AB20000000000000000000000000000000000025
:10AB30000000000000000000000000000000000015
:10AB40000000000000000000000000000000000005
:10AB500000000000000010000000100000001000C5
:10AB600000001800000008000000040000000000C1
:10AB700000000000000000000000000000000000D5
:10AB800000000000000000000000000000000000C5
:10AB900000000000000000000000000000000000B5
:10ABA00000000000000000000000000000000000A5
:10ABB0000000000000000000000000000000000095
:10ABC0000000000000000000000000000000000085
:10ABD000038000018FC000038C6000061820000471
:10ABE0001020000410200004202000042040000653
:10ABF00020400003FFC00001FFE000000020000033
:10AC00000020000000C00000000000000000000064
:10AC10000000000000000000000000000000000034
:10AC20000000000000000000000000000000000024
:10AC30000000000000000000000000000000000014
:10AC40000000000000000000000000000000020002
:10AC500000000200000003FFFFE007FFFFC000014B
:10AC600080C00002006000020020000400200004F8
:10AC700000200004002000060040000300C0000186
:10AC8000FF800000FE000000000000000000000047
:10AC900000000000000000000000000000000000B4
:10ACA00000000000000000000000000000000000A4
:10ACB0000000000000000000000000000000000094
:10ACC0000000000000000000000000000000000084
:10ACD000000000007E000001FF80000381C0000230
:10ACE00000400006002000040020000400200004B2
:10ACF0000020000600200003C0400001C0800000CA
:10AD00000300000000000000000000000000000040
:10AD10000000000000000000000000000000000033
:10AD20000000000000000000000000000000000023
:10AD30000000000000000000000000000000000013
:10AD40000000000000000000000000000000000003
:10AD5000000000007E000001FF80000380C00006AC
:10AD60000060000400200004002000040020020411
:10AD700000400202008003FFFFE007FFFFC0000069
:10AD80000040000000400000000000000000000043
:10AD900000000000000000000000000000000000B3
:10ADA00000000000000000000000000000000000A3
:10ADB0000000000000000000000000000000000093
:10ADC0000000000000000000000000000000000083
:10ADD000000000007E000001FF80000311C000029F
:10ADE0001040000410600004102000041020000433
:10ADF000102000061020000310400001F0C00000E9
:10AE000071000000000000000000000000000000D1
:10AE10000000000000000000000000000000000032
:10AE20000000000000000000000000000000000022
:10AE30000000000000000000000000000000000012
:10AE40000000000000000000000000000000000002
:10AE500000000004000000040020000400200004A2
:10AE60000020007FFFE001FFFFE001040020030459
:10AE7000002002040020020400200204000002005E
:10AE8000000001C0000001C0000000000000000040
:10AE900000000000000000000000000000000000B2
:10AEA00000000000000000000000000000000000A2
:10AEB0000000000000000000000000000000000092
:10AEC0000000000000000000000000000000000082
:10AED00000000000001C0000E33E0003FFC200026F
:10AEE0000CC3000404C1000404C1000404C1000434
:10AEF00004C100060CC10003F8C30005F06200069F
:10AF0000007E0006003C0000000000000000000081
:10AF10000000000000000000000000000000000031
:10AF20000000000000000000000000000000000021
:10AF30000000000000000000000000000000000011
:10AF400000000000000000000000000000000200FF
:10AF500000200200002003FFFFE007FFFFE00001E8
:10AF60000020000200200006000000040000000491
:10AF7000000000040020000600200003FFE00001A4
:10AF8000FFE00000002000000020000000000000A2
:10AF900000000000000000000000000000000000B1
:10AFA00000000000000000000000000000000000A1
:10AFB0000000000000000000000000000000000091
:10AFC0000000000000000000000000000000000081
:10AFD0000000000000000004002000040020000425
:10AFE0000020000400200387FFE0038FFFE00380C0
:10AFF00000200000002000000020000000200000D1
:10B000000000000000000000000000000000000040
:10B010000000000000000000000000000000000030
:10B020000000000000000000000000000000000020
:10B030000000000000000000000000000000000010
:10B040000000000000000000000000000000000000
:10B0500000000000000000000006000000070000E3
:10B0600000010000000100040001000400010004D0
:10B070000003000400060387FFFC038FFFF8038032
:10B0800000000000000000000000000000000000C0
:10B0900000000000000000000000000000000000B0
:10B0A00000000000000000000000000000000000A0
:10B0B0000000000000000000000000000000000090
:10B0C000000000000000000000000000000002007E
:10B0D00000200200002003FFFFE007FFFFE0000068
:10B0E000082000001020000030000000FC000005D7
:10B0F0008E00000707A0000601E0000400E0000445
:10B1000000200000002000000000000000000000FF
:10B11000000000000000000000000000000000002F
:10B12000000000000000000000000000000000001F
:10B13000000000000000000000000000000000000F
:10B1400000000000000000000000000000000000FF
:10B1500000000000000002000020020000200200A9
:10B1600000200200002003FFFFE007FFFFE00000D7
:10B17000002000000020000000200000002000004F
:10B1800000000000000000000000000000000000BF
:10B1900000000000000000000000000000000000AF
:10B1A000000000000000000000000000000000009F
:10B1B000000000000000000000000000000000008F
:10B1C000000000000000000000000000000000047B
:10B1D00000200007FFE0000FFFE000020020000455
:10B1E0000000000400200007FFE00003FFE0000271
:10B1F000002000040000000400200007FFE000031E
:10B20000FFE000000020000000000000000000003F
:10B21000000000000000000000000000000000002E
:10B22000000000000000000000000000000000001E
:10B23000000000000000000000000000000000000E
:10B2400000000000000000000000000000000004FA
:10B250000020000400200007FFE0000FFFE00001D5
:10B260000020000200200002000000040000000492
:10B27000000000040020000600200003FFE00001A1
:10B28000FFE000000020000000200000000000009F
:10B2900000000000000000000000000000000000AE
:10B2A000000000000000000000000000000000009E
:10B2B000000000000000000000000000000000008E
:10B2C000000000000000000000000000000000007E
:10B2D000000000007E000000FF80000381C000022B
:10B2E00000400006002000040020000400200004AC
:10B2F00000200006002000020040000381C0000181
:10B30000FF8000007E000000000000000000000040
:10B31000000000000000000000000000000000002D
:10B32000000000000000000000000000000000001D
:10B33000000000000000000000000000000000000D
:10B3400000000000000000000000000000000004F9
:10B350000001000400010007FFFF000FFFFF0001D4
:10B3600000C100020041000400200004002000048D
:10B3700000200004002000060040000301C000017E
:10B38000FF8000007E0000000000000000000000C0
:10B3900000000000000000000000000000000000AD
:10B3A000000000000000000000000000000000009D
:10B3B000000000000000000000000000000000008D
:10B3C000000000000000000000000000000000007D
:10B3D000000000007E000001FF80000380C000022A
:10B3E000006000040020000400200004002000048D
:10B3F000002000020041000300C10003FFFF00071E
:10B40000FFFF00000001000000010000000000003C
:10B41000000000000000000000000000000000002C
:10B42000000000000000000000000000000000001C
:10B43000000000000000000000000000000000000C
:10B4400000000000000000000000000000000004F8
:10B450000020000400200004002000040020000F51
:10B46000FFE0000FFFE00000C0200001002000020C
:10B470000020000600200004000000040000000777
:10B4800000000003000000000000000000000000B9
:10B4900000000000000000000000000000000000AC
:10B4A000000000000000000000000000000000009C
:10B4B000000000000000000000000000000000008C
:10B4C000000000000000000000000000000000007C
:10B4D0000000000003E00001C0E00003E0400006BF
:10B4E000302000043020000418200004182000043C
:10B4F000182000040C2000020C60000307C00007A5
:10B500008380000000000000000000000000000038
:10B51000000000000000000000000000000000002B
:10B52000000000000000000000000000000000001B
:10B53000000000000000000000000000000000000B
:10B5400000000000000000000000000000000000FB
:10B550000000000400000004000000040000000CD3
:10B560000000001FFF8000FFFFC000040060000417
:10B57000002000040020000400200004004000001F
:10B58000018000000000000000000000000000003A
:10B5900000000000000000000000000000000000AB
:10B5A000000000000000000000000000000000009B
:10B5B000000000000000000000000000000000008B
:10B5C0000000000000000000000000000000000477
:10B5D0000000000400000007FF80000FFFC0000013
:10B5E000006000000020000000200000002000009B
:10B5F000002000040040000400800007FFE0000F6E
:10B60000FFC00000004000000040000000000000FB
:10B61000000000000000000000000000000000002A
:10B62000000000000000000000000000000000001A
:10B63000000000000000000000000000000000000A
:10B6400000000000000000000000000000000004F6
:10B65000000000040000000780000007F000000464
:10B66000FE0000041FC0000003E000000380000093
:10B670001C000004600000078000000600000004B9
:10B6800000000000000000000000000000000000BA
:10B6900000000000000000000000000000000000AA
:10B6A000000000000000000000000000000000009A
:10B6B000000000000000000000000000000000008A
:10B6C0000000000000000000000000040000000670
:10B6D00000000007C0000007FC0000043F800000DD
:10B6E00003E000040F800006F0000007F0000007F0
:10B6F000FF8000040FE00000038000043C0000070E
:10B70000C00000060000000400000000000000006F
:10B710000000000000000000000000000000000029
:10B720000000000000000000000000000000000019
:10B730000000000000000000000000000000000009
:10B7400000000000000000000000000000000000F9
:10B7500000200004002000040060000700E0000753
:10B7600083200007E6000004F80000003C0000040D
:10B770005E20000587A0000601E0000400600004D0
:10B780000020000000200000000000000000000079
:10B7900000000000000000000000000000000000A9
:10B7A0000000000000000000000000000000000099
:10B7B0000000000000000000000000000000000089
:10B7C0000000000000000000000000000000000475
:10B7D000000000040003000700030007E00100046C
:10B7E000F80100041F02000007FC000000E0000058
:10B7F0000700000438000007C00000060000000435
:10B800000000000400000000000000000000000034
:10B810000000000000000000000000000000000028
:10B820000000000000000000000000000000000018
:10B830000000000000000000000000000000000008
:10B8400000000000000000000000000000000000F8
:10B85000000000078060000600E0000403E0000430
:10B8600007A000040E2000043C2000047020000506
:10B87000E0200007802000070060000400E00000D6
:10B880000380000000000000000000000000000035
:10B8900000000000000000000000000000000000A8
:10B8A0000000000000000000000000000000000098
:10B8B0000000000000000000000000000000000088
:10B8C0000000000000000000000000000000000078
:10B8D0000000000000000000000000000000000068
:10B8E0000000000000000000800000008000000157
:10B8F000400007FE3FF8080000041000000210009E
:10B900000002000000000000000000000000000035
:10B910000000000000000000000000000000000027
:10B920000000000000000000000000000000000017
:10B930000000000000000000000000000000000007
:10B9400000000000000000000000000000000000F7
:10B9500000000000000000000000000000000000E7
:10B9600000000000000000000000FFFFFFFF0000DB
:10B9700000000000000000000000000000000000C7
:10B9800000000000000000000000000000000000B7
:10B9900000000000000000000000000000000000A7
:10B9A0000000000000000000000000000000000097
:10B9B0000000000000000000000000000000000087
:10B9C0000000000000000000000000000000000077
:10B9D000000010000002100000020800000407FE32
:10B9E0003FF80001400000008000000080000000DF
:10B9F0000000000000000000000000000000000047
:10BA00000000000000000000000000000000000036
:10BA10000000000000000000000000000000000026
:10BA20000000000000000000000000000000000016
:10BA30000000000000000000000000000000000006
:10BA400000000000000000000000000000001800DE
:10BA500000003000000040000000400000004000F6
:10BA6000000020000000300000000800000004007A
:10BA700000000200000002000000020000000C00B4
:10BA8000000018000000000000000000000000009E
:10BA900000000000000000000000000000000000A6
:10BAA0000000000000000000000000000000000096
:10BAB0000000000000000000000000000000000086
:10BAC0000000000000000000000030313233343547
:10BAD00036373839414243444546403058003031CA
:10BAE00032333435363738396162636465664030E5
:10BAF00078000400000800000000000000020001BF
:10BB0000000010003F0000006465630069640000ED
:10BB100072756E74696D650068656C700000000078
:10BB20006C6973740000000068657800766F696462
:10BB30002077726974655F6164647228753332209E
:10BB4000616464722C7533322076616C29000000C8
:10BB500075333220726561645F6164647228753385
:10BB60003220616464722900766F69642064656CB8
:10BB700061795F6D7328753136206E6D7329000011
:10BB8000766F69642064656C61795F7573287533BD
:10BB900032206E7573290000B8BB00080000002039
:10BBA0006C010000C401000818BC00086C010020F2
:10BBB000241B000020020008370101031502065370
:10BBC00024F43210021A012AFF0112011518EF04A1
:10BBD000BB1B0818041A20041A0C041A28041A089B
:10BBE000041A100413655F1B08500813E9701B0842
:10BBF0002C0813D55A1B0868081AED081A80082269
:10BC000054142059671B0899281349601B08CD0C50
:08BC10000A1B047701C60000C5
:040000050800018965
:00000001FF
